{
  "abi": [
    {
      "type": "constructor",
      "inputs": [
        {
          "name": "_bridgehubAddress",
          "type": "address",
          "internalType": "address"
        }
      ],
      "stateMutability": "nonpayable"
    },
    {
      "type": "function",
      "name": "BRIDGE_HUB",
      "inputs": [],
      "outputs": [
        {
          "name": "",
          "type": "address",
          "internalType": "contract IBridgehubBase"
        }
      ],
      "stateMutability": "view"
    },
    {
      "type": "function",
      "name": "deployShadowAccount",
      "inputs": [
        {
          "name": "_l2CallerAddress",
          "type": "address",
          "internalType": "address"
        }
      ],
      "outputs": [
        {
          "name": "",
          "type": "address",
          "internalType": "address"
        }
      ],
      "stateMutability": "nonpayable"
    },
    {
      "type": "function",
      "name": "l1NativeTokenVault",
      "inputs": [],
      "outputs": [
        {
          "name": "",
          "type": "address",
          "internalType": "contract IL1NativeTokenVault"
        }
      ],
      "stateMutability": "view"
    },
    {
      "type": "function",
      "name": "l2InteropCenterAddress",
      "inputs": [],
      "outputs": [
        {
          "name": "",
          "type": "address",
          "internalType": "address"
        }
      ],
      "stateMutability": "view"
    },
    {
      "type": "function",
      "name": "receiveInteropFromL2",
      "inputs": [
        {
          "name": "_bundleWithdrawalParams",
          "type": "tuple",
          "internalType": "struct FinalizeL1DepositParams",
          "components": [
            {
              "name": "chainId",
              "type": "uint256",
              "internalType": "uint256"
            },
            {
              "name": "l2BatchNumber",
              "type": "uint256",
              "internalType": "uint256"
            },
            {
              "name": "l2MessageIndex",
              "type": "uint256",
              "internalType": "uint256"
            },
            {
              "name": "l2Sender",
              "type": "address",
              "internalType": "address"
            },
            {
              "name": "l2TxNumberInBatch",
              "type": "uint16",
              "internalType": "uint16"
            },
            {
              "name": "message",
              "type": "bytes",
              "internalType": "bytes"
            },
            {
              "name": "merkleProof",
              "type": "bytes32[]",
              "internalType": "bytes32[]"
            }
          ]
        }
      ],
      "outputs": [],
      "stateMutability": "nonpayable"
    },
    {
      "type": "error",
      "name": "InvalidProof",
      "inputs": []
    },
    {
      "type": "error",
      "name": "LegacyBridgeMessageNotSupported",
      "inputs": []
    },
    {
      "type": "error",
      "name": "ShadowAccountDeploymentFailed",
      "inputs": []
    },
    {
      "type": "error",
      "name": "WrongL2Sender",
      "inputs": [
        {
          "name": "l2Sender",
          "type": "address",
          "internalType": "address"
        }
      ]
    }
  ],
  "bytecode": {
    "object": "0x6080604052348015600e575f5ffd5b50604051610ff8380380610ff8833981016040819052602b91604f565b600280546001600160a01b0319166001600160a01b0392909216919091179055607a565b5f60208284031215605e575f5ffd5b81516001600160a01b03811681146073575f5ffd5b9392505050565b610f71806100875f395ff3fe608060405234801561000f575f5ffd5b5060043610610064575f3560e01c80638bfc39881161004d5780638bfc3988146100d15780638e4f7e11146100e6578063df950b97146100f9575f5ffd5b80635d4edca7146100685780636f513211146100b1575b5f5ffd5b6002546100889073ffffffffffffffffffffffffffffffffffffffff1681565b60405173ffffffffffffffffffffffffffffffffffffffff909116815260200160405180910390f35b6001546100889073ffffffffffffffffffffffffffffffffffffffff1681565b6100e46100df36600461063b565b610118565b005b6100886100f43660046106ad565b610167565b5f546100889073ffffffffffffffffffffffffffffffffffffffff1681565b61012b610124826108b8565b5f5f610326565b5f8061013a60a0840184610966565b81019061014791906109ce565b915091505f61015583610167565b90506101618183610557565b50505050565b6040805173ffffffffffffffffffffffffffffffffffffffff831660208201525f918291016040516020818303038152906040528051906020012090505f604051806020016101b59061062e565b7fffffffffffffffffffffffffffffffffffffffffffffffffffffffffffffffe082820381018352601f90910116604081815282516020938401207fff00000000000000000000000000000000000000000000000000000000000000838501527fffffffffffffffffffffffffffffffffffffffff0000000000000000000000003060601b166021840152603583018690526055808401829052825180850390910181526075909301909152815191909201209091508073ffffffffffffffffffffffffffffffffffffffff163b5f0361031e575f836040516102979061062e565b8190604051809103905ff59050801580156102b4573d5f5f3e3d5ffd5b5090508073ffffffffffffffffffffffffffffffffffffffff168273ffffffffffffffffffffffffffffffffffffffff161461031c576040517fdec816c800000000000000000000000000000000000000000000000000000000815260040160405180910390fd5b505b949350505050565b60408051606080820183525f80835260208301529181019190915260608401515f610355620100006003610b08565b73ffffffffffffffffffffffffffffffffffffffff168273ffffffffffffffffffffffffffffffffffffffff1614806103c55750610396618000600a610b08565b73ffffffffffffffffffffffffffffffffffffffff168273ffffffffffffffffffffffffffffffffffffffff16145b9050801580156103d25750835b15610425576040517f636c90db00000000000000000000000000000000000000000000000000000000815273ffffffffffffffffffffffffffffffffffffffff8316600482015260240160405180910390fd5b6040518060600160405280876080015161ffff168152602001866104495783610456565b610456618000600a610b08565b73ffffffffffffffffffffffffffffffffffffffff908116825260a08901516020928301526002548951928a01516040808c015160c08d015191517f99c16d1a0000000000000000000000000000000000000000000000000000000081529699505f98509290931695506399c16d1a946104d894939192918991600401610bab565b602060405180830381865afa1580156104f3573d5f5f3e3d5ffd5b505050506040513d601f19601f820116820180604052508101906105179190610c4e565b905080610550576040517f09bde33900000000000000000000000000000000000000000000000000000000815260040160405180910390fd5b5050505050565b80515f5b81811015610161578373ffffffffffffffffffffffffffffffffffffffff1663a8f63c8e84838151811061059157610591610c6d565b60200260200101515f01518584815181106105ae576105ae610c6d565b6020026020010151602001518685815181106105cc576105cc610c6d565b6020026020010151604001516040518463ffffffff1660e01b81526004016105f693929190610c9a565b5f604051808303815f87803b15801561060d575f5ffd5b505af115801561061f573d5f5f3e3d5ffd5b5050505080600101905061055b565b61026480610cd883390190565b5f6020828403121561064b575f5ffd5b813567ffffffffffffffff811115610661575f5ffd5b820160e08185031215610672575f5ffd5b9392505050565b73ffffffffffffffffffffffffffffffffffffffff8116811461069a575f5ffd5b50565b80356106a881610679565b919050565b5f602082840312156106bd575f5ffd5b813561067281610679565b7f4e487b71000000000000000000000000000000000000000000000000000000005f52604160045260245ffd5b60405160e0810167ffffffffffffffff81118282101715610718576107186106c8565b60405290565b6040516060810167ffffffffffffffff81118282101715610718576107186106c8565b604051601f82017fffffffffffffffffffffffffffffffffffffffffffffffffffffffffffffffe016810167ffffffffffffffff81118282101715610788576107886106c8565b604052919050565b803561ffff811681146106a8575f5ffd5b5f82601f8301126107b0575f5ffd5b813567ffffffffffffffff8111156107ca576107ca6106c8565b6107fb60207fffffffffffffffffffffffffffffffffffffffffffffffffffffffffffffffe0601f84011601610741565b81815284602083860101111561080f575f5ffd5b816020850160208301375f918101602001919091529392505050565b5f67ffffffffffffffff821115610844576108446106c8565b5060051b60200190565b5f82601f83011261085d575f5ffd5b813561087061086b8261082b565b610741565b8082825260208201915060208360051b860101925085831115610891575f5ffd5b602085015b838110156108ae578035835260209283019201610896565b5095945050505050565b5f60e082360312156108c8575f5ffd5b6108d06106f5565b8235815260208084013590820152604080840135908201526108f46060840161069d565b606082015261090560808401610790565b608082015260a083013567ffffffffffffffff811115610923575f5ffd5b61092f368286016107a1565b60a08301525060c083013567ffffffffffffffff81111561094e575f5ffd5b61095a3682860161084e565b60c08301525092915050565b5f5f83357fffffffffffffffffffffffffffffffffffffffffffffffffffffffffffffffe1843603018112610999575f5ffd5b83018035915067ffffffffffffffff8211156109b3575f5ffd5b6020019150368190038213156109c7575f5ffd5b9250929050565b5f5f604083850312156109df575f5ffd5b82356109ea81610679565b9150602083013567ffffffffffffffff811115610a05575f5ffd5b8301601f81018513610a15575f5ffd5b8035610a2361086b8261082b565b8082825260208201915060208360051b850101925087831115610a44575f5ffd5b602084015b83811015610af957803567ffffffffffffffff811115610a67575f5ffd5b85016060818b037fffffffffffffffffffffffffffffffffffffffffffffffffffffffffffffffe0011215610a9a575f5ffd5b610aa261071e565b6020820135610ab081610679565b815260408201356020820152606082013567ffffffffffffffff811115610ad5575f5ffd5b610ae48c6020838601016107a1565b60408301525084525060209283019201610a49565b50809450505050509250929050565b73ffffffffffffffffffffffffffffffffffffffff8181168382160190811115610b59577f4e487b71000000000000000000000000000000000000000000000000000000005f52601160045260245ffd5b92915050565b5f81518084528060208401602086015e5f6020828601015260207fffffffffffffffffffffffffffffffffffffffffffffffffffffffffffffffe0601f83011685010191505092915050565b85815284602082015283604082015260a0606082015261ffff83511660a082015273ffffffffffffffffffffffffffffffffffffffff60208401511660c08201525f6040840151606060e0840152610c07610100840182610b5f565b8381036080850152845180825260208087019350909101905f5b81811015610c3f578351835260209384019390920191600101610c21565b50909998505050505050505050565b5f60208284031215610c5e575f5ffd5b81518015158114610672575f5ffd5b7f4e487b71000000000000000000000000000000000000000000000000000000005f52603260045260245ffd5b73ffffffffffffffffffffffffffffffffffffffff84168152826020820152606060408201525f610cce6060830184610b5f565b9594505050505056fe6080604052348015600e575f5ffd5b505f80546001600160a01b031916331790556102378061002d5f395ff3fe60806040526004361061002b575f3560e01c8063a6bba12f14610036578063a8f63c8e1461008a575f5ffd5b3661003257005b5f5ffd5b348015610041575f5ffd5b505f546100619073ffffffffffffffffffffffffffffffffffffffff1681565b60405173ffffffffffffffffffffffffffffffffffffffff909116815260200160405180910390f35b348015610095575f5ffd5b506100a96100a4366004610155565b6100ab565b005b5f8473ffffffffffffffffffffffffffffffffffffffff168484846040516100d49291906101f2565b5f6040518083038185875af1925050503d805f811461010e576040519150601f19603f3d011682016040523d82523d5f602084013e610113565b606091505b505090508061014e576040517f3204506f00000000000000000000000000000000000000000000000000000000815260040160405180910390fd5b5050505050565b5f5f5f5f60608587031215610168575f5ffd5b843573ffffffffffffffffffffffffffffffffffffffff8116811461018b575f5ffd5b935060208501359250604085013567ffffffffffffffff8111156101ad575f5ffd5b8501601f810187136101bd575f5ffd5b803567ffffffffffffffff8111156101d3575f5ffd5b8760208284010111156101e4575f5ffd5b949793965060200194505050565b818382375f910190815291905056fea2646970667358221220b829b702d63469015f0677cf914b3b39e8fdecd7ad76f03a0637d8673b039b0664736f6c634300081c0033a26469706673582212203f62753e0c08c28aa2dbdf91672411a6fa64fe1edbe90bcd615aff084df8d03764736f6c634300081c0033",
    "linkReferences": {}
  },
  "methodIdentifiers": {
    "BRIDGE_HUB()": "5d4edca7",
    "deployShadowAccount(address)": "8e4f7e11",
    "l1NativeTokenVault()": "6f513211",
    "l2InteropCenterAddress()": "df950b97",
    "receiveInteropFromL2((uint256,uint256,uint256,address,uint16,bytes,bytes32[]))": "8bfc3988"
  },
  "id": 170
}