{
  "_format": "hh3-artifact-1",
  "contractName": "L2InteropCenter",
  "sourceName": "contracts/L2InteropCenter.sol",
  "abi": [
    {
      "inputs": [
        {
          "internalType": "address",
          "name": "_l1InteropHandlerAddress",
          "type": "address"
        }
      ],
      "stateMutability": "nonpayable",
      "type": "constructor"
    },
    {
      "inputs": [],
      "name": "SendBundleToL1Failed",
      "type": "error"
    },
    {
      "inputs": [],
      "name": "l1InteropHandlerAddress",
      "outputs": [
        {
          "internalType": "address",
          "name": "",
          "type": "address"
        }
      ],
      "stateMutability": "view",
      "type": "function"
    },
    {
      "inputs": [
        {
          "internalType": "address",
          "name": "_l2CallerAddress",
          "type": "address"
        }
      ],
      "name": "l1ShadowAccount",
      "outputs": [
        {
          "internalType": "address",
          "name": "",
          "type": "address"
        }
      ],
      "stateMutability": "view",
      "type": "function"
    },
    {
      "inputs": [
        {
          "components": [
            {
              "internalType": "address",
              "name": "target",
              "type": "address"
            },
            {
              "internalType": "uint256",
              "name": "value",
              "type": "uint256"
            },
            {
              "internalType": "bytes",
              "name": "data",
              "type": "bytes"
            }
          ],
          "internalType": "struct ShadowAccountOp[]",
          "name": "shadowAccountOps",
          "type": "tuple[]"
        }
      ],
      "name": "sendBundleToL1",
      "outputs": [],
      "stateMutability": "nonpayable",
      "type": "function"
    },
    {
      "inputs": [],
      "name": "shadowAccountBytecodeHash",
      "outputs": [
        {
          "internalType": "bytes32",
          "name": "",
          "type": "bytes32"
        }
      ],
      "stateMutability": "view",
      "type": "function"
    }
  ],
  "bytecode": "0x608060405234801561000f575f5ffd5b50604051610ed1380380610ed183398181016040528101906100319190610112565b805f5f6101000a81548173ffffffffffffffffffffffffffffffffffffffff021916908373ffffffffffffffffffffffffffffffffffffffff16021790555060405180602001610080906100a7565b6020820181038252601f19601f82011660405250805190602001206001819055505061013d565b6103cb80610b0683390190565b5f5ffd5b5f73ffffffffffffffffffffffffffffffffffffffff82169050919050565b5f6100e1826100b8565b9050919050565b6100f1816100d7565b81146100fb575f5ffd5b50565b5f8151905061010c816100e8565b92915050565b5f60208284031215610127576101266100b4565b5b5f610134848285016100fe565b91505092915050565b6109bc8061014a5f395ff3fe608060405234801561000f575f5ffd5b506004361061004a575f3560e01c806394899c0c1461004e578063a53633be1461006c578063a6bba12f14610088578063e2ed1caf146100a6575b5f5ffd5b6100566100d6565b604051610063919061031e565b60405180910390f35b610086600480360381019061008191906103a0565b6100dc565b005b61009061023b565b60405161009d919061042a565b60405180910390f35b6100c060048036038101906100bb919061046d565b61025f565b6040516100cd919061042a565b60405180910390f35b60015481565b5f3383836040516020016100f293929190610715565b60405160208183030381529060405290505f60086180006101139190610772565b73ffffffffffffffffffffffffffffffffffffffff1660086180006101389190610772565b506362f84b2460e01b836040516024016101529190610819565b604051602081830303815290604052907bffffffffffffffffffffffffffffffffffffffffffffffffffffffff19166020820180517bffffffffffffffffffffffffffffffffffffffffffffffffffffffff83818316178352505050506040516101bc9190610873565b5f604051808303815f865af19150503d805f81146101f5576040519150601f19603f3d011682016040523d82523d5f602084013e6101fa565b606091505b5050905080610235576040517fd1c1298100000000000000000000000000000000000000000000000000000000815260040160405180910390fd5b50505050565b5f5f9054906101000a900473ffffffffffffffffffffffffffffffffffffffff1681565b5f5f82604051602001610272919061042a565b6040516020818303038152906040528051906020012090506102b75f5f9054906101000a900473ffffffffffffffffffffffffffffffffffffffff16826001546102bf565b915050919050565b5f5f60ff60f81b90505f818686866040516020016102e09493929190610939565b604051602081830303815290604052805190602001209050805f1c925050509392505050565b5f819050919050565b61031881610306565b82525050565b5f6020820190506103315f83018461030f565b92915050565b5f5ffd5b5f5ffd5b5f5ffd5b5f5ffd5b5f5ffd5b5f5f83601f8401126103605761035f61033f565b5b8235905067ffffffffffffffff81111561037d5761037c610343565b5b60208301915083602082028301111561039957610398610347565b5b9250929050565b5f5f602083850312156103b6576103b5610337565b5b5f83013567ffffffffffffffff8111156103d3576103d261033b565b5b6103df8582860161034b565b92509250509250929050565b5f73ffffffffffffffffffffffffffffffffffffffff82169050919050565b5f610414826103eb565b9050919050565b6104248161040a565b82525050565b5f60208201905061043d5f83018461041b565b92915050565b61044c8161040a565b8114610456575f5ffd5b50565b5f8135905061046781610443565b92915050565b5f6020828403121561048257610481610337565b5b5f61048f84828501610459565b91505092915050565b5f82825260208201905092915050565b5f819050919050565b5f6104bf6020840184610459565b905092915050565b6104d08161040a565b82525050565b5f819050919050565b6104e8816104d6565b81146104f2575f5ffd5b50565b5f81359050610503816104df565b92915050565b5f61051760208401846104f5565b905092915050565b610528816104d6565b82525050565b5f5ffd5b5f5ffd5b5f5ffd5b5f5f8335600160200384360303811261055657610555610536565b5b83810192508235915060208301925067ffffffffffffffff82111561057e5761057d61052e565b5b60018202360383131561059457610593610532565b5b509250929050565b5f82825260208201905092915050565b828183375f83830152505050565b5f601f19601f8301169050919050565b5f6105d5838561059c565b93506105e28385846105ac565b6105eb836105ba565b840190509392505050565b5f606083016106075f8401846104b1565b6106135f8601826104c7565b506106216020840184610509565b61062e602086018261051f565b5061063c604084018461053a565b858303604087015261064f8382846105ca565b925050508091505092915050565b5f61066883836105f6565b905092915050565b5f8235600160600383360303811261068b5761068a610536565b5b82810191505092915050565b5f602082019050919050565b5f6106ae8385610498565b9350836020840285016106c0846104a8565b805f5b878110156107035784840389526106da8284610670565b6106e4858261065d565b94506106ef83610697565b925060208a019950506001810190506106c3565b50829750879450505050509392505050565b5f6040820190506107285f83018661041b565b818103602083015261073b8184866106a3565b9050949350505050565b7f4e487b71000000000000000000000000000000000000000000000000000000005f52601160045260245ffd5b5f61077c826103eb565b9150610787836103eb565b9250828201905073ffffffffffffffffffffffffffffffffffffffff8111156107b3576107b2610745565b5b92915050565b5f81519050919050565b5f82825260208201905092915050565b8281835e5f83830152505050565b5f6107eb826107b9565b6107f581856107c3565b93506108058185602086016107d3565b61080e816105ba565b840191505092915050565b5f6020820190508181035f83015261083181846107e1565b905092915050565b5f81905092915050565b5f61084d826107b9565b6108578185610839565b93506108678185602086016107d3565b80840191505092915050565b5f61087e8284610843565b915081905092915050565b5f7fff0000000000000000000000000000000000000000000000000000000000000082169050919050565b5f819050919050565b6108ce6108c982610889565b6108b4565b82525050565b5f8160601b9050919050565b5f6108ea826108d4565b9050919050565b5f6108fb826108e0565b9050919050565b61091361090e8261040a565b6108f1565b82525050565b5f819050919050565b61093361092e82610306565b610919565b82525050565b5f61094482876108bd565b6001820191506109548286610902565b6014820191506109648285610922565b6020820191506109748284610922565b6020820191508190509594505050505056fea2646970667358221220d4ac1c8a95ff5e64c9c66be4da57b42ba414ac093025e51c7a88b193cc873bef64736f6c634300081c00336080604052348015600e575f5ffd5b50335f5f6101000a81548173ffffffffffffffffffffffffffffffffffffffff021916908373ffffffffffffffffffffffffffffffffffffffff1602179055506103708061005b5f395ff3fe60806040526004361061002c575f3560e01c8063a6bba12f14610037578063a8f63c8e1461006157610033565b3661003357005b5f5ffd5b348015610042575f5ffd5b5061004b610089565b6040516100589190610196565b60405180910390f35b34801561006c575f5ffd5b5061008760048036038101906100829190610275565b6100ad565b005b5f5f9054906101000a900473ffffffffffffffffffffffffffffffffffffffff1681565b5f8473ffffffffffffffffffffffffffffffffffffffff168484846040516100d6929190610322565b5f6040518083038185875af1925050503d805f8114610110576040519150601f19603f3d011682016040523d82523d5f602084013e610115565b606091505b5050905080610150576040517f3204506f00000000000000000000000000000000000000000000000000000000815260040160405180910390fd5b5050505050565b5f73ffffffffffffffffffffffffffffffffffffffff82169050919050565b5f61018082610157565b9050919050565b61019081610176565b82525050565b5f6020820190506101a95f830184610187565b92915050565b5f5ffd5b5f5ffd5b6101c081610176565b81146101ca575f5ffd5b50565b5f813590506101db816101b7565b92915050565b5f819050919050565b6101f3816101e1565b81146101fd575f5ffd5b50565b5f8135905061020e816101ea565b92915050565b5f5ffd5b5f5ffd5b5f5ffd5b5f5f83601f84011261023557610234610214565b5b8235905067ffffffffffffffff81111561025257610251610218565b5b60208301915083600182028301111561026e5761026d61021c565b5b9250929050565b5f5f5f5f6060858703121561028d5761028c6101af565b5b5f61029a878288016101cd565b94505060206102ab87828801610200565b935050604085013567ffffffffffffffff8111156102cc576102cb6101b3565b5b6102d887828801610220565b925092505092959194509250565b5f81905092915050565b828183375f83830152505050565b5f61030983856102e6565b93506103168385846102f0565b82840190509392505050565b5f61032e8284866102fe565b9150819050939250505056fea26469706673582212201602ad5a5681f0e64886a25b0da07d315904e73eeb20cd2dbdefa4bc531162dc64736f6c634300081c0033",
  "linkReferences": {},
  "deployedLinkReferences": {},
  "immutableReferences": {},
  "inputSourceName": "project/contracts/L2InteropCenter.sol",
  "buildInfoId": "solc-0_8_28-055142c7db120a70409e5dac253098b3f12760d0"
}