{
  "abi": [
    {
      "type": "constructor",
      "inputs": [],
      "stateMutability": "nonpayable"
    },
    {
      "type": "receive",
      "stateMutability": "payable"
    },
    {
      "type": "function",
      "name": "addStake",
      "inputs": [
        {
          "name": "unstakeDelaySec",
          "type": "uint32",
          "internalType": "uint32"
        }
      ],
      "outputs": [],
      "stateMutability": "payable"
    },
    {
      "type": "function",
      "name": "balanceOf",
      "inputs": [
        {
          "name": "account",
          "type": "address",
          "internalType": "address"
        }
      ],
      "outputs": [
        {
          "name": "",
          "type": "uint256",
          "internalType": "uint256"
        }
      ],
      "stateMutability": "view"
    },
    {
      "type": "function",
      "name": "delegateAndRevert",
      "inputs": [
        {
          "name": "target",
          "type": "address",
          "internalType": "address"
        },
        {
          "name": "data",
          "type": "bytes",
          "internalType": "bytes"
        }
      ],
      "outputs": [],
      "stateMutability": "nonpayable"
    },
    {
      "type": "function",
      "name": "depositTo",
      "inputs": [
        {
          "name": "account",
          "type": "address",
          "internalType": "address"
        }
      ],
      "outputs": [],
      "stateMutability": "payable"
    },
    {
      "type": "function",
      "name": "eip712Domain",
      "inputs": [],
      "outputs": [
        {
          "name": "fields",
          "type": "bytes1",
          "internalType": "bytes1"
        },
        {
          "name": "name",
          "type": "string",
          "internalType": "string"
        },
        {
          "name": "version",
          "type": "string",
          "internalType": "string"
        },
        {
          "name": "chainId",
          "type": "uint256",
          "internalType": "uint256"
        },
        {
          "name": "verifyingContract",
          "type": "address",
          "internalType": "address"
        },
        {
          "name": "salt",
          "type": "bytes32",
          "internalType": "bytes32"
        },
        {
          "name": "extensions",
          "type": "uint256[]",
          "internalType": "uint256[]"
        }
      ],
      "stateMutability": "view"
    },
    {
      "type": "function",
      "name": "getDepositInfo",
      "inputs": [
        {
          "name": "account",
          "type": "address",
          "internalType": "address"
        }
      ],
      "outputs": [
        {
          "name": "info",
          "type": "tuple",
          "internalType": "struct IStakeManager.DepositInfo",
          "components": [
            {
              "name": "deposit",
              "type": "uint256",
              "internalType": "uint256"
            },
            {
              "name": "staked",
              "type": "bool",
              "internalType": "bool"
            },
            {
              "name": "stake",
              "type": "uint112",
              "internalType": "uint112"
            },
            {
              "name": "unstakeDelaySec",
              "type": "uint32",
              "internalType": "uint32"
            },
            {
              "name": "withdrawTime",
              "type": "uint48",
              "internalType": "uint48"
            }
          ]
        }
      ],
      "stateMutability": "view"
    },
    {
      "type": "function",
      "name": "getDomainSeparatorV4",
      "inputs": [],
      "outputs": [
        {
          "name": "",
          "type": "bytes32",
          "internalType": "bytes32"
        }
      ],
      "stateMutability": "view"
    },
    {
      "type": "function",
      "name": "getNonce",
      "inputs": [
        {
          "name": "sender",
          "type": "address",
          "internalType": "address"
        },
        {
          "name": "key",
          "type": "uint192",
          "internalType": "uint192"
        }
      ],
      "outputs": [
        {
          "name": "nonce",
          "type": "uint256",
          "internalType": "uint256"
        }
      ],
      "stateMutability": "view"
    },
    {
      "type": "function",
      "name": "getPackedUserOpTypeHash",
      "inputs": [],
      "outputs": [
        {
          "name": "",
          "type": "bytes32",
          "internalType": "bytes32"
        }
      ],
      "stateMutability": "pure"
    },
    {
      "type": "function",
      "name": "getSenderAddress",
      "inputs": [
        {
          "name": "initCode",
          "type": "bytes",
          "internalType": "bytes"
        }
      ],
      "outputs": [],
      "stateMutability": "nonpayable"
    },
    {
      "type": "function",
      "name": "getUserOpHash",
      "inputs": [
        {
          "name": "userOp",
          "type": "tuple",
          "internalType": "struct PackedUserOperation",
          "components": [
            {
              "name": "sender",
              "type": "address",
              "internalType": "address"
            },
            {
              "name": "nonce",
              "type": "uint256",
              "internalType": "uint256"
            },
            {
              "name": "initCode",
              "type": "bytes",
              "internalType": "bytes"
            },
            {
              "name": "callData",
              "type": "bytes",
              "internalType": "bytes"
            },
            {
              "name": "accountGasLimits",
              "type": "bytes32",
              "internalType": "bytes32"
            },
            {
              "name": "preVerificationGas",
              "type": "uint256",
              "internalType": "uint256"
            },
            {
              "name": "gasFees",
              "type": "bytes32",
              "internalType": "bytes32"
            },
            {
              "name": "paymasterAndData",
              "type": "bytes",
              "internalType": "bytes"
            },
            {
              "name": "signature",
              "type": "bytes",
              "internalType": "bytes"
            }
          ]
        }
      ],
      "outputs": [
        {
          "name": "",
          "type": "bytes32",
          "internalType": "bytes32"
        }
      ],
      "stateMutability": "view"
    },
    {
      "type": "function",
      "name": "handleAggregatedOps",
      "inputs": [
        {
          "name": "opsPerAggregator",
          "type": "tuple[]",
          "internalType": "struct IEntryPoint.UserOpsPerAggregator[]",
          "components": [
            {
              "name": "userOps",
              "type": "tuple[]",
              "internalType": "struct PackedUserOperation[]",
              "components": [
                {
                  "name": "sender",
                  "type": "address",
                  "internalType": "address"
                },
                {
                  "name": "nonce",
                  "type": "uint256",
                  "internalType": "uint256"
                },
                {
                  "name": "initCode",
                  "type": "bytes",
                  "internalType": "bytes"
                },
                {
                  "name": "callData",
                  "type": "bytes",
                  "internalType": "bytes"
                },
                {
                  "name": "accountGasLimits",
                  "type": "bytes32",
                  "internalType": "bytes32"
                },
                {
                  "name": "preVerificationGas",
                  "type": "uint256",
                  "internalType": "uint256"
                },
                {
                  "name": "gasFees",
                  "type": "bytes32",
                  "internalType": "bytes32"
                },
                {
                  "name": "paymasterAndData",
                  "type": "bytes",
                  "internalType": "bytes"
                },
                {
                  "name": "signature",
                  "type": "bytes",
                  "internalType": "bytes"
                }
              ]
            },
            {
              "name": "aggregator",
              "type": "address",
              "internalType": "contract IAggregator"
            },
            {
              "name": "signature",
              "type": "bytes",
              "internalType": "bytes"
            }
          ]
        },
        {
          "name": "beneficiary",
          "type": "address",
          "internalType": "address payable"
        }
      ],
      "outputs": [],
      "stateMutability": "nonpayable"
    },
    {
      "type": "function",
      "name": "handleOps",
      "inputs": [
        {
          "name": "ops",
          "type": "tuple[]",
          "internalType": "struct PackedUserOperation[]",
          "components": [
            {
              "name": "sender",
              "type": "address",
              "internalType": "address"
            },
            {
              "name": "nonce",
              "type": "uint256",
              "internalType": "uint256"
            },
            {
              "name": "initCode",
              "type": "bytes",
              "internalType": "bytes"
            },
            {
              "name": "callData",
              "type": "bytes",
              "internalType": "bytes"
            },
            {
              "name": "accountGasLimits",
              "type": "bytes32",
              "internalType": "bytes32"
            },
            {
              "name": "preVerificationGas",
              "type": "uint256",
              "internalType": "uint256"
            },
            {
              "name": "gasFees",
              "type": "bytes32",
              "internalType": "bytes32"
            },
            {
              "name": "paymasterAndData",
              "type": "bytes",
              "internalType": "bytes"
            },
            {
              "name": "signature",
              "type": "bytes",
              "internalType": "bytes"
            }
          ]
        },
        {
          "name": "beneficiary",
          "type": "address",
          "internalType": "address payable"
        }
      ],
      "outputs": [],
      "stateMutability": "nonpayable"
    },
    {
      "type": "function",
      "name": "incrementNonce",
      "inputs": [
        {
          "name": "key",
          "type": "uint192",
          "internalType": "uint192"
        }
      ],
      "outputs": [],
      "stateMutability": "nonpayable"
    },
    {
      "type": "function",
      "name": "innerHandleOp",
      "inputs": [
        {
          "name": "callData",
          "type": "bytes",
          "internalType": "bytes"
        },
        {
          "name": "opInfo",
          "type": "tuple",
          "internalType": "struct EntryPoint.UserOpInfo",
          "components": [
            {
              "name": "mUserOp",
              "type": "tuple",
              "internalType": "struct EntryPoint.MemoryUserOp",
              "components": [
                {
                  "name": "sender",
                  "type": "address",
                  "internalType": "address"
                },
                {
                  "name": "nonce",
                  "type": "uint256",
                  "internalType": "uint256"
                },
                {
                  "name": "verificationGasLimit",
                  "type": "uint256",
                  "internalType": "uint256"
                },
                {
                  "name": "callGasLimit",
                  "type": "uint256",
                  "internalType": "uint256"
                },
                {
                  "name": "paymasterVerificationGasLimit",
                  "type": "uint256",
                  "internalType": "uint256"
                },
                {
                  "name": "paymasterPostOpGasLimit",
                  "type": "uint256",
                  "internalType": "uint256"
                },
                {
                  "name": "preVerificationGas",
                  "type": "uint256",
                  "internalType": "uint256"
                },
                {
                  "name": "paymaster",
                  "type": "address",
                  "internalType": "address"
                },
                {
                  "name": "maxFeePerGas",
                  "type": "uint256",
                  "internalType": "uint256"
                },
                {
                  "name": "maxPriorityFeePerGas",
                  "type": "uint256",
                  "internalType": "uint256"
                }
              ]
            },
            {
              "name": "userOpHash",
              "type": "bytes32",
              "internalType": "bytes32"
            },
            {
              "name": "prefund",
              "type": "uint256",
              "internalType": "uint256"
            },
            {
              "name": "contextOffset",
              "type": "uint256",
              "internalType": "uint256"
            },
            {
              "name": "preOpGas",
              "type": "uint256",
              "internalType": "uint256"
            }
          ]
        },
        {
          "name": "context",
          "type": "bytes",
          "internalType": "bytes"
        }
      ],
      "outputs": [
        {
          "name": "actualGasCost",
          "type": "uint256",
          "internalType": "uint256"
        }
      ],
      "stateMutability": "nonpayable"
    },
    {
      "type": "function",
      "name": "nonceSequenceNumber",
      "inputs": [
        {
          "name": "",
          "type": "address",
          "internalType": "address"
        },
        {
          "name": "",
          "type": "uint192",
          "internalType": "uint192"
        }
      ],
      "outputs": [
        {
          "name": "",
          "type": "uint256",
          "internalType": "uint256"
        }
      ],
      "stateMutability": "view"
    },
    {
      "type": "function",
      "name": "senderCreator",
      "inputs": [],
      "outputs": [
        {
          "name": "",
          "type": "address",
          "internalType": "contract ISenderCreator"
        }
      ],
      "stateMutability": "view"
    },
    {
      "type": "function",
      "name": "supportsInterface",
      "inputs": [
        {
          "name": "interfaceId",
          "type": "bytes4",
          "internalType": "bytes4"
        }
      ],
      "outputs": [
        {
          "name": "",
          "type": "bool",
          "internalType": "bool"
        }
      ],
      "stateMutability": "view"
    },
    {
      "type": "function",
      "name": "unlockStake",
      "inputs": [],
      "outputs": [],
      "stateMutability": "nonpayable"
    },
    {
      "type": "function",
      "name": "withdrawStake",
      "inputs": [
        {
          "name": "withdrawAddress",
          "type": "address",
          "internalType": "address payable"
        }
      ],
      "outputs": [],
      "stateMutability": "nonpayable"
    },
    {
      "type": "function",
      "name": "withdrawTo",
      "inputs": [
        {
          "name": "withdrawAddress",
          "type": "address",
          "internalType": "address payable"
        },
        {
          "name": "withdrawAmount",
          "type": "uint256",
          "internalType": "uint256"
        }
      ],
      "outputs": [],
      "stateMutability": "nonpayable"
    },
    {
      "type": "event",
      "name": "AccountDeployed",
      "inputs": [
        {
          "name": "userOpHash",
          "type": "bytes32",
          "indexed": true,
          "internalType": "bytes32"
        },
        {
          "name": "sender",
          "type": "address",
          "indexed": true,
          "internalType": "address"
        },
        {
          "name": "factory",
          "type": "address",
          "indexed": false,
          "internalType": "address"
        },
        {
          "name": "paymaster",
          "type": "address",
          "indexed": false,
          "internalType": "address"
        }
      ],
      "anonymous": false
    },
    {
      "type": "event",
      "name": "BeforeExecution",
      "inputs": [],
      "anonymous": false
    },
    {
      "type": "event",
      "name": "Deposited",
      "inputs": [
        {
          "name": "account",
          "type": "address",
          "indexed": true,
          "internalType": "address"
        },
        {
          "name": "totalDeposit",
          "type": "uint256",
          "indexed": false,
          "internalType": "uint256"
        }
      ],
      "anonymous": false
    },
    {
      "type": "event",
      "name": "EIP712DomainChanged",
      "inputs": [],
      "anonymous": false
    },
    {
      "type": "event",
      "name": "PostOpRevertReason",
      "inputs": [
        {
          "name": "userOpHash",
          "type": "bytes32",
          "indexed": true,
          "internalType": "bytes32"
        },
        {
          "name": "sender",
          "type": "address",
          "indexed": true,
          "internalType": "address"
        },
        {
          "name": "nonce",
          "type": "uint256",
          "indexed": false,
          "internalType": "uint256"
        },
        {
          "name": "revertReason",
          "type": "bytes",
          "indexed": false,
          "internalType": "bytes"
        }
      ],
      "anonymous": false
    },
    {
      "type": "event",
      "name": "SignatureAggregatorChanged",
      "inputs": [
        {
          "name": "aggregator",
          "type": "address",
          "indexed": true,
          "internalType": "address"
        }
      ],
      "anonymous": false
    },
    {
      "type": "event",
      "name": "StakeLocked",
      "inputs": [
        {
          "name": "account",
          "type": "address",
          "indexed": true,
          "internalType": "address"
        },
        {
          "name": "totalStaked",
          "type": "uint256",
          "indexed": false,
          "internalType": "uint256"
        },
        {
          "name": "unstakeDelaySec",
          "type": "uint256",
          "indexed": false,
          "internalType": "uint256"
        }
      ],
      "anonymous": false
    },
    {
      "type": "event",
      "name": "StakeUnlocked",
      "inputs": [
        {
          "name": "account",
          "type": "address",
          "indexed": true,
          "internalType": "address"
        },
        {
          "name": "withdrawTime",
          "type": "uint256",
          "indexed": false,
          "internalType": "uint256"
        }
      ],
      "anonymous": false
    },
    {
      "type": "event",
      "name": "StakeWithdrawn",
      "inputs": [
        {
          "name": "account",
          "type": "address",
          "indexed": true,
          "internalType": "address"
        },
        {
          "name": "withdrawAddress",
          "type": "address",
          "indexed": false,
          "internalType": "address"
        },
        {
          "name": "amount",
          "type": "uint256",
          "indexed": false,
          "internalType": "uint256"
        }
      ],
      "anonymous": false
    },
    {
      "type": "event",
      "name": "UserOperationEvent",
      "inputs": [
        {
          "name": "userOpHash",
          "type": "bytes32",
          "indexed": true,
          "internalType": "bytes32"
        },
        {
          "name": "sender",
          "type": "address",
          "indexed": true,
          "internalType": "address"
        },
        {
          "name": "paymaster",
          "type": "address",
          "indexed": true,
          "internalType": "address"
        },
        {
          "name": "nonce",
          "type": "uint256",
          "indexed": false,
          "internalType": "uint256"
        },
        {
          "name": "success",
          "type": "bool",
          "indexed": false,
          "internalType": "bool"
        },
        {
          "name": "actualGasCost",
          "type": "uint256",
          "indexed": false,
          "internalType": "uint256"
        },
        {
          "name": "actualGasUsed",
          "type": "uint256",
          "indexed": false,
          "internalType": "uint256"
        }
      ],
      "anonymous": false
    },
    {
      "type": "event",
      "name": "UserOperationPrefundTooLow",
      "inputs": [
        {
          "name": "userOpHash",
          "type": "bytes32",
          "indexed": true,
          "internalType": "bytes32"
        },
        {
          "name": "sender",
          "type": "address",
          "indexed": true,
          "internalType": "address"
        },
        {
          "name": "nonce",
          "type": "uint256",
          "indexed": false,
          "internalType": "uint256"
        }
      ],
      "anonymous": false
    },
    {
      "type": "event",
      "name": "UserOperationRevertReason",
      "inputs": [
        {
          "name": "userOpHash",
          "type": "bytes32",
          "indexed": true,
          "internalType": "bytes32"
        },
        {
          "name": "sender",
          "type": "address",
          "indexed": true,
          "internalType": "address"
        },
        {
          "name": "nonce",
          "type": "uint256",
          "indexed": false,
          "internalType": "uint256"
        },
        {
          "name": "revertReason",
          "type": "bytes",
          "indexed": false,
          "internalType": "bytes"
        }
      ],
      "anonymous": false
    },
    {
      "type": "event",
      "name": "Withdrawn",
      "inputs": [
        {
          "name": "account",
          "type": "address",
          "indexed": true,
          "internalType": "address"
        },
        {
          "name": "withdrawAddress",
          "type": "address",
          "indexed": false,
          "internalType": "address"
        },
        {
          "name": "amount",
          "type": "uint256",
          "indexed": false,
          "internalType": "uint256"
        }
      ],
      "anonymous": false
    },
    {
      "type": "error",
      "name": "DelegateAndRevert",
      "inputs": [
        {
          "name": "success",
          "type": "bool",
          "internalType": "bool"
        },
        {
          "name": "ret",
          "type": "bytes",
          "internalType": "bytes"
        }
      ]
    },
    {
      "type": "error",
      "name": "FailedOp",
      "inputs": [
        {
          "name": "opIndex",
          "type": "uint256",
          "internalType": "uint256"
        },
        {
          "name": "reason",
          "type": "string",
          "internalType": "string"
        }
      ]
    },
    {
      "type": "error",
      "name": "FailedOpWithRevert",
      "inputs": [
        {
          "name": "opIndex",
          "type": "uint256",
          "internalType": "uint256"
        },
        {
          "name": "reason",
          "type": "string",
          "internalType": "string"
        },
        {
          "name": "inner",
          "type": "bytes",
          "internalType": "bytes"
        }
      ]
    },
    {
      "type": "error",
      "name": "InvalidShortString",
      "inputs": []
    },
    {
      "type": "error",
      "name": "PostOpReverted",
      "inputs": [
        {
          "name": "returnData",
          "type": "bytes",
          "internalType": "bytes"
        }
      ]
    },
    {
      "type": "error",
      "name": "ReentrancyGuardReentrantCall",
      "inputs": []
    },
    {
      "type": "error",
      "name": "SenderAddressResult",
      "inputs": [
        {
          "name": "sender",
          "type": "address",
          "internalType": "address"
        }
      ]
    },
    {
      "type": "error",
      "name": "SignatureValidationFailed",
      "inputs": [
        {
          "name": "aggregator",
          "type": "address",
          "internalType": "address"
        }
      ]
    },
    {
      "type": "error",
      "name": "StringTooLong",
      "inputs": [
        {
          "name": "str",
          "type": "string",
          "internalType": "string"
        }
      ]
    }
  ],
  "bytecode": {
    "object": "0x6101806040523461019557604051610018604082610199565b600781526020810190664552433433333760c81b82526040519161003d604084610199565b600183526020830191603160f81b8352610056816101bc565b6101205261006384610357565b61014052519020918260e05251902080610100524660a0526040519060208201927f8b73c3c69bb8fe3d512ecc4cf759cc79239f7b179b0ffacaa9a75d522b39400f8452604083015260608201524660808201523060a082015260a081526100cc60c082610199565b5190206080523060c0526040516104f58082016001600160401b0381118382101761018157829161597a833903905ff0801561017657610160526040516154ea9081610490823960805181613511015260a051816135ce015260c051816134e2015260e051816135600152610100518161358601526101205181611884015261014051816118ad0152610160518181816116ce015281816120a801528181615061015261538c0152f35b6040513d5f823e3d90fd5b634e487b7160e01b5f52604160045260245ffd5b5f80fd5b601f909101601f19168101906001600160401b0382119082101761018157604052565b908151602081105f14610236575090601f8151116101f65760208151910151602082106101e7571790565b5f198260200360031b1b161790565b604460209160405192839163305a27a960e01b83528160048401528051918291826024860152018484015e5f828201840152601f01601f19168101030190fd5b6001600160401b03811161018157600254600181811c9116801561034d575b602082101461033957601f8111610306575b50602092601f82116001146102a557928192935f9261029a575b50508160011b915f199060031b1c19161760025560ff90565b015190505f80610281565b601f1982169360025f52805f20915f5b8681106102ee57508360019596106102d6575b505050811b0160025560ff90565b01515f1960f88460031b161c191690555f80806102c8565b919260206001819286850151815501940192016102b5565b60025f52601f60205f20910160051c810190601f830160051c015b81811061032e5750610267565b5f8155600101610321565b634e487b7160e01b5f52602260045260245ffd5b90607f1690610255565b908151602081105f14610382575090601f8151116101f65760208151910151602082106101e7571790565b6001600160401b03811161018157600354600181811c91168015610485575b602082101461033957601f8111610452575b50602092601f82116001146103f157928192935f926103e6575b50508160011b915f199060031b1c19161760035560ff90565b015190505f806103cd565b601f1982169360035f52805f20915f5b86811061043a5750836001959610610422575b505050811b0160035560ff90565b01515f1960f88460031b161c191690555f8080610414565b91926020600181928685015181550194019201610401565b60035f52601f60205f20910160051c810190601f830160051c015b81811061047a57506103b3565b5f815560010161046d565b90607f16906103a156fe6101606040526004361015610024575b3615610019575f80fd5b610022336131f4565b005b5f610140525f3560e01c806242dc53146125d957806301ffc9a7146124875780630396cb60146120cc57806309ccb8801461205b5780630bd28e3b14611fbf57806313c65a6e14611f84578063154e58dc14611f295780631b2e01b814611e93578063205c287814611cf257806322cdde4c14611c6e57806335567e1a14611bb45780635287ce1214611a9457806370a0823114611a29578063765e827f1461198b57806384b0196e1461184b578063850aaf62146117865780639b249f6914611622578063b760faf9146115e1578063bb9fe6bf146113f2578063c23a5cea1461114f5763dbed18e00361000f5734610ec95761012136612d56565b6101005260e052610130613824565b6101405190815b60e0518110610f2e575061014a8261303a565b61012052610140516080526101405160c0525b60e05160c0511061029b577fbb47ee3e183a558b1a2ff0874b079f3fc5478b7454eacf2bfc5af2ff5878f9726101405161014051a161014051608081905290815b60e05181106101e1576101b48361010051614a19565b610140517f9b779b17422d0df92223018b32b4d1fa46e071723d6817e2486d003becc55f005d6101405180f35b6102436101f18260e05185613267565b73ffffffffffffffffffffffffffffffffffffffff610212602083016132fb565b167f575ff3acadd5ab348fe1855e217e0f3678f8d767d7494c9f9fefbee2e17cca4d6101405161014051a2806132a7565b9061014051915b80831061025c5750505060010161019e565b909194600190610289610270888587613109565b61027f60805161012051613176565b519060805161437c565b0195816080510160805201919061024a565b6102aa60c05160e05183613267565b73ffffffffffffffffffffffffffffffffffffffff6102d860206102ce84806132a7565b60a05293016132fb565b61014051911691905b60a05181106103055750505060a05160805101608052600160c0510160c05261015d565b610316816080510161012051613176565b516103248260a05185613109565b61014051915a81519273ffffffffffffffffffffffffffffffffffffffff61034b826132fb565b168452602081810135908501526fffffffffffffffffffffffffffffffff6080808301358281166060880152811c604087015260a083013560c0808801919091528301359182166101008701521c6101208501526103ac60e082018261331c565b9081610e15575b5050604051936103c282612ee9565b6020850152846040526040810151946effffffffffffffffffffffffffffff8660c08401511760608401511760808401511760a084015117610100840151176101208401511711610daf5750604081015160608201510160808201510160a08201510160c0820151016101008201510294856040860152845173ffffffffffffffffffffffffffffffffffffffff60e08183511692610475898d61046960408b018b61331c565b92909160805101614fb5565b0151169661014051978015610d7e575b87516040810151905173ffffffffffffffffffffffffffffffffffffffff169061014051506040519a8b8960208d01519260208301937f19822f7c00000000000000000000000000000000000000000000000000000000855260248401926104ec93615460565b037fffffffffffffffffffffffffffffffffffffffffffffffffffffffffffffffe081018d5261051c908d612c2d565b61014051908c5190846101405190602095f161014051519a3d602003610d73575b60405215610c80575015610c02575b505073ffffffffffffffffffffffffffffffffffffffff825116602083015190610140515260016020526040610140512077ffffffffffffffffffffffffffffffffffffffffffffffff8260401c165f5260205267ffffffffffffffff60405f20918254926105ba84612e80565b90551603610b99575a840311610b305760e0015160609073ffffffffffffffffffffffffffffffffffffffff16610827575b73ffffffffffffffffffffffffffffffffffffffff949260a0859360809360606106219801520135905a900301910152614f15565b911685036107be576107555761064b73ffffffffffffffffffffffffffffffffffffffff91614f15565b91166106ec5761065d576001016102e1565b60a490604051907f220266b600000000000000000000000000000000000000000000000000000000825260805101600482015260406024820152602160448201527f41413332207061796d61737465722065787069726564206f72206e6f7420647560648201527f65000000000000000000000000000000000000000000000000000000000000006084820152fd5b608482604051907f220266b600000000000000000000000000000000000000000000000000000000825260805101600482015260406024820152601460448201527f41413334207369676e6174757265206572726f720000000000000000000000006064820152fd5b608482604051907f220266b600000000000000000000000000000000000000000000000000000000825260805101600482015260406024820152601760448201527f414132322065787069726564206f72206e6f74206475650000000000000000006064820152fd5b608483604051907f220266b600000000000000000000000000000000000000000000000000000000825260805101600482015260406024820152601460448201527f41413234207369676e6174757265206572726f720000000000000000000000006064820152fd5b9897969594505a9883519961085b73ffffffffffffffffffffffffffffffffffffffff60e08d015116604087015190615482565b15610ac75760807f52b7512c000000000000000000000000000000000000000000000000000000009798999a9b01516040516108dc816108b060208a015160408b015190602084019d8e528960248501615460565b037fffffffffffffffffffffffffffffffffffffffffffffffffffffffffffffffe08101835282612c2d565b8651608073ffffffffffffffffffffffffffffffffffffffff60e08301511691015161014051918b61014051928551926101405191f1983d908161014051843e51948251604084019b8c519015918215610abb575b508115610a8b575b50610a065750601f7fffffffffffffffffffffffffffffffffffffffffffffffffffffffffffffffe09101160191826040525a90031161097a5750946105ec565b80887f220266b60000000000000000000000000000000000000000000000000000000060a4935260805101600482015260406024820152602760448201527f41413336206f766572207061796d6173746572566572696669636174696f6e4760648201527f61734c696d6974000000000000000000000000000000000000000000000000006084820152fd5b8b610a87610a1261349e565b6040519384937f65c8fd4d0000000000000000000000000000000000000000000000000000000085526080510160048501526024840152600d60648401527f4141333320726576657274656400000000000000000000000000000000000000608484015260a0604484015260a4830190612de9565b0390fd5b9050601f7fffffffffffffffffffffffffffffffffffffffffffffffffffffffffffffffa084019101105f610939565b6040141591505f610931565b608487604051907f220266b600000000000000000000000000000000000000000000000000000000825260805101600482015260406024820152601e60448201527f41413331207061796d6173746572206465706f73697420746f6f206c6f7700006064820152fd5b608487604051907f220266b600000000000000000000000000000000000000000000000000000000825260805101600482015260406024820152601e60448201527f41413236206f76657220766572696669636174696f6e4761734c696d697400006064820152fd5b608488604051907f220266b600000000000000000000000000000000000000000000000000000000825260805101600482015260406024820152601a60448201527f4141323520696e76616c6964206163636f756e74206e6f6e63650000000000006064820152fd5b610c0b91615482565b15610c17578b8061054c565b608488604051907f220266b600000000000000000000000000000000000000000000000000000000825260805101600482015260406024820152601760448201527f41413231206469646e2774207061792070726566756e640000000000000000006064820152fd5b8b903b610cf057608490604051907f220266b600000000000000000000000000000000000000000000000000000000825260805101600482015260406024820152601960448201527f41413230206163636f756e74206e6f74206465706c6f796564000000000000006064820152fd5b610cf861349e565b90610a876040519283927f65c8fd4d00000000000000000000000000000000000000000000000000000000845260805101600484015260606024840152600d60648401527f4141323320726576657274656400000000000000000000000000000000000000608484015260a0604484015260a4830190612de9565b61014051915061053d565b6101408051849052516020819052604090205490985081811115610da85750610140515b97610485565b8103610da2565b80887f220266b6000000000000000000000000000000000000000000000000000000006084935260805101600482015260406024820152601860448201527f41413934206761732076616c756573206f766572666c6f7700000000000000006064820152fd5b60348210610ed05781601411610ec95780359160248110610ec957603411610ec9576024810135608090811c60a0880152601490910135811c90860152606081901c15610e6b5760601c60e085015289806103b3565b60646040517f08c379a000000000000000000000000000000000000000000000000000000000815260206004820152601660248201527f4141393820696e76616c6964207061796d6173746572000000000000000000006044820152fd5b6101405180fd5b60646040517f08c379a000000000000000000000000000000000000000000000000000000000815260206004820152601d60248201527f4141393320696e76616c6964207061796d6173746572416e64446174610000006044820152fd5b610f3b8160e05184613267565b92610f4684806132a7565b919073ffffffffffffffffffffffffffffffffffffffff610f69602088016132fb565b16956001871461111d5786610f86575b5050019250600101610137565b806040610f9492019061331c565b91873b15610ec957916040519283917f2dd8113300000000000000000000000000000000000000000000000000000000835286604484016040600486015252606483019160648860051b8501019281610140517ffffffffffffffffffffffffffffffffffffffffffffffffffffffffffffffee182360301915b8b82106110c357505050505081611054917ffffffffffffffffffffffffffffffffffffffffffffffffffffffffffffffffc8580950301602485015261014051956131b6565b0381610140518a5af190816110a8575b5061109b57847f86a9f750000000000000000000000000000000000000000000000000000000006101405152600452602461014051fd5b929350839260015f610f79565b610140516110b591612c2d565b61014051610ec9575f611064565b9193967fffffffffffffffffffffffffffffffffffffffffffffffffffffffffffffff9c90879294969703018552863584811215610ec957602061110c600193858394016133bd565b98019501920188969594939161100e565b867f86a9f750000000000000000000000000000000000000000000000000000000006101405152600452602461014051fd5b34610ec95760207ffffffffffffffffffffffffffffffffffffffffffffffffffffffffffffffffc360112610ec957611186612cde565b3361014051526101405160205260016040610140512001908154916dffffffffffffffffffffffffffff8360081c169283156113945760981c65ffffffffffff1680156113365742106112d85780547fffffffffffffff000000000000000000000000000000000000000000000000ff1690556040805173ffffffffffffffffffffffffffffffffffffffff831681526020810184905233917fb7c918e0e249f999e965cafeb6c664271b3f4317d296461500e71da39f0cbda391a2610140519182918291829173ffffffffffffffffffffffffffffffffffffffff165af161126d612eba565b501561127a576101405180f35b60646040517f08c379a000000000000000000000000000000000000000000000000000000000815260206004820152601860248201527f6661696c656420746f207769746864726177207374616b6500000000000000006044820152fd5b60646040517f08c379a000000000000000000000000000000000000000000000000000000000815260206004820152601b60248201527f5374616b65207769746864726177616c206973206e6f742064756500000000006044820152fd5b60646040517f08c379a000000000000000000000000000000000000000000000000000000000815260206004820152601d60248201527f6d7573742063616c6c20756e6c6f636b5374616b6528292066697273740000006044820152fd5b60646040517f08c379a000000000000000000000000000000000000000000000000000000000815260206004820152601460248201527f4e6f207374616b6520746f2077697468647261770000000000000000000000006044820152fd5b34610ec957610140517ffffffffffffffffffffffffffffffffffffffffffffffffffffffffffffffffc360112610ec9573361014051526101405160205260016040610140512001805463ffffffff8160781c169081156115835760ff16156115255765ffffffffffff4216019065ffffffffffff82116114f25780547fffffffffffffff000000000000ffffffffffffffffffffffffffffffffffff001678ffffffffffff00000000000000000000000000000000000000609884901b1617905560405165ffffffffffff909116815233907ffa9b3c14cc825c412c9ed81b3ba365a5b459439403f18829e572ed53a4180f0a90602090a26101405180f35b7f4e487b710000000000000000000000000000000000000000000000000000000061014051526011600452602461014051fd5b60646040517f08c379a000000000000000000000000000000000000000000000000000000000815260206004820152601160248201527f616c726561647920756e7374616b696e670000000000000000000000000000006044820152fd5b60646040517f08c379a000000000000000000000000000000000000000000000000000000000815260206004820152600a60248201527f6e6f74207374616b6564000000000000000000000000000000000000000000006044820152fd5b60207ffffffffffffffffffffffffffffffffffffffffffffffffffffffffffffffffc360112610ec95761161b611616612cde565b6131f4565b6101405180f35b34610ec95760207ffffffffffffffffffffffffffffffffffffffffffffffffffffffffffffffffc360112610ec95760043567ffffffffffffffff8111610ec95760206116766116b1923690600401612d01565b60405193849283927f570e1a3600000000000000000000000000000000000000000000000000000000845285600485015260248401916131b6565b03816101405173ffffffffffffffffffffffffffffffffffffffff7f0000000000000000000000000000000000000000000000000000000000000000165af180156117785773ffffffffffffffffffffffffffffffffffffffff916101405191611749575b507f6ca7b80600000000000000000000000000000000000000000000000000000000610140515216600452602461014051fd5b61176b915060203d602011611771575b6117638183612c2d565b81019061318a565b82611716565b503d611759565b6040513d61014051823e3d90fd5b34610ec95760407ffffffffffffffffffffffffffffffffffffffffffffffffffffffffffffffffc360112610ec9576117bd612cde565b60243567ffffffffffffffff8111610ec9576117dd903690600401612d01565b604051929181908437820190610140518252610140519280610140519303915af4611806612eba565b90610a876040519283927f9941055400000000000000000000000000000000000000000000000000000000845215156004840152604060248401526044830190612de9565b34610ec957610140517ffffffffffffffffffffffffffffffffffffffffffffffffffffffffffffffffc360112610ec9576119296118a87f0000000000000000000000000000000000000000000000000000000000000000614ccf565b6118d17f0000000000000000000000000000000000000000000000000000000000000000614e45565b60405190602090611937906118e68385612c2d565b6101405184525f3681376040519586957f0f00000000000000000000000000000000000000000000000000000000000000875260e08588015260e0870190612de9565b908582036040870152612de9565b4660608501523060808501526101405160a085015283810360c0850152818084519283815201930191610140515b82811061197457505050500390f35b835185528695509381019392810192600101611965565b34610ec95761199936612d56565b6119a4929192613824565b6119ad8361303a565b6119b8818585613898565b5061014051927fbb47ee3e183a558b1a2ff0874b079f3fc5478b7454eacf2bfc5af2ff5878f9728480a161014051915b8583106119f9576101b48585614a19565b909193600190611a1f611a0d878987613109565b611a178886613176565b51908861437c565b01940191906119e8565b34610ec95760207ffffffffffffffffffffffffffffffffffffffffffffffffffffffffffffffffc360112610ec95773ffffffffffffffffffffffffffffffffffffffff611a75612cde565b1661014051526101405160205260206040610140512054604051908152f35b34610ec95760207ffffffffffffffffffffffffffffffffffffffffffffffffffffffffffffffffc360112610ec95773ffffffffffffffffffffffffffffffffffffffff611ae0612cde565b604051611aec81612bab565b6101405181526101405160208201526101405160408201526101405160608201526080610140519101521661014051526101405160205260a06040610140512065ffffffffffff604051611b3f81612bab565b63ffffffff60018454948584520154916dffffffffffffffffffffffffffff6020820160ff8516151581526040830190828660081c1682528660806060860195878960781c168752019660981c1686526040519788525115156020880152511660408601525116606084015251166080820152f35b34610ec95760407ffffffffffffffffffffffffffffffffffffffffffffffffffffffffffffffffc360112610ec9576020611bed612cde565b73ffffffffffffffffffffffffffffffffffffffff611c0a612d2f565b91166101405152600182526040610140512077ffffffffffffffffffffffffffffffffffffffffffffffff82165f52825260405f20547fffffffffffffffffffffffffffffffffffffffffffffffff00000000000000006040519260401b16178152f35b34610ec95760207ffffffffffffffffffffffffffffffffffffffffffffffffffffffffffffffffc360112610ec95760043567ffffffffffffffff8111610ec9576101207ffffffffffffffffffffffffffffffffffffffffffffffffffffffffffffffffc8236030112610ec957611cea602091600401612ee9565b604051908152f35b34610ec95760407ffffffffffffffffffffffffffffffffffffffffffffffffffffffffffffffffc360112610ec957611d29612cde565b6024359033610140515261014051602052604061014051208054808411611e355783611d5491612ead565b90556040805173ffffffffffffffffffffffffffffffffffffffff831681526020810184905233917fd1c19fbcd4551a5edfb66d43d2e337c04837afda3482b42bdf569a8fccdae5fb91a2610140519182918291829173ffffffffffffffffffffffffffffffffffffffff165af1611dca612eba565b5015611dd7576101405180f35b60646040517f08c379a000000000000000000000000000000000000000000000000000000000815260206004820152601260248201527f6661696c656420746f20776974686472617700000000000000000000000000006044820152fd5b60646040517f08c379a000000000000000000000000000000000000000000000000000000000815260206004820152601960248201527f576974686472617720616d6f756e7420746f6f206c61726765000000000000006044820152fd5b34610ec95760407ffffffffffffffffffffffffffffffffffffffffffffffffffffffffffffffffc360112610ec957611eca612cde565b73ffffffffffffffffffffffffffffffffffffffff611ee7612d2f565b91166101405152600160205277ffffffffffffffffffffffffffffffffffffffffffffffff6040610140512091165f52602052602060405f2054604051908152f35b34610ec957610140517ffffffffffffffffffffffffffffffffffffffffffffffffffffffffffffffffc360112610ec95760206040517f29a0bca4af4be3421398da00295e58e6d7de38cb492214754cb6a47507dd6f8e8152f35b34610ec957610140517ffffffffffffffffffffffffffffffffffffffffffffffffffffffffffffffffc360112610ec9576020611cea6134cb565b34610ec95760207ffffffffffffffffffffffffffffffffffffffffffffffffffffffffffffffffc360112610ec95760043577ffffffffffffffffffffffffffffffffffffffffffffffff81168103610ec957336101405152600160205277ffffffffffffffffffffffffffffffffffffffffffffffff6040610140512091165f5260205260405f206120528154612e80565b90556101405180f35b34610ec957610140517ffffffffffffffffffffffffffffffffffffffffffffffffffffffffffffffffc360112610ec957602060405173ffffffffffffffffffffffffffffffffffffffff7f0000000000000000000000000000000000000000000000000000000000000000168152f35b60207ffffffffffffffffffffffffffffffffffffffffffffffffffffffffffffffffc360112610ec95760043563ffffffff8116809103610ec957336101405152610140516020526040610140512090801561242957600182015463ffffffff8160781c1682106123cb57612155906dffffffffffffffffffffffffffff349160081c16612e46565b91821561236d576dffffffffffffffffffffffffffff831161230f57546040516122d79161218282612bab565b815265ffffffffffff602082019160018352604081016dffffffffffffffffffffffffffff87168152606082019086825260016080840193610140518552336101405152610140516020526040610140512090518155019451151560ff7fffffffffffffffffffffffffffffffffffffffffffffffffffffffffffffff008754169116178555517fffffffffffffffffffffffffffffffffff0000000000000000000000000000ff6effffffffffffffffffffffffffff008087549360081b16169116178455517fffffffffffffffffffffffffff00000000ffffffffffffffffffffffffffffff72ffffffff0000000000000000000000000000008086549360781b1616911617835551167fffffffffffffff000000000000ffffffffffffffffffffffffffffffffffffff78ffffffffffff0000000000000000000000000000000000000083549260981b169116179055565b60405191825260208201527fa5ae833d0bb1dcd632d98a8b70973e8516812898e19bf27b70071ebc8dc52c0160403392a26101405180f35b60646040517f08c379a000000000000000000000000000000000000000000000000000000000815260206004820152600e60248201527f7374616b65206f766572666c6f770000000000000000000000000000000000006044820152fd5b60646040517f08c379a000000000000000000000000000000000000000000000000000000000815260206004820152601260248201527f6e6f207374616b652073706563696669656400000000000000000000000000006044820152fd5b60646040517f08c379a000000000000000000000000000000000000000000000000000000000815260206004820152601c60248201527f63616e6e6f7420646563726561736520756e7374616b652074696d65000000006044820152fd5b60646040517f08c379a000000000000000000000000000000000000000000000000000000000815260206004820152601a60248201527f6d757374207370656369667920756e7374616b652064656c61790000000000006044820152fd5b34610ec95760207ffffffffffffffffffffffffffffffffffffffffffffffffffffffffffffffffc360112610ec9576004357fffffffff000000000000000000000000000000000000000000000000000000008116809103610ec957807f6930d3ee00000000000000000000000000000000000000000000000000000000602092149081156125af575b8115612585575b811561255b575b8115612531575b506040519015158152f35b7f01ffc9a70000000000000000000000000000000000000000000000000000000091501482612526565b7f3e84f021000000000000000000000000000000000000000000000000000000008114915061251f565b7fcf28ef970000000000000000000000000000000000000000000000000000000081149150612518565b7f989ccc580000000000000000000000000000000000000000000000000000000081149150612511565b34612a32576102007ffffffffffffffffffffffffffffffffffffffffffffffffffffffffffffffffc360112612a325760043567ffffffffffffffff8111612a325736602382011215612a325761263a903690602481600401359101612ca8565b7fffffffffffffffffffffffffffffffffffffffffffffffffffffffffffffffdc36016101c08112612a32576101406040519161267683612bab565b12612a325760405161268781612bf4565b60243573ffffffffffffffffffffffffffffffffffffffff81168103612a3257815260443560208201526064356040820152608435606082015260a435608082015260c43560a082015260e43560c08201526101043573ffffffffffffffffffffffffffffffffffffffff81168103612a325760e082015261012435610100820152610144356101208201528152602081019161016435835260408201906101843582526101a435606084015260808301916101c43583526101e43567ffffffffffffffff8111612a3257612760903690600401612d01565b955a90303303612b4d578651606081015195603f5a0260061c61271060a084015189010111612b25575f9681519182612a6b575b5050505050906127ac915a9003855101963691612ca8565b925a93855161010081015161012082015148018082105f14612a635750975b6127f873ffffffffffffffffffffffffffffffffffffffff60e08401511694518203606084015190614b09565b01925f928161290e5750505173ffffffffffffffffffffffffffffffffffffffff16945b5a900301019485029051928184105f146128ba5750506003811015612887576002036128595760209281611cea929361285481614c2a565b614b28565b7fdeadaa51000000000000000000000000000000000000000000000000000000006101405152602061014051fd5b7f4e487b710000000000000000000000000000000000000000000000000000000061014051526021600452602461014051fd5b816128f0929594969396039073ffffffffffffffffffffffffffffffffffffffff165f525f60205260405f209081540180915590565b5060038410156128875782612909926020951590614ba9565b611cea565b909691878251612921575b50505061281c565b90919293505a926003881015612a365760028803612957575b505060a061294e925a900391015190614b09565b90888080612919565b60a083015191803b15612a32578b925f92836129b3938c8b88604051998a98899788957f7c627b210000000000000000000000000000000000000000000000000000000087526004870152608060248701526084860190612de9565b9202604484015260648301520393f19081612a1d575b50612a1357610a876129d961349e565b6040519182917fad7954bc000000000000000000000000000000000000000000000000000000008352602060048401526024830190612de9565b60a061294e61293a565b5f612a2791612c2d565b5f610140528a6129c9565b5f80fd5b7f4e487b71000000000000000000000000000000000000000000000000000000005f52602160045260245ffd5b9050976127cb565b915f9291838093602073ffffffffffffffffffffffffffffffffffffffff885116910192f115612a9e575b808080612794565b6127ac9392955060405191612ab161349e565b908151612aca575b505050604052600193909188612a96565b7f1c4fada7374c0a9ee8841fc38afe82932dc0f8e69012e927f061a8bae611a201905191602073ffffffffffffffffffffffffffffffffffffffff855116940151612b1a60405192839283612e2c565b0390a3888080612ab9565b7fdeaddead000000000000000000000000000000000000000000000000000000005f5260205ffd5b60646040517f08c379a000000000000000000000000000000000000000000000000000000000815260206004820152601760248201527f4141393220696e7465726e616c2063616c6c206f6e6c790000000000000000006044820152fd5b60a0810190811067ffffffffffffffff821117612bc757604052565b7f4e487b71000000000000000000000000000000000000000000000000000000005f52604160045260245ffd5b610140810190811067ffffffffffffffff821117612bc757604052565b6060810190811067ffffffffffffffff821117612bc757604052565b90601f7fffffffffffffffffffffffffffffffffffffffffffffffffffffffffffffffe0910116810190811067ffffffffffffffff821117612bc757604052565b67ffffffffffffffff8111612bc757601f017fffffffffffffffffffffffffffffffffffffffffffffffffffffffffffffffe01660200190565b929192612cb482612c6e565b91612cc26040519384612c2d565b829481845281830111612a32578281602093845f960137010152565b6004359073ffffffffffffffffffffffffffffffffffffffff82168203612a3257565b9181601f84011215612a325782359167ffffffffffffffff8311612a325760208381860195010111612a3257565b6024359077ffffffffffffffffffffffffffffffffffffffffffffffff82168203612a3257565b9060407ffffffffffffffffffffffffffffffffffffffffffffffffffffffffffffffffc830112612a325760043567ffffffffffffffff8111612a325760040182601f82011215612a325780359267ffffffffffffffff8411612a32576020808301928560051b010111612a3257919060243573ffffffffffffffffffffffffffffffffffffffff81168103612a325790565b907fffffffffffffffffffffffffffffffffffffffffffffffffffffffffffffffe0601f602080948051918291828752018686015e5f8582860101520116010190565b604090612e43939281528160208201520190612de9565b90565b91908201809211612e5357565b7f4e487b71000000000000000000000000000000000000000000000000000000005f52601160045260245ffd5b7fffffffffffffffffffffffffffffffffffffffffffffffffffffffffffffffff8114612e535760010190565b91908203918211612e5357565b3d15612ee4573d90612ecb82612c6e565b91612ed96040519384612c2d565b82523d5f602084013e565b606090565b604290612ef5816135f4565b612efd6134cb565b91612f07816132fb565b91801561300557905b60c0612f1f606083018361331c565b90816040519182372091612f3660e082018261331c565b908160405191823720926040519473ffffffffffffffffffffffffffffffffffffffff60208701977f29a0bca4af4be3421398da00295e58e6d7de38cb492214754cb6a47507dd6f8e895216604087015260208301356060870152608086015260a085015260808101358285015260a081013560e085015201356101008301526101208201526101208152612fcd61014082612c2d565b519020604051917f19010000000000000000000000000000000000000000000000000000000000008352600283015260228201522090565b50613013604082018261331c565b90816040519182372090612f10565b67ffffffffffffffff8111612bc75760051b60200190565b9061304482613022565b6130516040519182612c2d565b8281527fffffffffffffffffffffffffffffffffffffffffffffffffffffffffffffffe061307f8294613022565b01905f5b82811061308f57505050565b60209060405161309e81612bab565b6040516130aa81612bf4565b5f81525f848201525f60408201525f60608201525f60808201525f60a08201525f60c08201525f60e08201525f6101008201525f61012082015281525f838201525f60408201525f60608201525f608082015282828501015201613083565b91908110156131495760051b810135907ffffffffffffffffffffffffffffffffffffffffffffffffffffffffffffffee181360301821215612a32570190565b7f4e487b71000000000000000000000000000000000000000000000000000000005f52603260045260245ffd5b80518210156131495760209160051b010190565b90816020910312612a32575173ffffffffffffffffffffffffffffffffffffffff81168103612a325790565b601f82602094937fffffffffffffffffffffffffffffffffffffffffffffffffffffffffffffffe093818652868601375f8582860101520116010190565b7f2da466a7b24304f47e87fa2e1e5a81b9831ce54fec19055ce277ca2f39ba42c4602073ffffffffffffffffffffffffffffffffffffffff61325b348573ffffffffffffffffffffffffffffffffffffffff165f525f60205260405f209081540180915590565b936040519485521692a2565b91908110156131495760051b810135907fffffffffffffffffffffffffffffffffffffffffffffffffffffffffffffffa181360301821215612a32570190565b9035907fffffffffffffffffffffffffffffffffffffffffffffffffffffffffffffffe181360301821215612a32570180359067ffffffffffffffff8211612a3257602001918160051b36038313612a3257565b3573ffffffffffffffffffffffffffffffffffffffff81168103612a325790565b9035907fffffffffffffffffffffffffffffffffffffffffffffffffffffffffffffffe181360301821215612a32570180359067ffffffffffffffff8211612a3257602001918136038313612a3257565b90357fffffffffffffffffffffffffffffffffffffffffffffffffffffffffffffffe182360301811215612a3257016020813591019167ffffffffffffffff8211612a32578136038313612a3257565b80359173ffffffffffffffffffffffffffffffffffffffff83168303612a325773ffffffffffffffffffffffffffffffffffffffff612e43931681526020820135602082015261348f61348361344a61342f61341c604087018761336d565b61012060408801526101208701916131b6565b61343c606087018761336d565b9086830360608801526131b6565b6080850135608085015260a085013560a085015260c085013560c085015261347560e086018661336d565b9085830360e08701526131b6565b9261010081019061336d565b916101008185039101526131b6565b3d61080081116134c2575b604051906020818301016040528082525f602083013e90565b506108006134a9565b73ffffffffffffffffffffffffffffffffffffffff7f0000000000000000000000000000000000000000000000000000000000000000163014806135cb575b15613533577f000000000000000000000000000000000000000000000000000000000000000090565b60405160208101907f8b73c3c69bb8fe3d512ecc4cf759cc79239f7b179b0ffacaa9a75d522b39400f82527f000000000000000000000000000000000000000000000000000000000000000060408201527f000000000000000000000000000000000000000000000000000000000000000060608201524660808201523060a082015260a081526135c560c082612c2d565b51902090565b507f0000000000000000000000000000000000000000000000000000000000000000461461350a565b613601604082018261331c565b909161360d8284614c7a565b1561381d5761361b906132fb565b60175f80833c5f51907fef010000000000000000000000000000000000000000000000000000000000007fffffff000000000000000000000000000000000000000000000000000000000083160361375b575060181b91601482116136bb5750506040517fffffffffffffffffffffffffffffffffffffffff000000000000000000000000808060208401941616168252601481526135c5603482612c2d565b81601411612a325760206135c5916040519384917fffffffffffffffffffffffffffffffffffffffff000000000000000000000000808086860199161616875260147fffffffffffffffffffffffffffffffffffffffffffffffffffffffffffffffec83019101603484013781015f8382015203017fffffffffffffffffffffffffffffffffffffffffffffffffffffffffffffffe08101835282612c2d565b3b156137bf5760646040517f08c379a000000000000000000000000000000000000000000000000000000000815260206004820152601860248201527f6e6f7420616e204549502d373730322064656c656761746500000000000000006044820152fd5b60646040517f08c379a000000000000000000000000000000000000000000000000000000000815260206004820152601260248201527f73656e64657220686173206e6f20636f646500000000000000000000000000006044820152fd5b5050505f90565b7f9b779b17422d0df92223018b32b4d1fa46e071723d6817e2486d003becc55f005c6138705760017f9b779b17422d0df92223018b32b4d1fa46e071723d6817e2486d003becc55f005d565b7f3ee5aeb5000000000000000000000000000000000000000000000000000000005f5260045ffd5b92919092835f5b8181106138ac5750505050565b6138b68185613176565b516138c2828486613109565b5f915a81519273ffffffffffffffffffffffffffffffffffffffff6138e6826132fb565b168452602081013560208501526080810135936fffffffffffffffffffffffffffffffff8560801c951694604082019060608301968752815260c0820160a0840135815260c0840135906fffffffffffffffffffffffffffffffff8260801c9216916101208501906101008601938452815261396560e087018761331c565b9081614316575b505060405161397a87612ee9565b9960208a019a8b528160405285519586855117825117926effffffffffffffffffffffffffffff60808a01948551179560a08b0196875117895117905117116142b45750519051019051019051019051019051029560408601918783528973ffffffffffffffffffffffffffffffffffffffff60e08951613a0f8b8483511695613a0760408d018d61331c565b929091614fb5565b015116985f99801561428d575b89516040810151905173ffffffffffffffffffffffffffffffffffffffff1680916040519d8e808d8b519360208301947f19822f7c0000000000000000000000000000000000000000000000000000000086526024840192613a7d93615460565b037fffffffffffffffffffffffffffffffffffffffffffffffffffffffffffffffe081018252613aad9082612c2d565b51905f6020948194f15f519c3d602003614285575b6040521561419a575015614120575b505073ffffffffffffffffffffffffffffffffffffffff8451166020850151905f52600160205260405f2077ffffffffffffffffffffffffffffffffffffffffffffffff8260401c165f5260205267ffffffffffffffff60405f2091825492613b3984612e80565b905516036140bb575a8603116140565773ffffffffffffffffffffffffffffffffffffffff60e0606094015116613d96575b505073ffffffffffffffffffffffffffffffffffffffff949260a085936080936060613ba29801520135905a900301910152614f15565b9116613d3157613ccc57613bca73ffffffffffffffffffffffffffffffffffffffff91614f15565b9116613c6757613bdc5760010161389f565b60a490604051907f220266b6000000000000000000000000000000000000000000000000000000008252600482015260406024820152602160448201527f41413332207061796d61737465722065787069726564206f72206e6f7420647560648201527f65000000000000000000000000000000000000000000000000000000000000006084820152fd5b608482604051907f220266b6000000000000000000000000000000000000000000000000000000008252600482015260406024820152601460448201527f41413334207369676e6174757265206572726f720000000000000000000000006064820152fd5b608482604051907f220266b6000000000000000000000000000000000000000000000000000000008252600482015260406024820152601760448201527f414132322065787069726564206f72206e6f74206475650000000000000000006064820152fd5b608483604051907f220266b6000000000000000000000000000000000000000000000000000000008252600482015260406024820152601460448201527f41413234207369676e6174757265206572726f720000000000000000000000006064820152fd5b909c9b9a99989796505a9085519d60e08f015173ffffffffffffffffffffffffffffffffffffffff168151613dca91615482565b15613ff157613e1d7f52b7512c00000000000000000000000000000000000000000000000000000000999a9b9c9d9e9f60800151926108b060405193849251905190602084019d8e528960248501615460565b5f8088518b82608073ffffffffffffffffffffffffffffffffffffffff60e08501511693015192865193f1983d90815f843e51948251604084019b8c519015918215613fe5575b508115613fb5575b50613f385750601f7fffffffffffffffffffffffffffffffffffffffffffffffffffffffffffffffe09101160191826040525a900311613eb05750948260a0613b6b565b80887f220266b60000000000000000000000000000000000000000000000000000000060a49352600482015260406024820152602760448201527f41413336206f766572207061796d6173746572566572696669636174696f6e4760648201527f61734c696d6974000000000000000000000000000000000000000000000000006084820152fd5b8b610a87613f4461349e565b6040519384937f65c8fd4d00000000000000000000000000000000000000000000000000000000855260048501526024840152600d60648401527f4141333320726576657274656400000000000000000000000000000000000000608484015260a0604484015260a4830190612de9565b9050601f7fffffffffffffffffffffffffffffffffffffffffffffffffffffffffffffffa084019101105f613e6c565b6040141591505f613e64565b608489604051907f220266b6000000000000000000000000000000000000000000000000000000008252600482015260406024820152601e60448201527f41413331207061796d6173746572206465706f73697420746f6f206c6f7700006064820152fd5b608489604051907f220266b6000000000000000000000000000000000000000000000000000000008252600482015260406024820152601e60448201527f41413236206f76657220766572696669636174696f6e4761734c696d697400006064820152fd5b60848a604051907f220266b6000000000000000000000000000000000000000000000000000000008252600482015260406024820152601a60448201527f4141323520696e76616c6964206163636f756e74206e6f6e63650000000000006064820152fd5b61412991615482565b15614135575f80613ad1565b60848a604051907f220266b6000000000000000000000000000000000000000000000000000000008252600482015260406024820152601760448201527f41413231206469646e2774207061792070726566756e640000000000000000006064820152fd5b8d903b61420657608490604051907f220266b6000000000000000000000000000000000000000000000000000000008252600482015260406024820152601960448201527f41413230206163636f756e74206e6f74206465706c6f796564000000000000006064820152fd5b61420e61349e565b90610a876040519283927f65c8fd4d000000000000000000000000000000000000000000000000000000008452600484015260606024840152600d60648401527f4141323320726576657274656400000000000000000000000000000000000000608484015260a0604484015260a4830190612de9565b5f9150613ac2565b9950815f525f60205260405f20548181115f146142ad57505f5b99613a1c565b81036142a7565b808f7f220266b60000000000000000000000000000000000000000000000000000000060849352600482015260406024820152601860448201527f41413934206761732076616c756573206f766572666c6f7700000000000000006064820152fd5b60348210610ed05781601411612a3257803560601c9160248110612a3257601482013590603411612a32576fffffffffffffffffffffffffffffffff60248193013560801c1660a089015260801c1660808701528015610e6b5760e08601525f8061396c565b9092915a60608201516040519586614397606083018361331c565b5f60038211614a11575b7fffffffff00000000000000000000000000000000000000000000000000000000167f8dd7712f00000000000000000000000000000000000000000000000000000000036148a3575050505f6144ae6145a261443c61446e602095868a01516040519384927f8dd7712f000000000000000000000000000000000000000000000000000000008a8501526040602485015260648401906133bd565b906044830152037fffffffffffffffffffffffffffffffffffffffffffffffffffffffffffffffe08101835282612c2d565b6108b06040519384927e42dc5300000000000000000000000000000000000000000000000000000000888501526102006024850152610224840190612de9565b614571604484018b60806101a091610120815173ffffffffffffffffffffffffffffffffffffffff8151168652602081015160208701526040810151604087015260608101516060870152838101518487015260a081015160a087015260c081015160c087015273ffffffffffffffffffffffffffffffffffffffff60e08201511660e087015261010081015161010087015201516101208501526020810151610140850152604081015161016085015260608101516101808501520151910152565b7fffffffffffffffffffffffffffffffffffffffffffffffffffffffffffffffdc8382030161020484015287612de9565b828151910182305af15f5196604052156145bd575b50505050565b9091929394505f3d602014614896575b7fdeaddead00000000000000000000000000000000000000000000000000000000810361465957608485604051907f220266b6000000000000000000000000000000000000000000000000000000008252600482015260406024820152600f60448201527f41413935206f7574206f662067617300000000000000000000000000000000006064820152fd5b92935090917fdeadaa5100000000000000000000000000000000000000000000000000000000036146bc57506146a16146966146b1925a90612ead565b608084015190612e46565b6040830151836128548295614c2a565b905b5f8080806145b7565b9061472f9060405160208501518551907ff62676f440ff169a3a9afdbf812e89e7f95975ee8e5c31214ffdef631c5f4792602073ffffffffffffffffffffffffffffffffffffffff84511693015161471261349e565b9061472260405192839283612e2c565b0390a36040525a90612ead565b61473f6080840191825190612e46565b915f905a92855161010081015161012082015148018082105f1461488e5750955b61478d73ffffffffffffffffffffffffffffffffffffffff60e08401511693518203606084015190614b09565b01925f928061485f5750505173ffffffffffffffffffffffffffffffffffffffff16935b5a900301019283026040850151928184105f14614813575050806147e6575090816147e0929361285481614c2a565b906146b3565b807f4e487b7100000000000000000000000000000000000000000000000000000000602492526021600452fd5b614848908284939795039073ffffffffffffffffffffffffffffffffffffffff165f525f60205260405f209081540180915590565b506147e6575090825f61485a93614ba9565b6147e0565b9591905161486e575b506147b1565b935090506148875a9360a05f955a900391015190614b09565b905f614868565b905095614760565b5060205f803e5f516145cd565b614a0893506149dc916148e8917e42dc5300000000000000000000000000000000000000000000000000000000602086015261020060248601526102248501916131b6565b6149ab604484018860806101a091610120815173ffffffffffffffffffffffffffffffffffffffff8151168652602081015160208701526040810151604087015260608101516060870152838101518487015260a081015160a087015260c081015160c087015273ffffffffffffffffffffffffffffffffffffffff60e08201511660e087015261010081015161010087015201516101208501526020810151610140850152604081015161016085015260608101516101808501520151910152565b7fffffffffffffffffffffffffffffffffffffffffffffffffffffffffffffffdc8382030161020484015284612de9565b037fffffffffffffffffffffffffffffffffffffffffffffffffffffffffffffffe08101885287612c2d565b60205f876145a2565b5081356143a1565b73ffffffffffffffffffffffffffffffffffffffff168015614aab575f80809381935af1614a45612eba565b5015614a4d57565b60646040517f08c379a000000000000000000000000000000000000000000000000000000000815260206004820152601f60248201527f41413931206661696c65642073656e6420746f2062656e6566696369617279006044820152fd5b60646040517f08c379a000000000000000000000000000000000000000000000000000000000815260206004820152601860248201527f4141393020696e76616c69642062656e656669636961727900000000000000006044820152fd5b90619c408201811115614b2257606491600a9103020490565b50505f90565b9190917f49628fd1471006c1482da88028e9ce4dbb080b815c9b0344d39e5a8e6ec1419f6080602083015192519473ffffffffffffffffffffffffffffffffffffffff86511694602073ffffffffffffffffffffffffffffffffffffffff60e089015116970151916040519283525f602084015260408301526060820152a4565b9060807f49628fd1471006c1482da88028e9ce4dbb080b815c9b0344d39e5a8e6ec1419f91602084015193519573ffffffffffffffffffffffffffffffffffffffff87511695602073ffffffffffffffffffffffffffffffffffffffff60e08a015116980151926040519384521515602084015260408301526060820152a4565b60208101519051907f67b4fa9642f42120bf031f3051d1824b0fe25627945b27b8a6a65d5761d5482e60208073ffffffffffffffffffffffffffffffffffffffff855116940151604051908152a3565b90600211614cca57357fffffffffffffffffffffffffffffffffffffffff000000000000000000000000167f77020000000000000000000000000000000000000000000000000000000000001490565b505f90565b60ff8114614d2e5760ff811690601f8211614d065760405191614cf3604084612c2d565b6020808452838101919036833783525290565b7fb3512b0c000000000000000000000000000000000000000000000000000000005f5260045ffd5b506040515f6002548060011c9160018216918215614e3b575b602084108314614e0e578385528492908115614dd15750600114614d72575b612e4392500382612c2d565b5060025f90815290917f405787fa12a823e0f2b7631cc41b3ba8828b3321ca811111fa75cd3aa3bb5ace5b818310614db5575050906020612e4392820101614d66565b6020919350806001915483858801015201910190918392614d9d565b60209250612e439491507fffffffffffffffffffffffffffffffffffffffffffffffffffffffffffffff001682840152151560051b820101614d66565b7f4e487b71000000000000000000000000000000000000000000000000000000005f52602260045260245ffd5b92607f1692614d47565b60ff8114614e695760ff811690601f8211614d065760405191614cf3604084612c2d565b506040515f6003548060011c9160018216918215614f0b575b602084108314614e0e578385528492908115614dd15750600114614eac57612e4392500382612c2d565b5060035f90815290917fc2575a0e9e593c00f959f8c92f12db2869c3395a3b0502d05e2516446f71f85b5b818310614eef575050906020612e4392820101614d66565b6020919350806001915483858801015201910190918392614ed7565b92607f1692614e82565b8015614fae575f60408051614f2981612c11565b828152826020820152015273ffffffffffffffffffffffffffffffffffffffff81169065ffffffffffff8160a01c16908115614fa0575b60409060d01c9165ffffffffffff825191614f7a83612c11565b8583528460208401521691829101524211908115614f9757509091565b90504211159091565b65ffffffffffff9150614f60565b505f905f90565b929190915f9080614fc8575b5050505050565b83519473ffffffffffffffffffffffffffffffffffffffff86511695614fee8386614c7a565b61535f5750853b6152fa576014821061529557604085510151602060405180927f570e1a36000000000000000000000000000000000000000000000000000000008252826004830152818781615048602482018a8d6131b6565b039273ffffffffffffffffffffffffffffffffffffffff7f00000000000000000000000000000000000000000000000000000000000000001690f190811561528a57849161526b575b5073ffffffffffffffffffffffffffffffffffffffff811680156152065787036151a1573b1561513c5750601411615139577fd51a9c61267aa6196961883ecf5ff2da6619c37dac0fa92122513fb32c032d2d91604091503573ffffffffffffffffffffffffffffffffffffffff60e06020860151955101511673ffffffffffffffffffffffffffffffffffffffff83519260601c1682526020820152a35f80808080614fc1565b80fd5b608490604051907f220266b6000000000000000000000000000000000000000000000000000000008252600482015260406024820152602060448201527f4141313520696e6974436f6465206d757374206372656174652073656e6465726064820152fd5b608482604051907f220266b6000000000000000000000000000000000000000000000000000000008252600482015260406024820152602060448201527f4141313420696e6974436f6465206d7573742072657475726e2073656e6465726064820152fd5b608483604051907f220266b6000000000000000000000000000000000000000000000000000000008252600482015260406024820152601b60448201527f4141313320696e6974436f6465206661696c6564206f72204f4f4700000000006064820152fd5b615284915060203d602011611771576117638183612c2d565b5f615091565b6040513d86823e3d90fd5b608490604051907f220266b6000000000000000000000000000000000000000000000000000000008252600482015260406024820152601760448201527f4141393920696e6974436f646520746f6f20736d616c6c0000000000000000006064820152fd5b608490604051907f220266b6000000000000000000000000000000000000000000000000000000008252600482015260406024820152601f60448201527f414131302073656e64657220616c726561647920636f6e7374727563746564006064820152fd5b945050919050601482116153735750505050565b604073ffffffffffffffffffffffffffffffffffffffff7f0000000000000000000000000000000000000000000000000000000000000000169301519082601411612a3257833b15612a32575f809461542f96604051978896879586937fc09ad0d900000000000000000000000000000000000000000000000000000000855260048501526040602485015260147fffffffffffffffffffffffffffffffffffffffffffffffffffffffffffffffec60448601930191016131b6565b0393f1801561545557615445575b8080806145b7565b5f61544f91612c2d565b5f61543d565b6040513d5f823e3d90fd5b615478604092959493956060835260608301906133bd565b9460208201520152565b73ffffffffffffffffffffffffffffffffffffffff165f525f60205260405f2090815481811061381d5703905560019056fea26469706673582212202d3adf9a59d4719a2a7a176f8ed51ee1975888b99b99144488a8e9eb2876e71664736f6c634300081c003360a08060405234602f57336080526104c19081610034823960805181818160d80152818161023401526102e10152f35b5f80fdfe60806040526004361015610011575f80fd5b5f3560e01c8063570e1a3614610258578063b0d691fe146101ea5763c09ad0d91461003a575f80fd5b346101e65760407ffffffffffffffffffffffffffffffffffffffffffffffffffffffffffffffffc3601126101e65760043573ffffffffffffffffffffffffffffffffffffffff811681036101e65760243567ffffffffffffffff81116101e657366023820112156101e6575f916100bd83923690602481600401359101610384565b906100ff73ffffffffffffffffffffffffffffffffffffffff7f0000000000000000000000000000000000000000000000000000000000000000163314610426565b82602083519301915af11561011057005b3d61080081116101dd575b60c460405160208382010160405282815260208101925f843e7fffffffffffffffffffffffffffffffffffffffffffffffffffffffffffffffe0601f6040519485937f65c8fd4d0000000000000000000000000000000000000000000000000000000085525f6004860152606060248601528260648601527f4141313320454950373730322073656e64657220696e6974206661696c656400608486015260a060448601525180918160a48701528686015e5f85828601015201168101030190fd5b5061080061011b565b5f80fd5b346101e6575f7ffffffffffffffffffffffffffffffffffffffffffffffffffffffffffffffffc3601126101e657602060405173ffffffffffffffffffffffffffffffffffffffff7f0000000000000000000000000000000000000000000000000000000000000000168152f35b346101e65760207ffffffffffffffffffffffffffffffffffffffffffffffffffffffffffffffffc3601126101e65760043567ffffffffffffffff81116101e657366023820112156101e65780600401359067ffffffffffffffff82116101e65736602483830101116101e6575f9161030873ffffffffffffffffffffffffffffffffffffffff7f0000000000000000000000000000000000000000000000000000000000000000163314610426565b806014116101e6576020916103455f927fffffffffffffffffffffffffffffffffffffffffffffffffffffffffffffffec36910160388401610384565b90826024858451940192013560601c5af161037c575b60209073ffffffffffffffffffffffffffffffffffffffff60405191168152f35b505f5161035b565b92919267ffffffffffffffff82116103f957604051917fffffffffffffffffffffffffffffffffffffffffffffffffffffffffffffffe0603f81601f8401160116830183811067ffffffffffffffff8211176103f9576040528294818452818301116101e6578281602093845f960137010152565b7f4e487b71000000000000000000000000000000000000000000000000000000005f52604160045260245ffd5b1561042d57565b60646040517f08c379a000000000000000000000000000000000000000000000000000000000815260206004820152602060248201527f414139372073686f756c642063616c6c2066726f6d20456e747279506f696e746044820152fdfea2646970667358221220182197b7ef70e78a802cd6263517e23f463ab2927675ec8544bedeeb1992c5a464736f6c634300081c0033",
    "linkReferences": {}
  },
  "methodIdentifiers": {
    "addStake(uint32)": "0396cb60",
    "balanceOf(address)": "70a08231",
    "delegateAndRevert(address,bytes)": "850aaf62",
    "depositTo(address)": "b760faf9",
    "eip712Domain()": "84b0196e",
    "getDepositInfo(address)": "5287ce12",
    "getDomainSeparatorV4()": "13c65a6e",
    "getNonce(address,uint192)": "35567e1a",
    "getPackedUserOpTypeHash()": "154e58dc",
    "getSenderAddress(bytes)": "9b249f69",
    "getUserOpHash((address,uint256,bytes,bytes,bytes32,uint256,bytes32,bytes,bytes))": "22cdde4c",
    "handleAggregatedOps(((address,uint256,bytes,bytes,bytes32,uint256,bytes32,bytes,bytes)[],address,bytes)[],address)": "dbed18e0",
    "handleOps((address,uint256,bytes,bytes,bytes32,uint256,bytes32,bytes,bytes)[],address)": "765e827f",
    "incrementNonce(uint192)": "0bd28e3b",
    "innerHandleOp(bytes,((address,uint256,uint256,uint256,uint256,uint256,uint256,address,uint256,uint256),bytes32,uint256,uint256,uint256),bytes)": "0042dc53",
    "nonceSequenceNumber(address,uint192)": "1b2e01b8",
    "senderCreator()": "09ccb880",
    "supportsInterface(bytes4)": "01ffc9a7",
    "unlockStake()": "bb9fe6bf",
    "withdrawStake(address)": "c23a5cea",
    "withdrawTo(address,uint256)": "205c2878"
  },
  "id": 48
}