{"abi":[{"type":"function","name":"addOwner","inputs":[{"name":"owner","type":"address","internalType":"address"}],"outputs":[],"stateMutability":"nonpayable"},{"type":"function","name":"isInitialized","inputs":[{"name":"smartAccount","type":"address","internalType":"address"}],"outputs":[{"name":"","type":"bool","internalType":"bool"}],"stateMutability":"view"},{"type":"function","name":"isModuleType","inputs":[{"name":"moduleTypeId","type":"uint256","internalType":"uint256"}],"outputs":[{"name":"","type":"bool","internalType":"bool"}],"stateMutability":"pure"},{"type":"function","name":"isOwnerOf","inputs":[{"name":"account","type":"address","internalType":"address"},{"name":"owner","type":"address","internalType":"address"}],"outputs":[{"name":"","type":"bool","internalType":"bool"}],"stateMutability":"view"},{"type":"function","name":"isValidSignatureWithSender","inputs":[{"name":"","type":"address","internalType":"address"},{"name":"hash","type":"bytes32","internalType":"bytes32"},{"name":"data","type":"bytes","internalType":"bytes"}],"outputs":[{"name":"","type":"bytes4","internalType":"bytes4"}],"stateMutability":"view"},{"type":"function","name":"onInstall","inputs":[{"name":"data","type":"bytes","internalType":"bytes"}],"outputs":[],"stateMutability":"nonpayable"},{"type":"function","name":"onUninstall","inputs":[{"name":"data","type":"bytes","internalType":"bytes"}],"outputs":[],"stateMutability":"nonpayable"},{"type":"function","name":"removeOwner","inputs":[{"name":"owner","type":"address","internalType":"address"}],"outputs":[],"stateMutability":"nonpayable"},{"type":"function","name":"supportsInterface","inputs":[{"name":"interfaceId","type":"bytes4","internalType":"bytes4"}],"outputs":[{"name":"","type":"bool","internalType":"bool"}],"stateMutability":"pure"},{"type":"function","name":"validateUserOp","inputs":[{"name":"userOp","type":"tuple","internalType":"struct PackedUserOperation","components":[{"name":"sender","type":"address","internalType":"address"},{"name":"nonce","type":"uint256","internalType":"uint256"},{"name":"initCode","type":"bytes","internalType":"bytes"},{"name":"callData","type":"bytes","internalType":"bytes"},{"name":"accountGasLimits","type":"bytes32","internalType":"bytes32"},{"name":"preVerificationGas","type":"uint256","internalType":"uint256"},{"name":"gasFees","type":"bytes32","internalType":"bytes32"},{"name":"paymasterAndData","type":"bytes","internalType":"bytes"},{"name":"signature","type":"bytes","internalType":"bytes"}]},{"name":"userOpHash","type":"bytes32","internalType":"bytes32"}],"outputs":[{"name":"","type":"uint256","internalType":"uint256"}],"stateMutability":"view"},{"type":"event","name":"OwnerAdded","inputs":[{"name":"smartAccount","type":"address","indexed":true,"internalType":"address"},{"name":"owner","type":"address","indexed":true,"internalType":"address"}],"anonymous":false},{"type":"event","name":"OwnerRemoved","inputs":[{"name":"smartAccount","type":"address","indexed":true,"internalType":"address"},{"name":"owner","type":"address","indexed":true,"internalType":"address"}],"anonymous":false},{"type":"error","name":"AlreadyInitialized","inputs":[{"name":"smartAccount","type":"address","internalType":"address"}]},{"type":"error","name":"InvalidTargetAddress","inputs":[{"name":"target","type":"address","internalType":"address"}]},{"type":"error","name":"NotInitialized","inputs":[{"name":"smartAccount","type":"address","internalType":"address"}]},{"type":"error","name":"OwnerAlreadyExists","inputs":[{"name":"smartAccount","type":"address","internalType":"address"},{"name":"owner","type":"address","internalType":"address"}]},{"type":"error","name":"OwnerDoesNotExist","inputs":[{"name":"smartAccount","type":"address","internalType":"address"},{"name":"owner","type":"address","internalType":"address"}]},{"type":"error","name":"ZeroAddress","inputs":[{"name":"smartAccount","type":"address","internalType":"address"}]}],"bytecode":{"object":"0x60808060405234601557610d1e908161001a8239f35b5f80fdfe6080806040526004361015610012575f80fd5b5f3560e01c90816301ffc9a71461069457508063173825d9146106555780636d61fe70146105c65780637065cb48146105045780638a91b0e31461046b578063970032031461031d578063d60b347f146102d2578063ecd0596114610294578063f551e2ee146101205763f582bceb1461008a575f80fd5b3461011c5760407ffffffffffffffffffffffffffffffffffffffffffffffffffffffffffffffffc36011261011c576100c1610781565b60243573ffffffffffffffffffffffffffffffffffffffff811680910361011c575f525f60205273ffffffffffffffffffffffffffffffffffffffff60405f2091165f52602052602060ff60405f2054166040519015158152f35b5f80fd5b3461011c5760607ffffffffffffffffffffffffffffffffffffffffffffffffffffffffffffffffc36011261011c57610157610781565b5060443567ffffffffffffffff811161011c5761018561017e61018d9236906004016107a4565b3691610a13565b602435610c1f565b5060048110156102675715908161021b575b50156101f35760207f1626ba7e000000000000000000000000000000000000000000000000000000005b7fffffffff0000000000000000000000000000000000000000000000000000000060405191168152f35b60207fffffffff000000000000000000000000000000000000000000000000000000006101c9565b73ffffffffffffffffffffffffffffffffffffffff9150165f525f60205260405f2073ffffffffffffffffffffffffffffffffffffffff33165f5260205260ff60405f2054168161019f565b7f4e487b71000000000000000000000000000000000000000000000000000000005f52602160045260245ffd5b3461011c5760207ffffffffffffffffffffffffffffffffffffffffffffffffffffffffffffffffc36011261011c5760206040516001600435148152f35b3461011c5760207ffffffffffffffffffffffffffffffffffffffffffffffffffffffffffffffffc36011261011c57602061031361030e610781565b610a77565b6040519015158152f35b3461011c5760407ffffffffffffffffffffffffffffffffffffffffffffffffffffffffffffffffc36011261011c5760043567ffffffffffffffff811161011c57803603906101207ffffffffffffffffffffffffffffffffffffffffffffffffffffffffffffffffc83011261011c577fffffffffffffffffffffffffffffffffffffffffffffffffffffffffffffffdd610104820135920182121561011c570160048101359067ffffffffffffffff821161011c5760240190803603821361011c576103ef91610185913691610a13565b50600481101561026757159081159161041e575b501561041657602060015b604051908152f35b60205f61040e565b73ffffffffffffffffffffffffffffffffffffffff9150165f525f60205260405f2073ffffffffffffffffffffffffffffffffffffffff33165f5260205260ff60405f2054161581610403565b3461011c5760207ffffffffffffffffffffffffffffffffffffffffffffffffffffffffffffffffc36011261011c5760043567ffffffffffffffff811161011c576104bd6104c59136906004016107a4565b810190610931565b5f5b815181101561050257806104fc73ffffffffffffffffffffffffffffffffffffffff6104f5600194866109d2565b51166107d2565b016104c7565b005b3461011c5760207ffffffffffffffffffffffffffffffffffffffffffffffffffffffffffffffffc36011261011c5761053b610781565b61054433610a77565b1561059a5773ffffffffffffffffffffffffffffffffffffffff81161561056e5761050290610b2c565b7fc80b8834000000000000000000000000000000000000000000000000000000005f523360045260245ffd5b7ff91bd6f1000000000000000000000000000000000000000000000000000000005f523360045260245ffd5b3461011c5760207ffffffffffffffffffffffffffffffffffffffffffffffffffffffffffffffffc36011261011c5760043567ffffffffffffffff811161011c576104bd6106189136906004016107a4565b5f5b8151811015610502578061064f73ffffffffffffffffffffffffffffffffffffffff610648600194866109d2565b5116610b2c565b0161061a565b3461011c5760207ffffffffffffffffffffffffffffffffffffffffffffffffffffffffffffffffc36011261011c5761050261068f610781565b6107d2565b3461011c5760207ffffffffffffffffffffffffffffffffffffffffffffffffffffffffffffffffc36011261011c57600435907fffffffff00000000000000000000000000000000000000000000000000000000821680920361011c57817f6251d0ed0000000000000000000000000000000000000000000000000000000060209314908115610757575b811561072d575b5015158152f35b7f01ffc9a70000000000000000000000000000000000000000000000000000000091501483610726565b7fdd2b238d000000000000000000000000000000000000000000000000000000008114915061071f565b6004359073ffffffffffffffffffffffffffffffffffffffff8216820361011c57565b9181601f8401121561011c5782359167ffffffffffffffff831161011c576020838186019501011161011c57565b73ffffffffffffffffffffffffffffffffffffffff16805f525f60205260405f2073ffffffffffffffffffffffffffffffffffffffff33165f5260205260ff60405f2054161561089457805f525f60205260405f2073ffffffffffffffffffffffffffffffffffffffff33165f5260205260405f207fffffffffffffffffffffffffffffffffffffffffffffffffffffffffffffff008154169055337fe594d081b4382713733fe631966432c9cea5199afb2db5c3c1931f9f930036795f80a3565b7febe8496e000000000000000000000000000000000000000000000000000000005f523360045260245260445ffd5b90601f7fffffffffffffffffffffffffffffffffffffffffffffffffffffffffffffffe0910116810190811067ffffffffffffffff82111761090457604052565b7f4e487b71000000000000000000000000000000000000000000000000000000005f52604160045260245ffd5b60208183031261011c5780359067ffffffffffffffff821161011c570181601f8201121561011c5780359167ffffffffffffffff8311610904578260051b916040519361098160208501866108c3565b845260208085019382010191821161011c57602001915b8183106109a55750505090565b823573ffffffffffffffffffffffffffffffffffffffff8116810361011c57815260209283019201610998565b80518210156109e65760209160051b010190565b7f4e487b71000000000000000000000000000000000000000000000000000000005f52603260045260245ffd5b92919267ffffffffffffffff82116109045760405191610a5b60207fffffffffffffffffffffffffffffffffffffffffffffffffffffffffffffffe0601f84011601846108c3565b82948184528183011161011c578281602093845f960137010152565b602073ffffffffffffffffffffffffffffffffffffffff916084604051809481937f112d3a7d00000000000000000000000000000000000000000000000000000000835260016004840152306024840152606060448401525f6064840152165afa908115610b21575f91610ae9575090565b90506020813d602011610b19575b81610b04602093836108c3565b8101031261011c5751801515810361011c5790565b3d9150610af7565b6040513d5f823e3d90fd5b73ffffffffffffffffffffffffffffffffffffffff16805f525f60205260405f2073ffffffffffffffffffffffffffffffffffffffff33165f5260205260ff60405f205416610bf057805f525f60205260405f2073ffffffffffffffffffffffffffffffffffffffff33165f5260205260405f2060017fffffffffffffffffffffffffffffffffffffffffffffffffffffffffffffff00825416179055337fc82bdbbf677a2462f2a7e22e4ba9abd209496b69cd7b868b3b1d28f76e09a40a5f80a3565b7f18953024000000000000000000000000000000000000000000000000000000005f523360045260245260445ffd5b8151919060418303610c4f57610c489250602082015190606060408401519301515f1a90610c59565b9192909190565b50505f9160029190565b91907f7fffffffffffffffffffffffffffffff5d576e7357a4501ddfe92f46681b20a08411610cdd579160209360809260ff5f9560405194855216868401526040830152606082015282805260015afa15610b21575f5173ffffffffffffffffffffffffffffffffffffffff811615610cd357905f905f90565b505f906001905f90565b5050505f916003919056fea26469706673582212207ea1877b05e1c6812cafcf1e55eafe486f6c8c15c60f7097526255c96f632d7464736f6c634300081c0033","linkReferences":{}},"methodIdentifiers":{"addOwner(address)":"7065cb48","isInitialized(address)":"d60b347f","isModuleType(uint256)":"ecd05961","isOwnerOf(address,address)":"f582bceb","isValidSignatureWithSender(address,bytes32,bytes)":"f551e2ee","onInstall(bytes)":"6d61fe70","onUninstall(bytes)":"8a91b0e3","removeOwner(address)":"173825d9","supportsInterface(bytes4)":"01ffc9a7","validateUserOp((address,uint256,bytes,bytes,bytes32,uint256,bytes32,bytes,bytes),bytes32)":"97003203"},"id":107}