{"abi":[{"type":"constructor","inputs":[{"name":"webAuthValidator","type":"address","internalType":"address"},{"name":"eoaValidator","type":"address","internalType":"address"}],"stateMutability":"nonpayable"},{"type":"function","name":"EOA_VALIDATOR","inputs":[],"outputs":[{"name":"","type":"address","internalType":"address"}],"stateMutability":"view"},{"type":"function","name":"REQUEST_DELAY_TIME","inputs":[],"outputs":[{"name":"","type":"uint256","internalType":"uint256"}],"stateMutability":"view"},{"type":"function","name":"REQUEST_VALIDITY_TIME","inputs":[],"outputs":[{"name":"","type":"uint256","internalType":"uint256"}],"stateMutability":"view"},{"type":"function","name":"WEBAUTHN_VALIDATOR","inputs":[],"outputs":[{"name":"","type":"address","internalType":"address"}],"stateMutability":"view"},{"type":"function","name":"acceptGuardian","inputs":[{"name":"accountToGuard","type":"address","internalType":"address"}],"outputs":[{"name":"","type":"bool","internalType":"bool"}],"stateMutability":"nonpayable"},{"type":"function","name":"discardRecovery","inputs":[],"outputs":[],"stateMutability":"nonpayable"},{"type":"function","name":"finalizeRecovery","inputs":[{"name":"account","type":"address","internalType":"address"},{"name":"data","type":"bytes","internalType":"bytes"}],"outputs":[{"name":"returnData","type":"bytes","internalType":"bytes"}],"stateMutability":"nonpayable"},{"type":"function","name":"guardianStatusFor","inputs":[{"name":"account","type":"address","internalType":"address"},{"name":"guardian","type":"address","internalType":"address"}],"outputs":[{"name":"isPresent","type":"bool","internalType":"bool"},{"name":"isActive","type":"bool","internalType":"bool"}],"stateMutability":"view"},{"type":"function","name":"guardiansFor","inputs":[{"name":"account","type":"address","internalType":"address"}],"outputs":[{"name":"","type":"address[]","internalType":"address[]"}],"stateMutability":"view"},{"type":"function","name":"initializeRecovery","inputs":[{"name":"accountToRecover","type":"address","internalType":"address"},{"name":"recoveryType","type":"uint8","internalType":"enum GuardianExecutor.RecoveryType"},{"name":"data","type":"bytes","internalType":"bytes"}],"outputs":[],"stateMutability":"nonpayable"},{"type":"function","name":"isInitialized","inputs":[{"name":"account","type":"address","internalType":"address"}],"outputs":[{"name":"","type":"bool","internalType":"bool"}],"stateMutability":"view"},{"type":"function","name":"isModuleType","inputs":[{"name":"moduleType","type":"uint256","internalType":"uint256"}],"outputs":[{"name":"","type":"bool","internalType":"bool"}],"stateMutability":"pure"},{"type":"function","name":"onInstall","inputs":[{"name":"","type":"bytes","internalType":"bytes"}],"outputs":[],"stateMutability":"view"},{"type":"function","name":"onUninstall","inputs":[{"name":"","type":"bytes","internalType":"bytes"}],"outputs":[],"stateMutability":"nonpayable"},{"type":"function","name":"pendingRecovery","inputs":[{"name":"account","type":"address","internalType":"address"}],"outputs":[{"name":"recoveryType","type":"uint8","internalType":"enum GuardianExecutor.RecoveryType"},{"name":"hashedData","type":"bytes32","internalType":"bytes32"},{"name":"timestamp","type":"uint48","internalType":"uint48"}],"stateMutability":"view"},{"type":"function","name":"proposeGuardian","inputs":[{"name":"newGuardian","type":"address","internalType":"address"}],"outputs":[],"stateMutability":"nonpayable"},{"type":"function","name":"removeGuardian","inputs":[{"name":"guardianToRemove","type":"address","internalType":"address"}],"outputs":[],"stateMutability":"nonpayable"},{"type":"function","name":"supportsInterface","inputs":[{"name":"interfaceId","type":"bytes4","internalType":"bytes4"}],"outputs":[{"name":"","type":"bool","internalType":"bool"}],"stateMutability":"pure"},{"type":"event","name":"GuardianAdded","inputs":[{"name":"account","type":"address","indexed":true,"internalType":"address"},{"name":"guardian","type":"address","indexed":true,"internalType":"address"}],"anonymous":false},{"type":"event","name":"GuardianProposed","inputs":[{"name":"account","type":"address","indexed":true,"internalType":"address"},{"name":"guardian","type":"address","indexed":true,"internalType":"address"}],"anonymous":false},{"type":"event","name":"GuardianRemoved","inputs":[{"name":"account","type":"address","indexed":true,"internalType":"address"},{"name":"guardian","type":"address","indexed":true,"internalType":"address"}],"anonymous":false},{"type":"event","name":"RecoveryDiscarded","inputs":[{"name":"account","type":"address","indexed":true,"internalType":"address"}],"anonymous":false},{"type":"event","name":"RecoveryFinished","inputs":[{"name":"account","type":"address","indexed":true,"internalType":"address"}],"anonymous":false},{"type":"event","name":"RecoveryInitiated","inputs":[{"name":"account","type":"address","indexed":true,"internalType":"address"},{"name":"guardian","type":"address","indexed":true,"internalType":"address"},{"name":"request","type":"tuple","indexed":false,"internalType":"struct GuardianExecutor.RecoveryRequest","components":[{"name":"recoveryType","type":"uint8","internalType":"enum GuardianExecutor.RecoveryType"},{"name":"hashedData","type":"bytes32","internalType":"bytes32"},{"name":"timestamp","type":"uint48","internalType":"uint48"}]},{"name":"recoveryData","type":"bytes","indexed":false,"internalType":"bytes"}],"anonymous":false},{"type":"error","name":"AlreadyInitialized","inputs":[{"name":"smartAccount","type":"address","internalType":"address"}]},{"type":"error","name":"EmptyRecoveryData","inputs":[]},{"type":"error","name":"EnumerableMapNonexistentKey","inputs":[{"name":"key","type":"bytes32","internalType":"bytes32"}]},{"type":"error","name":"GuardianAlreadyPresent","inputs":[{"name":"account","type":"address","internalType":"address"},{"name":"guardian","type":"address","internalType":"address"}]},{"type":"error","name":"GuardianInvalidAddress","inputs":[{"name":"guardian","type":"address","internalType":"address"}]},{"type":"error","name":"GuardianNotActive","inputs":[{"name":"account","type":"address","internalType":"address"},{"name":"guardian","type":"address","internalType":"address"}]},{"type":"error","name":"GuardianNotFound","inputs":[{"name":"account","type":"address","internalType":"address"},{"name":"guardian","type":"address","internalType":"address"}]},{"type":"error","name":"NoRecoveryInProgress","inputs":[{"name":"account","type":"address","internalType":"address"}]},{"type":"error","name":"NotInitialized","inputs":[{"name":"smartAccount","type":"address","internalType":"address"}]},{"type":"error","name":"RecoveryDataMismatch","inputs":[{"name":"savedHash","type":"bytes32","internalType":"bytes32"},{"name":"providedHash","type":"bytes32","internalType":"bytes32"}]},{"type":"error","name":"RecoveryInProgress","inputs":[{"name":"account","type":"address","internalType":"address"}]},{"type":"error","name":"RecoveryTimestampInvalid","inputs":[{"name":"timestamp","type":"uint48","internalType":"uint48"}]},{"type":"error","name":"UnsupportedRecoveryType","inputs":[{"name":"recoveryType","type":"uint8","internalType":"enum GuardianExecutor.RecoveryType"}]},{"type":"error","name":"ValidatorNotInstalled","inputs":[{"name":"account","type":"address","internalType":"address"},{"name":"validator","type":"address","internalType":"address"}]}],"bytecode":{"object":"0x60c03461009657601f611c1138819003918201601f19168301916001600160401b0383118484101761009a57808492604094855283398101031261009657610052602061004b836100ae565b92016100ae565b9060805260a052604051611b4e90816100c382396080518181816106e401528181610fee0152611828015260a0518181816108d301528181610c6701526117440152f35b5f80fd5b634e487b7160e01b5f52604160045260245ffd5b51906001600160a01b03821682036100965756fe6080806040526004361015610012575f80fd5b5f3560e01c90816301ffc9a7146111f35750806329806a1c146110ff57806332c768a9146110c457806332cde66a14610b1f5780633d186f8614610ae957806343e3cfc514610aa85780636d61fe7014610a5957806371404156146108f75780637851fe0b146108895780638a91b0e3146107b3578063921d2edd14610708578063a703c4981461069a578063b233b0731461036e578063c304555f14610236578063d60b347f146101eb578063ea9692651461015f578063ecd05961146101215763fe8d85ab146100e2575f80fd5b3461011d575f7ffffffffffffffffffffffffffffffffffffffffffffffffffffffffffffffffc36011261011d576020604051620151808152f35b5f80fd5b3461011d5760207ffffffffffffffffffffffffffffffffffffffffffffffffffffffffffffffffc36011261011d5760206040516002600435148152f35b3461011d5760207ffffffffffffffffffffffffffffffffffffffffffffffffffffffffffffffffc36011261011d5773ffffffffffffffffffffffffffffffffffffffff6101ab6112bf565b165f526001602052606060405f2060ff8154169065ffffffffffff6002600183015492015416906101df6040518094611353565b60208301526040820152f35b3461011d5760207ffffffffffffffffffffffffffffffffffffffffffffffffffffffffffffffffc36011261011d57602061022c6102276112bf565b61159c565b6040519015158152f35b3461011d5760207ffffffffffffffffffffffffffffffffffffffffffffffffffffffffffffffffc36011261011d5761026d6112bf565b61027f3361027a3361159c565b611456565b73ffffffffffffffffffffffffffffffffffffffff81169081151580610364575b1561033857335f525f6020526102c78260405f206001915f520160205260405f2054151590565b610308575f6102e09133825281602052604082206116ac565b50337ff1284770232ce131bb37044a576145e0b24fd6b24f5710624b11255d5ac61a815f80a3005b507f5573b299000000000000000000000000000000000000000000000000000000005f523360045260245260445ffd5b507f9f5b3c26000000000000000000000000000000000000000000000000000000005f5260045260245ffd5b50338214156102a0565b3461011d5760607ffffffffffffffffffffffffffffffffffffffffffffffffffffffffffffffffc36011261011d576103a56112bf565b60243590600382101561011d5760443567ffffffffffffffff811161011d576103d29036906004016112e2565b9273ffffffffffffffffffffffffffffffffffffffff831692835f525f602052600161040f61040560405f2033906118dd565b91908433916114a0565b161561066a5781816104278161027a61042c9561159c565b61172d565b831561064257825f52600160205265ffffffffffff600260405f2001541680159081156105fe575b50156105d257610465368584611676565b60208151910120916104836040519261047d8461136c565b83611360565b60208201928352604082019065ffffffffffff42168252845f52600160205260405f2083519260038410156105a5577fbed910f1ec539b0aac75c812da94cc8cdcba0a9c75db9123f9f4874fbf141e9095600265ffffffffffff938a9660ff7fffffffffffffffffffffffffffffffffffffffffffffffffffffffffffffff0083541691161781558251600182015501838351167fffffffffffffffffffffffffffffffffffffffffffffffffffff00000000000082541617905561054c604051809751611353565b516020860152511660408401526080606084015281608084015260a08301375f60a0858301015260a0817fffffffffffffffffffffffffffffffffffffffffffffffffffffffffffffffe0601f339701168101030190a3005b7f4e487b71000000000000000000000000000000000000000000000000000000005f52602160045260245ffd5b827fa3122b64000000000000000000000000000000000000000000000000000000005f5260045260245ffd5b90506203f480810180911161061557421185610454565b7f4e487b71000000000000000000000000000000000000000000000000000000005f52601160045260245ffd5b7f7d157f7b000000000000000000000000000000000000000000000000000000005f5260045ffd5b837f670ed3c6000000000000000000000000000000000000000000000000000000005f526004523360245260445ffd5b3461011d575f7ffffffffffffffffffffffffffffffffffffffffffffffffffffffffffffffffc36011261011d57602060405173ffffffffffffffffffffffffffffffffffffffff7f0000000000000000000000000000000000000000000000000000000000000000168152f35b3461011d5760407ffffffffffffffffffffffffffffffffffffffffffffffffffffffffffffffffc36011261011d5761073f6112bf565b6024359073ffffffffffffffffffffffffffffffffffffffff821680920361011d5761078d60409273ffffffffffffffffffffffffffffffffffffffff5f93165f525f602052835f206118dd565b8192916107a6575b508251911515825215156020820152f35b6001915016151583610795565b3461011d5760207ffffffffffffffffffffffffffffffffffffffffffffffffffffffffffffffffc36011261011d5760043567ffffffffffffffff811161011d576108029036906004016112e2565b5050335f525f60205260405f2080545f60028301905b828110610863578380545f60018301905b82811061083d575f845561083b6113c9565b005b8061084a6001928661191d565b90549060031b1c5f52826020525f604081205501610829565b806108706001928661191d565b90549060031b1c5f52826020525f604081205501610818565b3461011d575f7ffffffffffffffffffffffffffffffffffffffffffffffffffffffffffffffffc36011261011d57602060405173ffffffffffffffffffffffffffffffffffffffff7f0000000000000000000000000000000000000000000000000000000000000000168152f35b3461011d5760207ffffffffffffffffffffffffffffffffffffffffffffffffffffffffffffffffc36011261011d5761092e6112bf565b61093b3361027a3361159c565b335f525f60205261098060405f209173ffffffffffffffffffffffffffffffffffffffff81169261097b8433926001915f520160205260405f2054151590565b6114a0565b335f525f60205260405f20815f526002810160205260405f2054908282159182610a39575b5050610a0d57600190335f525f6020526109d28360405f20815f52600281016020525f60408120556119bf565b5016610a00575b337fee943cdb81826d5909c559c6b1ae6908fcaf2dbc16c4b730346736b486283e8b5f80a3005b610a086113c9565b6109d9565b507f02b56686000000000000000000000000000000000000000000000000000000005f5260045260245ffd5b610a5192506001915f520160205260405f2054151590565b1582846109a5565b3461011d5760207ffffffffffffffffffffffffffffffffffffffffffffffffffffffffffffffffc36011261011d5760043567ffffffffffffffff811161011d5761083b9036906004016112e2565b3461011d5760207ffffffffffffffffffffffffffffffffffffffffffffffffffffffffffffffffc36011261011d57602061022c610ae46112bf565b6114f1565b3461011d575f7ffffffffffffffffffffffffffffffffffffffffffffffffffffffffffffffffc36011261011d5761083b6113c9565b3461011d5760407ffffffffffffffffffffffffffffffffffffffffffffffffffffffffffffffffc36011261011d57610b566112bf565b60243567ffffffffffffffff811161011d57610b769036906004016112e2565b909173ffffffffffffffffffffffffffffffffffffffff811692835f52600160205260405f209160405192610baa8461136c565b610bb860ff82541685611360565b65ffffffffffff6002600183015492602087019384520154169160408501928352845160038110156105a557610bed9161172d565b610bf8368685611676565b60208151910120815181810361109657505065ffffffffffff8251161515908161108b575b501561105f5765ffffffffffff815116620151808101809111610615574211908161103e575b5165ffffffffffff1690156110135750815160038110156105a557600103610fec577f0000000000000000000000000000000000000000000000000000000000000000915b519260038410156105a55760545f937fffffffffffffffffffffffffffffffffffffffff00000000000000000000000093610daa936001610e0598148714610fc057610d5a60247f7065cb4800000000000000000000000000000000000000000000000000000000935b836040519485927fffffffff0000000000000000000000000000000000000000000000000000000060208501981688528484013781018a8382015203017fffffffffffffffffffffffffffffffffffffffffffffffffffffffffffffffe08101835282611388565b60405195869360601b1660208401528660348401525180918484015e8101858382015203017fffffffffffffffffffffffffffffffffffffffffffffffffffffffffffffffe08101835282611388565b8382526001602052816002604082208281558260018201550155604051809381927fd691c964000000000000000000000000000000000000000000000000000000008352846004840152604060248401526044830190611310565b038183865af1908115610fb5575f91610e92575b50805115610e65576020015190610e616040519283927f67e7e71677fff5d10e5f4c8855a7c978cafa5e152631ba1a283fe64a83030e585f80a2602083526020830190611310565b0390f35b7f4e487b71000000000000000000000000000000000000000000000000000000005f52603260045260245ffd5b90503d805f833e610ea38183611388565b81019060208183031261011d5780519067ffffffffffffffff821161011d57019080601f8301121561011d5781519167ffffffffffffffff8311610f88578260051b60405193610ef66020830186611388565b84526020808501918301019183831161011d5760208101915b838310610f2157505050505082610e19565b825167ffffffffffffffff811161011d57820185603f8201121561011d57602081015191610f4e8361163c565b610f5b6040519182611388565b838152604083850101881061011d575f602085819660408397018386015e83010152815201920191610f0f565b7f4e487b71000000000000000000000000000000000000000000000000000000005f52604160045260245ffd5b6040513d5f823e3d90fd5b610d5a60247f8f5bc2af0000000000000000000000000000000000000000000000000000000093610cf2565b7f000000000000000000000000000000000000000000000000000000000000000091610c88565b7fb1e03be4000000000000000000000000000000000000000000000000000000005f5260045260245ffd5b905065ffffffffffff8151166203f480810180911161061557421090610c43565b847fdb56b6e9000000000000000000000000000000000000000000000000000000005f5260045260245ffd5b905051151586610c1d565b7f0e982741000000000000000000000000000000000000000000000000000000005f5260045260245260445ffd5b3461011d575f7ffffffffffffffffffffffffffffffffffffffffffffffffffffffffffffffffc36011261011d5760206040516203f4808152f35b3461011d5760207ffffffffffffffffffffffffffffffffffffffffffffffffffffffffffffffffc36011261011d5773ffffffffffffffffffffffffffffffffffffffff61114b6112bf565b165f525f60205260405f20604051806020835491828152019081935f5260205f20905f5b8181106111dd5750505081611185910382611388565b604051918291602083019060208452518091526040830191905f5b8181106111ae575050500390f35b825173ffffffffffffffffffffffffffffffffffffffff168452859450602093840193909201916001016111a0565b825484526020909301926001928301920161116f565b3461011d5760207ffffffffffffffffffffffffffffffffffffffffffffffffffffffffffffffffc36011261011d57600435907fffffffff00000000000000000000000000000000000000000000000000000000821680920361011d578160209215908115611295575b811561126b575b5015158152f35b7f01ffc9a70000000000000000000000000000000000000000000000000000000091501483611264565b7fdd2b238d000000000000000000000000000000000000000000000000000000008114915061125d565b6004359073ffffffffffffffffffffffffffffffffffffffff8216820361011d57565b9181601f8401121561011d5782359167ffffffffffffffff831161011d576020838186019501011161011d57565b907fffffffffffffffffffffffffffffffffffffffffffffffffffffffffffffffe0601f602080948051918291828752018686015e5f8582860101520116010190565b9060038210156105a55752565b60038210156105a55752565b6060810190811067ffffffffffffffff821117610f8857604052565b90601f7fffffffffffffffffffffffffffffffffffffffffffffffffffffffffffffffe0910116810190811067ffffffffffffffff821117610f8857604052565b335f52600160205265ffffffffffff60405f2060408260028251936113ed8561136c565b6113fb60ff82541686611360565b600181015460208601520154169101908152335f5260016020525f6002604082208281558260018201550155511661142f57565b337fb8150ac10bef5c47fd8b3e1d3f59adb966b629b4f635487f0741406ed1527ebc5f80a2565b1561145e5750565b73ffffffffffffffffffffffffffffffffffffffff907ff91bd6f1000000000000000000000000000000000000000000000000000000005f521660045260245ffd5b156114a9575050565b9073ffffffffffffffffffffffffffffffffffffffff80927f925f444b000000000000000000000000000000000000000000000000000000005f52166004521660245260445ffd5b6114fe8161027a8161159c565b600173ffffffffffffffffffffffffffffffffffffffff821691825f525f60205261153861153060405f2033906118dd565b9233916114a0565b1661157f57805f525f60205261155360013360405f206116ac565b5033907fbc3292102fa77e083913064b282926717cdfaede4d35f553d66366c0a3da755a5f80a3600190565b505f90565b9081602091031261011d5751801515810361011d5790565b6040517f112d3a7d00000000000000000000000000000000000000000000000000000000815260026004820152306024820152606060448201525f6064820152906020908290608490829073ffffffffffffffffffffffffffffffffffffffff165afa908115610fb5575f91611610575090565b611632915060203d602011611635575b61162a8183611388565b810190611584565b90565b503d611620565b67ffffffffffffffff8111610f8857601f017fffffffffffffffffffffffffffffffffffffffffffffffffffffffffffffffe01660200190565b9291926116828261163c565b916116906040519384611388565b82948184528183011161011d578281602093845f960137010152565b73ffffffffffffffffffffffffffffffffffffffff61163293921691825f526002820160205260405f2055611932565b156116e5575050565b9073ffffffffffffffffffffffffffffffffffffffff80927faf84bf27000000000000000000000000000000000000000000000000000000005f52166004521660245260445ffd5b906003811080156105a5576001820361181c5750507f0000000000000000000000000000000000000000000000000000000000000000604051917f112d3a7d000000000000000000000000000000000000000000000000000000008352602083806117c9856004830173ffffffffffffffffffffffffffffffffffffffff60809260018352166020820152606060408201525f60608201520190565b038173ffffffffffffffffffffffffffffffffffffffff85165afa8015610fb5576117fb935f916117fd575b506116dc565b565b611816915060203d6020116116355761162a8183611388565b5f6117f5565b600282036118ad5750507f0000000000000000000000000000000000000000000000000000000000000000604051917f112d3a7d000000000000000000000000000000000000000000000000000000008352602083806117c9856004830173ffffffffffffffffffffffffffffffffffffffff60809260018352166020820152606060408201525f60608201520190565b7f27df9adf000000000000000000000000000000000000000000000000000000005f52156105a55760045260245ffd5b9190805f526002830160205260405f20549283155f14611915576119109293506001915f520160205260405f2054151590565b905f90565b505060019190565b8054821015610e65575f5260205f2001905f90565b5f8281526001820160205260409020546119b95780549068010000000000000000821015610f8857826119a461196f84600180960185558461191d565b81939154907fffffffffffffffffffffffffffffffffffffffffffffffffffffffffffffffff9060031b92831b921b19161790565b90558054925f520160205260405f2055600190565b50505f90565b906001820191815f528260205260405f20548015155f14611b10577fffffffffffffffffffffffffffffffffffffffffffffffffffffffffffffffff8101818111610615578254907fffffffffffffffffffffffffffffffffffffffffffffffffffffffffffffffff820191821161061557818103611adb575b50505080548015611aae577fffffffffffffffffffffffffffffffffffffffffffffffffffffffffffffffff0190611a71828261191d565b7fffffffffffffffffffffffffffffffffffffffffffffffffffffffffffffffff82549160031b1b19169055555f526020525f6040812055600190565b7f4e487b71000000000000000000000000000000000000000000000000000000005f52603160045260245ffd5b611afb611aeb61196f938661191d565b90549060031b1c9283928661191d565b90555f528360205260405f20555f8080611a39565b505050505f9056fea264697066735822122068b007f1ac7b0bccbdef1c99e6055780e3faed48a4ae7f68f0e0f87920900db264736f6c634300081c0033","linkReferences":{}},"methodIdentifiers":{"EOA_VALIDATOR()":"7851fe0b","REQUEST_DELAY_TIME()":"fe8d85ab","REQUEST_VALIDITY_TIME()":"32c768a9","WEBAUTHN_VALIDATOR()":"a703c498","acceptGuardian(address)":"43e3cfc5","discardRecovery()":"3d186f86","finalizeRecovery(address,bytes)":"32cde66a","guardianStatusFor(address,address)":"921d2edd","guardiansFor(address)":"29806a1c","initializeRecovery(address,uint8,bytes)":"b233b073","isInitialized(address)":"d60b347f","isModuleType(uint256)":"ecd05961","onInstall(bytes)":"6d61fe70","onUninstall(bytes)":"8a91b0e3","pendingRecovery(address)":"ea969265","proposeGuardian(address)":"c304555f","removeGuardian(address)":"71404156","supportsInterface(bytes4)":"01ffc9a7"},"id":108}