{"abi":[{"type":"constructor","inputs":[],"stateMutability":"nonpayable"},{"type":"fallback","stateMutability":"payable"},{"type":"receive","stateMutability":"payable"},{"type":"function","name":"ENTRY_POINT_V08","inputs":[],"outputs":[{"name":"","type":"address","internalType":"address"}],"stateMutability":"view"},{"type":"function","name":"accountId","inputs":[],"outputs":[{"name":"","type":"string","internalType":"string"}],"stateMutability":"view"},{"type":"function","name":"domainSeparator","inputs":[],"outputs":[{"name":"","type":"bytes32","internalType":"bytes32"}],"stateMutability":"view"},{"type":"function","name":"eip712Domain","inputs":[],"outputs":[{"name":"fields","type":"bytes1","internalType":"bytes1"},{"name":"name","type":"string","internalType":"string"},{"name":"version","type":"string","internalType":"string"},{"name":"chainId","type":"uint256","internalType":"uint256"},{"name":"verifyingContract","type":"address","internalType":"address"},{"name":"salt","type":"bytes32","internalType":"bytes32"},{"name":"extensions","type":"uint256[]","internalType":"uint256[]"}],"stateMutability":"view"},{"type":"function","name":"entryPoint","inputs":[],"outputs":[{"name":"","type":"address","internalType":"address"}],"stateMutability":"pure"},{"type":"function","name":"execute","inputs":[{"name":"mode","type":"bytes32","internalType":"bytes32"},{"name":"executionCalldata","type":"bytes","internalType":"bytes"}],"outputs":[],"stateMutability":"payable"},{"type":"function","name":"executeFromExecutor","inputs":[{"name":"mode","type":"bytes32","internalType":"bytes32"},{"name":"executionCalldata","type":"bytes","internalType":"bytes"}],"outputs":[{"name":"returnData","type":"bytes[]","internalType":"bytes[]"}],"stateMutability":"payable"},{"type":"function","name":"getActiveFallbackHandler","inputs":[{"name":"functionSig","type":"bytes4","internalType":"bytes4"}],"outputs":[{"name":"","type":"tuple","internalType":"struct ModuleManager.FallbackHandler","components":[{"name":"handler","type":"address","internalType":"address"},{"name":"calltype","type":"bytes1","internalType":"bytes1"}]}],"stateMutability":"view"},{"type":"function","name":"getRegistry","inputs":[],"outputs":[{"name":"","type":"address","internalType":"contract IERC7484Registry"}],"stateMutability":"view"},{"type":"function","name":"initializeAccount","inputs":[{"name":"modules","type":"address[]","internalType":"address[]"},{"name":"data","type":"bytes[]","internalType":"bytes[]"}],"outputs":[],"stateMutability":"payable"},{"type":"function","name":"installModule","inputs":[{"name":"moduleTypeId","type":"uint256","internalType":"uint256"},{"name":"module","type":"address","internalType":"address"},{"name":"initData","type":"bytes","internalType":"bytes"}],"outputs":[],"stateMutability":"payable"},{"type":"function","name":"isModuleInstalled","inputs":[{"name":"moduleTypeId","type":"uint256","internalType":"uint256"},{"name":"module","type":"address","internalType":"address"},{"name":"additionalContext","type":"bytes","internalType":"bytes"}],"outputs":[{"name":"","type":"bool","internalType":"bool"}],"stateMutability":"view"},{"type":"function","name":"isValidSignature","inputs":[{"name":"hash","type":"bytes32","internalType":"bytes32"},{"name":"data","type":"bytes","internalType":"bytes"}],"outputs":[{"name":"","type":"bytes4","internalType":"bytes4"}],"stateMutability":"view"},{"type":"function","name":"setRegistry","inputs":[{"name":"registry","type":"address","internalType":"contract IERC7484Registry"},{"name":"attesters","type":"address[]","internalType":"address[]"},{"name":"threshold","type":"uint8","internalType":"uint8"}],"outputs":[],"stateMutability":"nonpayable"},{"type":"function","name":"supportsExecutionMode","inputs":[{"name":"mode","type":"bytes32","internalType":"bytes32"}],"outputs":[{"name":"isSupported","type":"bool","internalType":"bool"}],"stateMutability":"view"},{"type":"function","name":"supportsModule","inputs":[{"name":"moduleTypeId","type":"uint256","internalType":"uint256"}],"outputs":[{"name":"","type":"bool","internalType":"bool"}],"stateMutability":"view"},{"type":"function","name":"uninstallModule","inputs":[{"name":"moduleTypeId","type":"uint256","internalType":"uint256"},{"name":"module","type":"address","internalType":"address"},{"name":"deInitData","type":"bytes","internalType":"bytes"}],"outputs":[],"stateMutability":"payable"},{"type":"function","name":"unlinkModule","inputs":[{"name":"moduleTypeId","type":"uint256","internalType":"uint256"},{"name":"module","type":"address","internalType":"address"},{"name":"deInitData","type":"bytes","internalType":"bytes"}],"outputs":[],"stateMutability":"payable"},{"type":"function","name":"validateUserOp","inputs":[{"name":"userOp","type":"tuple","internalType":"struct PackedUserOperation","components":[{"name":"sender","type":"address","internalType":"address"},{"name":"nonce","type":"uint256","internalType":"uint256"},{"name":"initCode","type":"bytes","internalType":"bytes"},{"name":"callData","type":"bytes","internalType":"bytes"},{"name":"accountGasLimits","type":"bytes32","internalType":"bytes32"},{"name":"preVerificationGas","type":"uint256","internalType":"uint256"},{"name":"gasFees","type":"bytes32","internalType":"bytes32"},{"name":"paymasterAndData","type":"bytes","internalType":"bytes"},{"name":"signature","type":"bytes","internalType":"bytes"}]},{"name":"userOpHash","type":"bytes32","internalType":"bytes32"},{"name":"missingAccountFunds","type":"uint256","internalType":"uint256"}],"outputs":[{"name":"validSignature","type":"uint256","internalType":"uint256"}],"stateMutability":"payable"},{"type":"event","name":"ERC7484RegistryConfigured","inputs":[{"name":"registry","type":"address","indexed":true,"internalType":"address"}],"anonymous":false},{"type":"event","name":"Initialized","inputs":[{"name":"version","type":"uint64","indexed":false,"internalType":"uint64"}],"anonymous":false},{"type":"event","name":"ModuleInstalled","inputs":[{"name":"moduleTypeId","type":"uint256","indexed":true,"internalType":"uint256"},{"name":"module","type":"address","indexed":true,"internalType":"address"}],"anonymous":false},{"type":"event","name":"ModuleUninstalled","inputs":[{"name":"moduleTypeId","type":"uint256","indexed":true,"internalType":"uint256"},{"name":"module","type":"address","indexed":true,"internalType":"address"}],"anonymous":false},{"type":"event","name":"ModuleUnlinked","inputs":[{"name":"moduleTypeId","type":"uint256","indexed":true,"internalType":"uint256"},{"name":"module","type":"address","indexed":true,"internalType":"address"},{"name":"error","type":"bytes","indexed":false,"internalType":"bytes"}],"anonymous":false},{"type":"event","name":"TryExecuteUnsuccessful","inputs":[{"name":"batchExecutionindex","type":"uint256","indexed":false,"internalType":"uint256"},{"name":"result","type":"bytes","indexed":false,"internalType":"bytes"}],"anonymous":false},{"type":"error","name":"AccountAccessUnauthorized","inputs":[]},{"type":"error","name":"AlreadyInstalled","inputs":[{"name":"module","type":"address","internalType":"address"}]},{"type":"error","name":"CannotRemoveLastValidator","inputs":[]},{"type":"error","name":"ExecutionFailed","inputs":[]},{"type":"error","name":"InvalidCallType","inputs":[{"name":"calltype","type":"bytes1","internalType":"bytes1"}]},{"type":"error","name":"InvalidInitialization","inputs":[]},{"type":"error","name":"InvalidModule","inputs":[{"name":"module","type":"address","internalType":"address"}]},{"type":"error","name":"MismatchModuleTypeId","inputs":[{"name":"moduleTypeId","type":"uint256","internalType":"uint256"}]},{"type":"error","name":"NoFallbackHandler","inputs":[{"name":"selector","type":"bytes4","internalType":"bytes4"}]},{"type":"error","name":"NotEnoughData","inputs":[]},{"type":"error","name":"NotInitializing","inputs":[]},{"type":"error","name":"NotInstalled","inputs":[{"name":"module","type":"address","internalType":"address"}]},{"type":"error","name":"SelectorAlreadyUsed","inputs":[{"name":"selector","type":"bytes4","internalType":"bytes4"}]},{"type":"error","name":"UnsupportedCallType","inputs":[{"name":"callType","type":"bytes1","internalType":"bytes1"}]},{"type":"error","name":"UnsupportedExecType","inputs":[{"name":"execType","type":"bytes1","internalType":"bytes1"}]},{"type":"error","name":"UnsupportedModuleType","inputs":[{"name":"moduleTypeId","type":"uint256","internalType":"uint256"}]}],"bytecode":{"object":"0x610120604052346100e557306080524660a0525f60c0525f60e0525f610100525f5160206145ca5f395f51905f525460ff8160401c166100d6576002600160401b03196001600160401b03821601610080575b6040516144e090816100ea823960805181505060a05181505060c05181505060e05181505061010051815050f35b6001600160401b0319166001600160401b039081175f5160206145ca5f395f51905f52556040519081527fc7f505b2f371ae2175ee4913f4499e1f2633a7b5936321eed1cdaeb6115181d290602090a15f610052565b63f92ee8a960e01b5f5260045ffd5b5f80fdfe60806040526004361015610015575b36611dc257005b5f3560e01c8063112d3a7d1461013f5780631363361a1461013a5780631626ba7e1461013557806319822f7c1461013057806359cd3300146101125780635ab1bd531461012b57806384b0196e146101265780639517e29f146101215780639cfd7cff1461011c578063a71763a814610117578063b0d691fe14610112578063d03c79141461010d578063d691c96414610108578063e9ae5c5314610103578063eab77e17146100fe578063eac9b20d146100f9578063f0efd465146100f4578063f2dc691d146100ef5763f698da250361000e576111c8565b61118c565b610ed3565b610d8e565b610b0a565b610a98565b610995565b610959565b6104c2565b6108aa565b61082d565b610695565b6105a1565b61050e565b6103e6565b6103a3565b610225565b6101ff565b73ffffffffffffffffffffffffffffffffffffffff81160361016257565b5f80fd5b359061017182610144565b565b9181601f840112156101625782359167ffffffffffffffff8311610162576020838186019501011161016257565b60607ffffffffffffffffffffffffffffffffffffffffffffffffffffffffffffffffc82011261016257600435916024356101db81610144565b916044359067ffffffffffffffff8211610162576101fb91600401610173565b9091565b3461016257602061021b610212366101a1565b92919091611208565b6040519015158152f35b61022e366101a1565b9190734337084d9e255ff0702461cf8895ce9e3b5ff1083314801561034c575b1561032457600184036102a35773ffffffffffffffffffffffffffffffffffffffff9261027b918361251f565b16907f341347516a9de374859dfda710fa4828b2d48cb57d4fbe4c1149612b8e02276e5f80a3005b600284036102d05773ffffffffffffffffffffffffffffffffffffffff926102cb91836124bc565b61027b565b600384036102f85773ffffffffffffffffffffffffffffffffffffffff926102cb9183612192565b837f41c38b30000000000000000000000000000000000000000000000000000000005f5260045260245ffd5b7fac52ccbe000000000000000000000000000000000000000000000000000000005f5260045ffd5b5030331461024e565b9060407ffffffffffffffffffffffffffffffffffffffffffffffffffffffffffffffffc83011261016257600435916024359067ffffffffffffffff8211610162576101fb91600401610173565b346101625760206103bc6103b636610355565b91612601565b7fffffffff0000000000000000000000000000000000000000000000000000000060405191168152f35b60607ffffffffffffffffffffffffffffffffffffffffffffffffffffffffffffffffc3601126101625760043567ffffffffffffffff8111610162576101207ffffffffffffffffffffffffffffffffffffffffffffffffffffffffffffffffc8236030112610162576044356024357fffffffffffffffffffffffffbcc8f7b261daa00f8fdb9e30776a3161c4a00ef833016103245761048d82916104a4946004016117a1565b916104a8575b506040519081529081906020820190565b0390f35b5f9081803892335af1505f610493565b5f91031261016257565b34610162575f7ffffffffffffffffffffffffffffffffffffffffffffffffffffffffffffffffc360112610162576020604051734337084d9e255ff0702461cf8895ce9e3b5ff1088152f35b34610162575f7ffffffffffffffffffffffffffffffffffffffffffffffffffffffffffffffffc36011261016257602073ffffffffffffffffffffffffffffffffffffffff5f5416604051908152f35b907fffffffffffffffffffffffffffffffffffffffffffffffffffffffffffffffe0601f602080948051918291828752018686015e5f8582860101520116010190565b34610162575f7ffffffffffffffffffffffffffffffffffffffffffffffffffffffffffffffffc360112610162577fff0000000000000000000000000000000000000000000000000000000000000061064673ffffffffffffffffffffffffffffffffffffffff6106386106136118e9565b97946040999397919699949294519a8b9a168a5260e060208b015260e08a019061055e565b9088820360408a015261055e565b93606087015216608085015260a084015282810360c0840152602080835192838152019201905f5b81811061067c575050500390f35b825184528594506020938401939092019160010161066e565b61069e366101a1565b90734337084d9e255ff0702461cf8895ce9e3b5ff10893929333148015610824575b15610324576106cf8385612b84565b6040517fecd059610000000000000000000000000000000000000000000000000000000081526004810184905273ffffffffffffffffffffffffffffffffffffffff85169490602081602481895afa90811561081f575f916107f0575b50156107c3576001840361076b57906107459291612f81565b7fd21d0b289f126c4b473ea641963e766833c2f13866e4ff480abd787c100ef1235f80a3005b60028403610783579061077e9291612efb565b610745565b60038403610796579061077e9291612d17565b7f41c38b30000000000000000000000000000000000000000000000000000000005f52600484905260245ffd5b7fd393448a000000000000000000000000000000000000000000000000000000005f52600484905260245ffd5b610812915060203d602011610818575b61080a81836114a1565b810190611920565b5f61072c565b503d610800565b611796565b503033146106c0565b34610162575f7ffffffffffffffffffffffffffffffffffffffffffffffffffffffffffffffffc360112610162576104a460405161086c6040826114a1565b601481527f5a4b73796e6353534f2e6d76702e76302e302e31000000000000000000000000602082015260405191829160208352602083019061055e565b6108b3366101a1565b9190734337084d9e255ff0702461cf8895ce9e3b5ff10833148015610950575b1561032457600184036109005773ffffffffffffffffffffffffffffffffffffffff9261027b91836125a7565b600284036109285773ffffffffffffffffffffffffffffffffffffffff926102cb91836124f3565b600384036102f85773ffffffffffffffffffffffffffffffffffffffff926102cb918361239b565b503033146108d3565b346101625760207ffffffffffffffffffffffffffffffffffffffffffffffffffffffffffffffffc36011261016257602061021b600435611938565b61099e36610355565b906109d3335f527fe3a55571e8f241b58442871487cc151a8cb048bb4ad24e833467f724ec89a90360205260405f2054151590565b15610a6c576109ea926109e533612a67565b61309d565b6040518091602082016020835281518091526040830190602060408260051b8601019301915f905b828210610a2157505050500390f35b91936020610a5c827fffffffffffffffffffffffffffffffffffffffffffffffffffffffffffffffc06001959799849503018652885161055e565b9601920192018594939192610a12565b7fb927fe5e000000000000000000000000000000000000000000000000000000005f523360045260245ffd5b610aa136610355565b90734337084d9e255ff0702461cf8895ce9e3b5ff10833148015610ad0575b1561032457610ace9261309d565b005b50303314610ac0565b9181601f840112156101625782359167ffffffffffffffff8311610162576020808501948460051b01011161016257565b346101625760607ffffffffffffffffffffffffffffffffffffffffffffffffffffffffffffffffc36011261016257600435610b4581610144565b60243567ffffffffffffffff811161016257610b65903690600401610ad9565b90916044359060ff8216820361016257734337084d9e255ff0702461cf8895ce9e3b5ff10833148015610d5b575b156103245773ffffffffffffffffffffffffffffffffffffffff610bcb5f5473ffffffffffffffffffffffffffffffffffffffff1690565b610c0e8373ffffffffffffffffffffffffffffffffffffffff167fffffffffffffffffffffffff00000000000000000000000000000000000000005f5416175f55565b169081610cce575b73ffffffffffffffffffffffffffffffffffffffff9150169283610c5c575b837ff98c8404c5b1bfef2e6ba9233c6e88845aedfd36eea8b192725d8c199571cf325f80a2005b833b15610162575f91610c9c60405194859384937ff05c04e100000000000000000000000000000000000000000000000000000000855260048501611aa8565b038183865af1801561081f57610cb4575b8080610c35565b80610cc25f610cc8936114a1565b806104b8565b5f610cad565b610cd6611a37565b91803b1561016257610d1b5f939184926040519586809481937ff05c04e100000000000000000000000000000000000000000000000000000000835260048301611a52565b03925af191821561081f5773ffffffffffffffffffffffffffffffffffffffff92610d47575b50610c16565b80610cc25f610d55936114a1565b5f610d41565b50303314610b93565b7fffffffff0000000000000000000000000000000000000000000000000000000081160361016257565b346101625760207ffffffffffffffffffffffffffffffffffffffffffffffffffffffffffffffffc36011261016257610e2f600435610dcc81610d64565b5f6020604051610ddb81611480565b82815201527fffffffff00000000000000000000000000000000000000000000000000000000165f527fe3a55571e8f241b58442871487cc151a8cb048bb4ad24e833467f724ec89a90460205260405f2090565b7fff0000000000000000000000000000000000000000000000000000000000000060405191610e5d83611480565b5473ffffffffffffffffffffffffffffffffffffffff8116835260581b16602082015260405180917fff000000000000000000000000000000000000000000000000000000000000006020604084019273ffffffffffffffffffffffffffffffffffffffff815116855201511660208301520390f35b60407ffffffffffffffffffffffffffffffffffffffffffffffffffffffffffffffffc3601126101625760043567ffffffffffffffff811161016257610f1d903690600401610ad9565b9060243567ffffffffffffffff811161016257610f3e903690600401610ad9565b907ff0c57e16840df040f15088dc2f81fe391c3923bec73e23a9662efc9c229c6a00549367ffffffffffffffff610f91610f83610f7f8860ff9060401c1690565b1590565b9667ffffffffffffffff1690565b1680159081611184575b600114908161117a575b159081611171575b506111495761102e938561102560017fffffffffffffffffffffffffffffffffffffffffffffffff00000000000000007ff0c57e16840df040f15088dc2f81fe391c3923bec73e23a9662efc9c229c6a005416177ff0c57e16840df040f15088dc2f81fe391c3923bec73e23a9662efc9c229c6a0055565b6110ce57611bbe565b61103457005b61109f7fffffffffffffffffffffffffffffffffffffffffffffff00ffffffffffffffff7ff0c57e16840df040f15088dc2f81fe391c3923bec73e23a9662efc9c229c6a0054167ff0c57e16840df040f15088dc2f81fe391c3923bec73e23a9662efc9c229c6a0055565b604051600181527fc7f505b2f371ae2175ee4913f4499e1f2633a7b5936321eed1cdaeb6115181d290602090a1005b611144680100000000000000007fffffffffffffffffffffffffffffffffffffffffffffff00ffffffffffffffff7ff0c57e16840df040f15088dc2f81fe391c3923bec73e23a9662efc9c229c6a005416177ff0c57e16840df040f15088dc2f81fe391c3923bec73e23a9662efc9c229c6a0055565b611bbe565b7ff92ee8a9000000000000000000000000000000000000000000000000000000005f5260045ffd5b9050155f610fad565b303b159150610fa5565b869150610f9b565b346101625760207ffffffffffffffffffffffffffffffffffffffffffffffffffffffffffffffffc36011261016257602061021b600435611d9a565b34610162575f7ffffffffffffffffffffffffffffffffffffffffffffffffffffffffffffffffc360112610162576020611200613b50565b604051908152f35b909290600181036112615750505073ffffffffffffffffffffffffffffffffffffffff165f9081527fe3a55571e8f241b58442871487cc151a8cb048bb4ad24e833467f724ec89a9016020526040902054151590565b90565b600281036112755750505061125e90612042565b6003036113035781602091810103126101625773ffffffffffffffffffffffffffffffffffffffff6112fb8192356112ac81610d64565b7fffffffff00000000000000000000000000000000000000000000000000000000165f527fe3a55571e8f241b58442871487cc151a8cb048bb4ad24e833467f724ec89a90460205260405f2090565b541691161490565b5050505f90565b9035907fffffffffffffffffffffffffffffffffffffffffffffffffffffffffffffffe181360301821215610162570180359067ffffffffffffffff82116101625760200191813603831361016257565b906014116101625790601490565b909291928360141161016257831161016257601401917fffffffffffffffffffffffffffffffffffffffffffffffffffffffffffffffec0190565b906004116101625790600490565b909291928360051161016257831161016257600501917ffffffffffffffffffffffffffffffffffffffffffffffffffffffffffffffffb0190565b919091357fffffffffffffffffffffffffffffffffffffffff00000000000000000000000081169260148110611421575050565b7fffffffffffffffffffffffffffffffffffffffff000000000000000000000000929350829060140360031b1b161690565b7f4e487b71000000000000000000000000000000000000000000000000000000005f52604160045260245ffd5b6040810190811067ffffffffffffffff82111761149c57604052565b611453565b90601f7fffffffffffffffffffffffffffffffffffffffffffffffffffffffffffffffe0910116810190811067ffffffffffffffff82111761149c57604052565b60405190610171610120836114a1565b604051906101716040836114a1565b67ffffffffffffffff811161149c57601f017fffffffffffffffffffffffffffffffffffffffffffffffffffffffffffffffe01660200190565b92919261154782611501565b9161155560405193846114a1565b829481845281830111610162578281602093845f960137010152565b9080601f830112156101625781602061125e9335910161153b565b91909161012081840312610162576115a26114e2565b926115ac82610166565b845260208201356020850152604082013567ffffffffffffffff811161016257816115d8918401611571565b6040850152606082013567ffffffffffffffff811161016257816115fd918401611571565b60608501526080820135608085015260a082013560a085015260c082013560c085015260e082013567ffffffffffffffff81116101625781611640918401611571565b60e085015261010082013567ffffffffffffffff8111610162576116649201611571565b610100830152565b90816020910312610162575190565b929190611791602091604086526116ab60408701825173ffffffffffffffffffffffffffffffffffffffff169052565b82810151606087015261010061175e61170c6116d8604085015161012060808c01526101608b019061055e565b60608501517fffffffffffffffffffffffffffffffffffffffffffffffffffffffffffffffc08b83030160a08c015261055e565b608084015160c08a015260a084015160e08a015260c0840151838a015260e08401517fffffffffffffffffffffffffffffffffffffffffffffffffffffffffffffffc08a8303016101208b015261055e565b9101517fffffffffffffffffffffffffffffffffffffffffffffffffffffffffffffffc08783030161014088015261055e565b930152565b6040513d5f823e3d90fd5b906101008201906117cd6117c76117c16117bb858761130a565b9061135b565b906113ed565b60601c90565b61181d610f7f8273ffffffffffffffffffffffffffffffffffffffff165f5260017fe3a55571e8f241b58442871487cc151a8cb048bb4ad24e833467f724ec89a9000160205260405f2054151590565b1561182b5750505050600190565b6118aa9361185961185261184b602096611845368661158c565b9461130a565b8091611369565b369161153b565b6101008201525f73ffffffffffffffffffffffffffffffffffffffff6040518097819682957f970032030000000000000000000000000000000000000000000000000000000084526004840161167b565b0393165af190811561081f575f916118c0575090565b61125e915060203d6020116118e2575b6118da81836114a1565b81019061166c565b503d6118d0565b7f0f00000000000000000000000000000000000000000000000000000000000000906119136129f4565b9091469030905f90606090565b90816020910312610162575180151581036101625790565b7fff0000000000000000000000000000000000000000000000000000000000000081169060011a60f81b907f010000000000000000000000000000000000000000000000000000000000000081036119e8575b507fff0000000000000000000000000000000000000000000000000000000000000016806119b95750600190565b7f0100000000000000000000000000000000000000000000000000000000000000036119e457600190565b5f90565b801561198b577fff0000000000000000000000000000000000000000000000000000000000000003611a1a575f61198b565b505f90565b67ffffffffffffffff811161149c5760051b60200190565b60405190611a466020836114a1565b5f808352366020840137565b6020606060408301925f81526040838201528451809452019201905f5b818110611a7c5750505090565b825173ffffffffffffffffffffffffffffffffffffffff16845260209384019390920191600101611a6f565b60ff90911681526040602082018190528101839052606001915f5b818110611ad05750505090565b90919260208060019273ffffffffffffffffffffffffffffffffffffffff8735611af981610144565b168152019401929101611ac3565b90604051611b1481611480565b915473ffffffffffffffffffffffffffffffffffffffff8116835260581b7fff00000000000000000000000000000000000000000000000000000000000000166020830152565b7f4e487b71000000000000000000000000000000000000000000000000000000005f52603260045260245ffd5b9190811015611b985760051b0190565b611b5b565b3561125e81610144565b90821015611b98576101fb9160051b81019061130a565b9192905f5b818110611bd1575050505050565b611be4611bdf828487611b88565b611b9d565b6040517fecd059610000000000000000000000000000000000000000000000000000000081526001600482015273ffffffffffffffffffffffffffffffffffffffff8216929190602081602481875afa90811561081f575f91611d7c575b50611d62575b6040517fecd0596100000000000000000000000000000000000000000000000000000000815260026004820152602081602481875afa90811561081f575f91611d44575b50611d2a575b602060405180947fecd059610000000000000000000000000000000000000000000000000000000082528180611cd060048201906003602083019252565b03915afa801561081f576001935f91611d0c575b50611cf1575b5001611bc3565b611d0690611d0083878a611ba7565b91612d17565b5f611cea565b611d24915060203d81116108185761080a81836114a1565b5f611ce4565b611d3f611d3883878a611ba7565b9083612efb565b611c92565b611d5c915060203d81116108185761080a81836114a1565b5f611c8c565b611d77611d7083878a611ba7565b9083612f81565b611c48565b611d94915060203d81116108185761080a81836114a1565b5f611c42565b60018103611da85750600190565b60028103611db65750600190565b6003036119e457600190565b36151580612038575b612010575f357fffffffff000000000000000000000000000000000000000000000000000000008116611e47817fffffffff00000000000000000000000000000000000000000000000000000000165f527fe3a55571e8f241b58442871487cc151a8cb048bb4ad24e833467f724ec89a90460205260405f2090565b5491611e8c73ffffffffffffffffffffffffffffffffffffffff84169360581b7fff000000000000000000000000000000000000000000000000000000000000001690565b9173ffffffffffffffffffffffffffffffffffffffff841615611f2e575050611eb482612afb565b611ec43690604051918201604052565b90365f8337611ed96040519060148201604052565b3360601b90528060fe14611f1d5715611eee57005b5f9182918260143601925af15b611f0b3d90604051918201604052565b903d5f833e15611f19573d90f35b3d90fd5b505f91829160143601915afa611efb565b7f150b7a020000000000000000000000000000000000000000000000000000000081148015611fe7575b8015611fbe575b15611f71575060e01c6020526020603cf35b7f48c9ceda000000000000000000000000000000000000000000000000000000005f527fffffffff000000000000000000000000000000000000000000000000000000001660045260245ffd5b507fbc197c81000000000000000000000000000000000000000000000000000000008114611f5f565b507ff23a6e61000000000000000000000000000000000000000000000000000000008114611f58565b7f10c70e78000000000000000000000000000000000000000000000000000000005f5260045ffd5b5060043610611dcb565b73ffffffffffffffffffffffffffffffffffffffff61125e91165f527fe3a55571e8f241b58442871487cc151a8cb048bb4ad24e833467f724ec89a90360205260405f2054151590565b919091357fffffffff00000000000000000000000000000000000000000000000000000000811692600481106120c0575050565b7fffffffff00000000000000000000000000000000000000000000000000000000929350829060040360031b1b161690565b156120fa5750565b7fffffffff00000000000000000000000000000000000000000000000000000000907f48c9ceda000000000000000000000000000000000000000000000000000000005f521660045260245ffd5b156121505750565b73ffffffffffffffffffffffffffffffffffffffff907f1f9ccd1f000000000000000000000000000000000000000000000000000000005f521660045260245ffd5b9190918160041161016257612396600192610171946123697fffffffff000000000000000000000000000000000000000000000000000000008235166121e0816121db81613424565b6120f2565b6122738673ffffffffffffffffffffffffffffffffffffffff61225461224f857fffffffff00000000000000000000000000000000000000000000000000000000165f527fe3a55571e8f241b58442871487cc151a8cb048bb4ad24e833467f724ec89a90460205260405f2090565b611b07565b511673ffffffffffffffffffffffffffffffffffffffff821614612148565b6122dd604051916122856040846114a1565b5f83525f60208401527fffffffff00000000000000000000000000000000000000000000000000000000165f527fe3a55571e8f241b58442871487cc151a8cb048bb4ad24e833467f724ec89a90460205260405f2090565b9060209073ffffffffffffffffffffffffffffffffffffffff8151167fffffffffffffffffffffffff000000000000000000000000000000000000000084541617835501517fffffffffffffffffffffff00ffffffffffffffffffffffffffffffffffffffff74ff00000000000000000000000000000000000000008084549360581c16169116179055565b60047ffffffffffffffffffffffffffffffffffffffffffffffffffffffffffffffffc369301910161153b565b6134f3565b91909181600411610162576123965f92610171946123697fffffffff000000000000000000000000000000000000000000000000000000008235166123e3816121db81613424565b6124528673ffffffffffffffffffffffffffffffffffffffff61225461224f857fffffffff00000000000000000000000000000000000000000000000000000000165f527fe3a55571e8f241b58442871487cc151a8cb048bb4ad24e833467f724ec89a90460205260405f2090565b6122dd604051916124646040846114a1565b8883528860208401527fffffffff00000000000000000000000000000000000000000000000000000000165f527fe3a55571e8f241b58442871487cc151a8cb048bb4ad24e833467f724ec89a90460205260405f2090565b6124ee60019261017194611852846124e973ffffffffffffffffffffffffffffffffffffffff8216613ce7565b612148565b613645565b6124ee5f9261017194611852846124e973ffffffffffffffffffffffffffffffffffffffff8216613ce7565b612542816124e973ffffffffffffffffffffffffffffffffffffffff8216613e5e565b7fe3a55571e8f241b58442871487cc151a8cb048bb4ad24e833467f724ec89a900541561257f5761257a60019261017194369161153b565b613741565b7fb118263c000000000000000000000000000000000000000000000000000000005f5260045ffd5b6125ca816124e973ffffffffffffffffffffffffffffffffffffffff8216613e5e565b7fe3a55571e8f241b58442871487cc151a8cb048bb4ad24e833467f724ec89a900541561257f5761257a5f9261017194369161153b565b90919283156129bc575b828481017fffffffffffffffffffffffffffffffffffffffffffffffffffffffffffffffe0013561649261ffff30801c190402146129a7575b5083918094309430612949575b6040517ffffffffffffffffffffffffffffffffffffffffffffffffffffffffffffffffe838301013560f01c95600e820197878883038501987fffffffffffffffffffffffffffffffffffffffffffffffffffffffffffffffbe8a016119015f526040816020378115826042018610178d6042601e201817612907577f5479706564446174615369676e2800000000000000000000000000000000000086529a9b508b9a7ffffffffffffffffffffffffffffffffffffffffffffffffffffffffffffffffe8b019a828c8e378287016028600e8201526029600d8201515f1a0361288a575b50509b6f07fffffe000000000000010000000000909b9a9b515f1a1c9b5b8a515f1a602881146127795760289d651201000000016001921c179b019a9c50612754565b5085827fffffffffffffffffffffffffffffffffffffffffffffffffffffffffffffffbe959697999c899c9f946128509c9f94604091605c967f20636f6e74656e74732c737472696e67206e616d652c737472696e670000000085527f2076657273696f6e2c75696e7432353620636861696e49642c61646472657373601c8601527f20766572696679696e67436f6e74726163742c627974657333322073616c7429603c8601528785013789370103018720845260e08420604052600116604201601e20930301935b6040521561287c576142ef565b92831561286a575b505050155f03631626ba7e1760e01b90565b6128749350613fb9565b5f8080612858565b61288590614485565b6142ef565b839e919360015f5b01906029600d83850301515f1a1490821011156128b3578f90600190612892565b60289f6028916f07fffffe0000000000000100000000009493508060407fffffffffffffffffffffffffffffffffffffffffffffffffffffffffffffffbe82600e9503809a01010185378a0101539d612736565b505050509295506128509396508194975f907f983e65e5148e570cd828ead231ee759a8d7958721a768f93bc4483ba005c32de5f5260205260405f2091612843565b73ffffffffffffffffffffffffffffffffffffffff95506129686118e9565b5094509160409a939a519a6020815191012060408c01526020815191012060608b015260808a01521660a088015260c087015260e08601604052612651565b6040810135018035945060200192505f612644565b61773961ffff85190402820361260b57925050507f773900010000000000000000000000000000000000000000000000000000000090565b6040908151612a0383826114a1565b600f81527f7a6b73796e632d73736f2d313237310000000000000000000000000000000000602082015291612a3a815191826114a1565b600581527f312e302e30000000000000000000000000000000000000000000000000000000602082015290565b73ffffffffffffffffffffffffffffffffffffffff5f54169081612a89575050565b813b156101625773ffffffffffffffffffffffffffffffffffffffff60445f9260405194859384927f96fb7217000000000000000000000000000000000000000000000000000000008452166004830152600260248301525afa801561081f57612af1575b50565b5f610171916114a1565b73ffffffffffffffffffffffffffffffffffffffff5f54169081612b1d575050565b813b156101625773ffffffffffffffffffffffffffffffffffffffff60445f9260405194859384927f96fb7217000000000000000000000000000000000000000000000000000000008452166004830152600360248301525afa801561081f57612af15750565b73ffffffffffffffffffffffffffffffffffffffff5f54169081612ba757505050565b813b1561016257604473ffffffffffffffffffffffffffffffffffffffff915f9360405195869485937f96fb721700000000000000000000000000000000000000000000000000000000855216600484015260248301525afa801561081f57612af15750565b9060041015611b985760040190565b15612c245750565b7fff00000000000000000000000000000000000000000000000000000000000000907f76087dc1000000000000000000000000000000000000000000000000000000005f521660045260245ffd5b15612c7a5750565b7fffffffff00000000000000000000000000000000000000000000000000000000907f8a59defa000000000000000000000000000000000000000000000000000000005f521660045260245ffd5b601f82602094937fffffffffffffffffffffffffffffffffffffffffffffffffffffffffffffffe093818652868601375f8582860101520116010190565b91602061125e938181520191612cc8565b73ffffffffffffffffffffffffffffffffffffffff90612e236122dd9493612dbd612d4b612d4587846113a4565b9061208c565b9580612d80612d5a8286612c0d565b357fff000000000000000000000000000000000000000000000000000000000000001690565b93612db8857fff0000000000000000000000000000000000000000000000000000000000000081168015908115612e87575b50612c1c565b6113b2565b969095612dd581612dd0610f7f82613424565b612c72565b6112ac612de06114f2565b73ffffffffffffffffffffffffffffffffffffffff87168152937fff00000000000000000000000000000000000000000000000000000000000000166020850152565b1691823b1561016257612e68925f92836040518096819582947f6d61fe7000000000000000000000000000000000000000000000000000000000845260048401612d06565b03925af1801561081f57612e795750565b80610cc25f610171936114a1565b7ffe000000000000000000000000000000000000000000000000000000000000009150145f612db2565b15612eb95750565b73ffffffffffffffffffffffffffffffffffffffff907fb9fd5ced000000000000000000000000000000000000000000000000000000005f521660045260245ffd5b9190612f2673ffffffffffffffffffffffffffffffffffffffff841693612f2185614059565b612eb1565b823b1561016257612f70925f92836040518096819582947f6d61fe700000000000000000000000000000000000000000000000000000000084526020600485018181520191612cc8565b03925af1801561081f57612af15750565b9190612f2673ffffffffffffffffffffffffffffffffffffffff841693612f218561419b565b60408051909190612fb883826114a1565b60018152917fffffffffffffffffffffffffffffffffffffffffffffffffffffffffffffffe001825f5b828110612fee57505050565b806060602080938501015201612fe2565b9061300982611a1f565b61301660405191826114a1565b8281527fffffffffffffffffffffffffffffffffffffffffffffffffffffffffffffffe06130448294611a1f565b01905f5b82811061305457505050565b806060602080938501015201613048565b805115611b985760200190565b8051821015611b985760209160051b010190565b90604061125e925f8152816020820152019061055e565b7fff0000000000000000000000000000000000000000000000000000000000000081169392919060011a60f81b937f010000000000000000000000000000000000000000000000000000000000000081036131b15750906130fd9161396e565b907fff00000000000000000000000000000000000000000000000000000000000000841680613132575061125e929350613af0565b7f0100000000000000000000000000000000000000000000000000000000000000036131635761125e929350613a44565b7f1187dc06000000000000000000000000000000000000000000000000000000005f527fff00000000000000000000000000000000000000000000000000000000000000841660045260245ffd5b806132e35750906131c1916138db565b916131cd949394612fa7565b947fff00000000000000000000000000000000000000000000000000000000000000871680613216575061320394959650613941565b61320c83613065565b52612aee82613065565b7f010000000000000000000000000000000000000000000000000000000000000003613295576132489495965061391a565b61325184613065565b52610171577fe723f28f104e46b47fd3531f3608374ac226bcf3ddda334a23a266453e0efdb761329061328384613065565b5160405191829182613086565b0390a1565b7f1187dc06000000000000000000000000000000000000000000000000000000005f527fff00000000000000000000000000000000000000000000000000000000000000871660045260245ffd5b7fff0000000000000000000000000000000000000000000000000000000000000081036133d75750906133159161383d565b90613321939293612fa7565b937fff000000000000000000000000000000000000000000000000000000000000008616806133575750613203939495506138a8565b7f0100000000000000000000000000000000000000000000000000000000000000036133895761324893949550613883565b7f1187dc06000000000000000000000000000000000000000000000000000000005f527fff00000000000000000000000000000000000000000000000000000000000000861660045260245ffd5b7fb96fcfe4000000000000000000000000000000000000000000000000000000005f527fff000000000000000000000000000000000000000000000000000000000000001660045260245ffd5b61348c73ffffffffffffffffffffffffffffffffffffffff917fffffffff00000000000000000000000000000000000000000000000000000000165f527fe3a55571e8f241b58442871487cc151a8cb048bb4ad24e833467f724ec89a90460205260405f2090565b5416151590565b90602061125e92818152019061055e565b906134ae82611501565b6134bb60405191826114a1565b8281527fffffffffffffffffffffffffffffffffffffffffffffffffffffffffffffffe06134e98294611501565b0190602036910137565b5f8091939293604051906135618261353560208201937f8a91b0e300000000000000000000000000000000000000000000000000000000855260248301613493565b037fffffffffffffffffffffffffffffffffffffffffffffffffffffffffffffffe081018452836114a1565b84831461363c5782866135745a60011c90565b935b5193f16136385715613630573d6101008111156135f1575060037f9a5797060a8f83ea08bf1d879ce056c3dfd2f2dd941433522c23f668ccd9220e73ffffffffffffffffffffffffffffffffffffffff610100935b6135d4856134a4565b945f602087013e6135ec604051928392169582613493565b0390a3565b7f9a5797060a8f83ea08bf1d879ce056c3dfd2f2dd941433522c23f668ccd9220e73ffffffffffffffffffffffffffffffffffffffff600392936135cb565b3d805f803e5ffd5b5050565b82865a93613576565b5f8091939293604051906136878261353560208201937f8a91b0e300000000000000000000000000000000000000000000000000000000855260248301613493565b84831461373857828661369a5a60011c90565b935b5193f16136385715613630573d6101008111156136f9575060027f9a5797060a8f83ea08bf1d879ce056c3dfd2f2dd941433522c23f668ccd9220e73ffffffffffffffffffffffffffffffffffffffff610100936135d4856134a4565b7f9a5797060a8f83ea08bf1d879ce056c3dfd2f2dd941433522c23f668ccd9220e73ffffffffffffffffffffffffffffffffffffffff600292936135cb565b82865a9361369c565b5f8091939293604051906137838261353560208201937f8a91b0e300000000000000000000000000000000000000000000000000000000855260248301613493565b8483146138345782866137965a60011c90565b935b5193f16136385715613630573d6101008111156137f5575060017f9a5797060a8f83ea08bf1d879ce056c3dfd2f2dd941433522c23f668ccd9220e73ffffffffffffffffffffffffffffffffffffffff610100936135d4856134a4565b7f9a5797060a8f83ea08bf1d879ce056c3dfd2f2dd941433522c23f668ccd9220e73ffffffffffffffffffffffffffffffffffffffff600192936135cb565b82865a93613798565b916013821115613876577fffffffffffffffffffffffffffffffffffffffffffffffffffffffffffffffec6014843560601c9401920190565b63ba597e7e5f526004601cfd5b5f9192806040519485378338925af4913d82523d5f602084013e60203d830101604052565b5f919392806040519586378438925af4156138d2573d82523d5f602084013e60203d830101604052565b503d5f823e3d90fd5b90603381111561387657813560601c927fffffffffffffffffffffffffffffffffffffffffffffffffffffffffffffffcc603460148501359401920190565b905f928491604051958692833738935af1913d82523d5f602084013e60203d830101604052565b90925f92819594604051968792833738935af1156138d2573d82523d5f602084013e60203d830101604052565b917fffffffffffffffffffffffffffffffffffffffffffffffffffffffffffffffe08335928385019401016020840193803593828560051b8301119060401c1761387657836139bb575050565b7fffffffffffffffffffffffffffffffffffffffffffffffffffffffffffffffff845b0160208160051b8301013580830160608101908135809101918680602080860135809601011191111792171760401c17613876578015613a3f577fffffffffffffffffffffffffffffffffffffffffffffffffffffffffffffffff906139de565b505050565b9190613a4f81612fff565b925f5b828110613a5e57505050565b80613a8860019260051b84013584016040810135810190602082359201906020810135903561391a565b613a928389613072565b5215613a9f575b01613a52565b7fe723f28f104e46b47fd3531f3608374ac226bcf3ddda334a23a266453e0efdb7613ae8613acd8389613072565b5160405191829185835260406020840152604083019061055e565b0390a1613a99565b9190613afb81612fff565b925f5b828110613b0a57505050565b80613b3460019260051b840135840160408101358101906020823592019060208101359035613941565b613b3e8288613072565b52613b498187613072565b5001613afe565b60a0613b5a6129f4565b90602081519101209060208151910120604051917f8b73c3c69bb8fe3d512ecc4cf759cc79239f7b179b0ffacaa9a75d522b39400f8352602083015260408201524660608201523060808201522090565b907fffffffffffffffffffffffffffffffffffffffffffffffffffffffffffffffff8201918211613bd857565b7f4e487b71000000000000000000000000000000000000000000000000000000005f52601160045260245ffd5b8054821015611b98575f5260205f2001905f90565b91613c52918354907fffffffffffffffffffffffffffffffffffffffffffffffffffffffffffffffff9060031b92831b921b19161790565b9055565b80548015613cba577fffffffffffffffffffffffffffffffffffffffffffffffffffffffffffffffff0190613c8b8282613c05565b7fffffffffffffffffffffffffffffffffffffffffffffffffffffffffffffffff82549160031b1b1916905555565b7f4e487b71000000000000000000000000000000000000000000000000000000005f52603160045260245ffd5b5f8181527fe3a55571e8f241b58442871487cc151a8cb048bb4ad24e833467f724ec89a9036020526040902054908115613e58577fffffffffffffffffffffffffffffffffffffffffffffffffffffffffffffffff820190828211613bd8575f92613dd992613d767fe3a55571e8f241b58442871487cc151a8cb048bb4ad24e833467f724ec89a90254613bab565b90818103613ddf575b505050613dab7fe3a55571e8f241b58442871487cc151a8cb048bb4ad24e833467f724ec89a902613c56565b7fe3a55571e8f241b58442871487cc151a8cb048bb4ad24e833467f724ec89a903905f5260205260405f2090565b55600190565b613dab613e4991613e20613e16613e4f957fe3a55571e8f241b58442871487cc151a8cb048bb4ad24e833467f724ec89a902613c05565b90549060031b1c90565b9283917fe3a55571e8f241b58442871487cc151a8cb048bb4ad24e833467f724ec89a902613c05565b90613c1a565b555f8080613d7f565b50505f90565b5f8181527fe3a55571e8f241b58442871487cc151a8cb048bb4ad24e833467f724ec89a9016020526040902054908115613e58577fffffffffffffffffffffffffffffffffffffffffffffffffffffffffffffffff820190828211613bd8575f92613dd992613eed7fe3a55571e8f241b58442871487cc151a8cb048bb4ad24e833467f724ec89a90054613bab565b90818103613f50575b505050613f227fe3a55571e8f241b58442871487cc151a8cb048bb4ad24e833467f724ec89a900613c56565b7fe3a55571e8f241b58442871487cc151a8cb048bb4ad24e833467f724ec89a901905f5260205260405f2090565b613f22613e4991613f87613e16613fb0957fe3a55571e8f241b58442871487cc151a8cb048bb4ad24e833467f724ec89a900613c05565b9283917fe3a55571e8f241b58442871487cc151a8cb048bb4ad24e833467f724ec89a900613c05565b555f8080613ef6565b9092915f933a15613fc957505050565b90919293503a3a5260203a3a386d378edcd5b5b0a24f5342d8c1048561fffffa503a5115613ffb575b61125e926142ef565b60405192631626ba7e3a526d378edcd5b5b0a24f5342d8c1048560205260408052454561ffff011793845a106d378edcd5b5b0a24f5342d8c104858314176140575761125e943a906064601c3a923090fa506040529250613ff2565bfe5b5f8181527fe3a55571e8f241b58442871487cc151a8cb048bb4ad24e833467f724ec89a9036020526040902054611a1a577fe3a55571e8f241b58442871487cc151a8cb048bb4ad24e833467f724ec89a902546801000000000000000081101561149c576141466141118260018594017fe3a55571e8f241b58442871487cc151a8cb048bb4ad24e833467f724ec89a902557fe3a55571e8f241b58442871487cc151a8cb048bb4ad24e833467f724ec89a902613c05565b81939154907fffffffffffffffffffffffffffffffffffffffffffffffffffffffffffffffff9060031b92831b921b19161790565b90557fe3a55571e8f241b58442871487cc151a8cb048bb4ad24e833467f724ec89a90254905f527fe3a55571e8f241b58442871487cc151a8cb048bb4ad24e833467f724ec89a90360205260405f2055600190565b5f8181527fe3a55571e8f241b58442871487cc151a8cb048bb4ad24e833467f724ec89a9016020526040902054611a1a577fe3a55571e8f241b58442871487cc151a8cb048bb4ad24e833467f724ec89a900546801000000000000000081101561149c576142536141118260018594017fe3a55571e8f241b58442871487cc151a8cb048bb4ad24e833467f724ec89a900557fe3a55571e8f241b58442871487cc151a8cb048bb4ad24e833467f724ec89a900613c05565b90557fe3a55571e8f241b58442871487cc151a8cb048bb4ad24e833467f724ec89a90054905f527fe3a55571e8f241b58442871487cc151a8cb048bb4ad24e833467f724ec89a90160205260405f2055600190565b90816020910312610162575161125e81610d64565b61125e949273ffffffffffffffffffffffffffffffffffffffff60609316825260208201528160408201520191612cc8565b90916143016117c76117c1838661135b565b92614352610f7f8573ffffffffffffffffffffffffffffffffffffffff165f5260017fe3a55571e8f241b58442871487cc151a8cb048bb4ad24e833467f724ec89a9000160205260405f2054151590565b614443579260209261437d8373ffffffffffffffffffffffffffffffffffffffff946143b797611369565b939091604051968795869485937ff551e2ee00000000000000000000000000000000000000000000000000000000855233600486016142bd565b0392165afa90811561081f577f1626ba7e00000000000000000000000000000000000000000000000000000000917fffffffff00000000000000000000000000000000000000000000000000000000915f91614414575b50161490565b614436915060203d60201161443c575b61442e81836114a1565b8101906142a8565b5f61440e565b503d614424565b7fb927fe5e000000000000000000000000000000000000000000000000000000005f5273ffffffffffffffffffffffffffffffffffffffff841660045260245ffd5b61448d613b50565b6719010000000000005f52601a52603a526042601820905f603a5256fea2646970667358221220503c21d80f9d4ed876a37d70de1523951a6d706ef42dbfbc9d4a3c4a8d10511964736f6c634300081c0033f0c57e16840df040f15088dc2f81fe391c3923bec73e23a9662efc9c229c6a00","linkReferences":{}},"methodIdentifiers":{"ENTRY_POINT_V08()":"59cd3300","accountId()":"9cfd7cff","domainSeparator()":"f698da25","eip712Domain()":"84b0196e","entryPoint()":"b0d691fe","execute(bytes32,bytes)":"e9ae5c53","executeFromExecutor(bytes32,bytes)":"d691c964","getActiveFallbackHandler(bytes4)":"eac9b20d","getRegistry()":"5ab1bd53","initializeAccount(address[],bytes[])":"f0efd465","installModule(uint256,address,bytes)":"9517e29f","isModuleInstalled(uint256,address,bytes)":"112d3a7d","isValidSignature(bytes32,bytes)":"1626ba7e","setRegistry(address,address[],uint8)":"eab77e17","supportsExecutionMode(bytes32)":"d03c7914","supportsModule(uint256)":"f2dc691d","uninstallModule(uint256,address,bytes)":"a71763a8","unlinkModule(uint256,address,bytes)":"1363361a","validateUserOp((address,uint256,bytes,bytes,bytes32,uint256,bytes32,bytes,bytes),bytes32,uint256)":"19822f7c"},"id":95}