{
  "abi": [
    {
      "type": "function",
      "name": "createSession",
      "inputs": [
        {
          "name": "sessionSpec",
          "type": "tuple",
          "internalType": "struct SessionLib.SessionSpec",
          "components": [
            {
              "name": "signer",
              "type": "address",
              "internalType": "address"
            },
            {
              "name": "expiresAt",
              "type": "uint48",
              "internalType": "uint48"
            },
            {
              "name": "feeLimit",
              "type": "tuple",
              "internalType": "struct SessionLib.UsageLimit",
              "components": [
                {
                  "name": "limitType",
                  "type": "uint8",
                  "internalType": "enum SessionLib.LimitType"
                },
                {
                  "name": "limit",
                  "type": "uint256",
                  "internalType": "uint256"
                },
                {
                  "name": "period",
                  "type": "uint48",
                  "internalType": "uint48"
                }
              ]
            },
            {
              "name": "callPolicies",
              "type": "tuple[]",
              "internalType": "struct SessionLib.CallSpec[]",
              "components": [
                {
                  "name": "target",
                  "type": "address",
                  "internalType": "address"
                },
                {
                  "name": "selector",
                  "type": "bytes4",
                  "internalType": "bytes4"
                },
                {
                  "name": "maxValuePerUse",
                  "type": "uint256",
                  "internalType": "uint256"
                },
                {
                  "name": "valueLimit",
                  "type": "tuple",
                  "internalType": "struct SessionLib.UsageLimit",
                  "components": [
                    {
                      "name": "limitType",
                      "type": "uint8",
                      "internalType": "enum SessionLib.LimitType"
                    },
                    {
                      "name": "limit",
                      "type": "uint256",
                      "internalType": "uint256"
                    },
                    {
                      "name": "period",
                      "type": "uint48",
                      "internalType": "uint48"
                    }
                  ]
                },
                {
                  "name": "constraints",
                  "type": "tuple[]",
                  "internalType": "struct SessionLib.Constraint[]",
                  "components": [
                    {
                      "name": "condition",
                      "type": "uint8",
                      "internalType": "enum SessionLib.Condition"
                    },
                    {
                      "name": "index",
                      "type": "uint64",
                      "internalType": "uint64"
                    },
                    {
                      "name": "refValue",
                      "type": "bytes32",
                      "internalType": "bytes32"
                    },
                    {
                      "name": "limit",
                      "type": "tuple",
                      "internalType": "struct SessionLib.UsageLimit",
                      "components": [
                        {
                          "name": "limitType",
                          "type": "uint8",
                          "internalType": "enum SessionLib.LimitType"
                        },
                        {
                          "name": "limit",
                          "type": "uint256",
                          "internalType": "uint256"
                        },
                        {
                          "name": "period",
                          "type": "uint48",
                          "internalType": "uint48"
                        }
                      ]
                    }
                  ]
                }
              ]
            },
            {
              "name": "transferPolicies",
              "type": "tuple[]",
              "internalType": "struct SessionLib.TransferSpec[]",
              "components": [
                {
                  "name": "target",
                  "type": "address",
                  "internalType": "address"
                },
                {
                  "name": "maxValuePerUse",
                  "type": "uint256",
                  "internalType": "uint256"
                },
                {
                  "name": "valueLimit",
                  "type": "tuple",
                  "internalType": "struct SessionLib.UsageLimit",
                  "components": [
                    {
                      "name": "limitType",
                      "type": "uint8",
                      "internalType": "enum SessionLib.LimitType"
                    },
                    {
                      "name": "limit",
                      "type": "uint256",
                      "internalType": "uint256"
                    },
                    {
                      "name": "period",
                      "type": "uint48",
                      "internalType": "uint48"
                    }
                  ]
                }
              ]
            }
          ]
        },
        {
          "name": "proof",
          "type": "bytes",
          "internalType": "bytes"
        }
      ],
      "outputs": [],
      "stateMutability": "nonpayable"
    },
    {
      "type": "function",
      "name": "isInitialized",
      "inputs": [
        {
          "name": "smartAccount",
          "type": "address",
          "internalType": "address"
        }
      ],
      "outputs": [
        {
          "name": "",
          "type": "bool",
          "internalType": "bool"
        }
      ],
      "stateMutability": "view"
    },
    {
      "type": "function",
      "name": "isModuleType",
      "inputs": [
        {
          "name": "moduleTypeId",
          "type": "uint256",
          "internalType": "uint256"
        }
      ],
      "outputs": [
        {
          "name": "",
          "type": "bool",
          "internalType": "bool"
        }
      ],
      "stateMutability": "pure"
    },
    {
      "type": "function",
      "name": "isValidSignatureWithSender",
      "inputs": [
        {
          "name": "",
          "type": "address",
          "internalType": "address"
        },
        {
          "name": "",
          "type": "bytes32",
          "internalType": "bytes32"
        },
        {
          "name": "",
          "type": "bytes",
          "internalType": "bytes"
        }
      ],
      "outputs": [
        {
          "name": "",
          "type": "bytes4",
          "internalType": "bytes4"
        }
      ],
      "stateMutability": "pure"
    },
    {
      "type": "function",
      "name": "onInstall",
      "inputs": [
        {
          "name": "",
          "type": "bytes",
          "internalType": "bytes"
        }
      ],
      "outputs": [],
      "stateMutability": "nonpayable"
    },
    {
      "type": "function",
      "name": "onUninstall",
      "inputs": [
        {
          "name": "data",
          "type": "bytes",
          "internalType": "bytes"
        }
      ],
      "outputs": [],
      "stateMutability": "nonpayable"
    },
    {
      "type": "function",
      "name": "revokeKey",
      "inputs": [
        {
          "name": "sessionHash",
          "type": "bytes32",
          "internalType": "bytes32"
        }
      ],
      "outputs": [],
      "stateMutability": "nonpayable"
    },
    {
      "type": "function",
      "name": "revokeKeys",
      "inputs": [
        {
          "name": "sessionHashes",
          "type": "bytes32[]",
          "internalType": "bytes32[]"
        }
      ],
      "outputs": [],
      "stateMutability": "nonpayable"
    },
    {
      "type": "function",
      "name": "sessionSigner",
      "inputs": [
        {
          "name": "signer",
          "type": "address",
          "internalType": "address"
        }
      ],
      "outputs": [
        {
          "name": "sessionHash",
          "type": "bytes32",
          "internalType": "bytes32"
        }
      ],
      "stateMutability": "view"
    },
    {
      "type": "function",
      "name": "sessionState",
      "inputs": [
        {
          "name": "account",
          "type": "address",
          "internalType": "address"
        },
        {
          "name": "spec",
          "type": "tuple",
          "internalType": "struct SessionLib.SessionSpec",
          "components": [
            {
              "name": "signer",
              "type": "address",
              "internalType": "address"
            },
            {
              "name": "expiresAt",
              "type": "uint48",
              "internalType": "uint48"
            },
            {
              "name": "feeLimit",
              "type": "tuple",
              "internalType": "struct SessionLib.UsageLimit",
              "components": [
                {
                  "name": "limitType",
                  "type": "uint8",
                  "internalType": "enum SessionLib.LimitType"
                },
                {
                  "name": "limit",
                  "type": "uint256",
                  "internalType": "uint256"
                },
                {
                  "name": "period",
                  "type": "uint48",
                  "internalType": "uint48"
                }
              ]
            },
            {
              "name": "callPolicies",
              "type": "tuple[]",
              "internalType": "struct SessionLib.CallSpec[]",
              "components": [
                {
                  "name": "target",
                  "type": "address",
                  "internalType": "address"
                },
                {
                  "name": "selector",
                  "type": "bytes4",
                  "internalType": "bytes4"
                },
                {
                  "name": "maxValuePerUse",
                  "type": "uint256",
                  "internalType": "uint256"
                },
                {
                  "name": "valueLimit",
                  "type": "tuple",
                  "internalType": "struct SessionLib.UsageLimit",
                  "components": [
                    {
                      "name": "limitType",
                      "type": "uint8",
                      "internalType": "enum SessionLib.LimitType"
                    },
                    {
                      "name": "limit",
                      "type": "uint256",
                      "internalType": "uint256"
                    },
                    {
                      "name": "period",
                      "type": "uint48",
                      "internalType": "uint48"
                    }
                  ]
                },
                {
                  "name": "constraints",
                  "type": "tuple[]",
                  "internalType": "struct SessionLib.Constraint[]",
                  "components": [
                    {
                      "name": "condition",
                      "type": "uint8",
                      "internalType": "enum SessionLib.Condition"
                    },
                    {
                      "name": "index",
                      "type": "uint64",
                      "internalType": "uint64"
                    },
                    {
                      "name": "refValue",
                      "type": "bytes32",
                      "internalType": "bytes32"
                    },
                    {
                      "name": "limit",
                      "type": "tuple",
                      "internalType": "struct SessionLib.UsageLimit",
                      "components": [
                        {
                          "name": "limitType",
                          "type": "uint8",
                          "internalType": "enum SessionLib.LimitType"
                        },
                        {
                          "name": "limit",
                          "type": "uint256",
                          "internalType": "uint256"
                        },
                        {
                          "name": "period",
                          "type": "uint48",
                          "internalType": "uint48"
                        }
                      ]
                    }
                  ]
                }
              ]
            },
            {
              "name": "transferPolicies",
              "type": "tuple[]",
              "internalType": "struct SessionLib.TransferSpec[]",
              "components": [
                {
                  "name": "target",
                  "type": "address",
                  "internalType": "address"
                },
                {
                  "name": "maxValuePerUse",
                  "type": "uint256",
                  "internalType": "uint256"
                },
                {
                  "name": "valueLimit",
                  "type": "tuple",
                  "internalType": "struct SessionLib.UsageLimit",
                  "components": [
                    {
                      "name": "limitType",
                      "type": "uint8",
                      "internalType": "enum SessionLib.LimitType"
                    },
                    {
                      "name": "limit",
                      "type": "uint256",
                      "internalType": "uint256"
                    },
                    {
                      "name": "period",
                      "type": "uint48",
                      "internalType": "uint48"
                    }
                  ]
                }
              ]
            }
          ]
        }
      ],
      "outputs": [
        {
          "name": "",
          "type": "tuple",
          "internalType": "struct SessionLib.SessionState",
          "components": [
            {
              "name": "status",
              "type": "uint8",
              "internalType": "enum SessionLib.Status"
            },
            {
              "name": "feesRemaining",
              "type": "uint256",
              "internalType": "uint256"
            },
            {
              "name": "transferValue",
              "type": "tuple[]",
              "internalType": "struct SessionLib.LimitState[]",
              "components": [
                {
                  "name": "remaining",
                  "type": "uint256",
                  "internalType": "uint256"
                },
                {
                  "name": "target",
                  "type": "address",
                  "internalType": "address"
                },
                {
                  "name": "selector",
                  "type": "bytes4",
                  "internalType": "bytes4"
                },
                {
                  "name": "index",
                  "type": "uint256",
                  "internalType": "uint256"
                }
              ]
            },
            {
              "name": "callValue",
              "type": "tuple[]",
              "internalType": "struct SessionLib.LimitState[]",
              "components": [
                {
                  "name": "remaining",
                  "type": "uint256",
                  "internalType": "uint256"
                },
                {
                  "name": "target",
                  "type": "address",
                  "internalType": "address"
                },
                {
                  "name": "selector",
                  "type": "bytes4",
                  "internalType": "bytes4"
                },
                {
                  "name": "index",
                  "type": "uint256",
                  "internalType": "uint256"
                }
              ]
            },
            {
              "name": "callParams",
              "type": "tuple[]",
              "internalType": "struct SessionLib.LimitState[]",
              "components": [
                {
                  "name": "remaining",
                  "type": "uint256",
                  "internalType": "uint256"
                },
                {
                  "name": "target",
                  "type": "address",
                  "internalType": "address"
                },
                {
                  "name": "selector",
                  "type": "bytes4",
                  "internalType": "bytes4"
                },
                {
                  "name": "index",
                  "type": "uint256",
                  "internalType": "uint256"
                }
              ]
            }
          ]
        }
      ],
      "stateMutability": "view"
    },
    {
      "type": "function",
      "name": "sessionStatus",
      "inputs": [
        {
          "name": "account",
          "type": "address",
          "internalType": "address"
        },
        {
          "name": "sessionHash",
          "type": "bytes32",
          "internalType": "bytes32"
        }
      ],
      "outputs": [
        {
          "name": "",
          "type": "uint8",
          "internalType": "enum SessionLib.Status"
        }
      ],
      "stateMutability": "view"
    },
    {
      "type": "function",
      "name": "supportsInterface",
      "inputs": [
        {
          "name": "interfaceId",
          "type": "bytes4",
          "internalType": "bytes4"
        }
      ],
      "outputs": [
        {
          "name": "",
          "type": "bool",
          "internalType": "bool"
        }
      ],
      "stateMutability": "pure"
    },
    {
      "type": "function",
      "name": "validateUserOp",
      "inputs": [
        {
          "name": "userOp",
          "type": "tuple",
          "internalType": "struct PackedUserOperation",
          "components": [
            {
              "name": "sender",
              "type": "address",
              "internalType": "address"
            },
            {
              "name": "nonce",
              "type": "uint256",
              "internalType": "uint256"
            },
            {
              "name": "initCode",
              "type": "bytes",
              "internalType": "bytes"
            },
            {
              "name": "callData",
              "type": "bytes",
              "internalType": "bytes"
            },
            {
              "name": "accountGasLimits",
              "type": "bytes32",
              "internalType": "bytes32"
            },
            {
              "name": "preVerificationGas",
              "type": "uint256",
              "internalType": "uint256"
            },
            {
              "name": "gasFees",
              "type": "bytes32",
              "internalType": "bytes32"
            },
            {
              "name": "paymasterAndData",
              "type": "bytes",
              "internalType": "bytes"
            },
            {
              "name": "signature",
              "type": "bytes",
              "internalType": "bytes"
            }
          ]
        },
        {
          "name": "userOpHash",
          "type": "bytes32",
          "internalType": "bytes32"
        }
      ],
      "outputs": [
        {
          "name": "",
          "type": "uint256",
          "internalType": "uint256"
        }
      ],
      "stateMutability": "nonpayable"
    },
    {
      "type": "event",
      "name": "SessionCreated",
      "inputs": [
        {
          "name": "account",
          "type": "address",
          "indexed": true,
          "internalType": "address"
        },
        {
          "name": "sessionHash",
          "type": "bytes32",
          "indexed": true,
          "internalType": "bytes32"
        },
        {
          "name": "sessionSpec",
          "type": "tuple",
          "indexed": false,
          "internalType": "struct SessionLib.SessionSpec",
          "components": [
            {
              "name": "signer",
              "type": "address",
              "internalType": "address"
            },
            {
              "name": "expiresAt",
              "type": "uint48",
              "internalType": "uint48"
            },
            {
              "name": "feeLimit",
              "type": "tuple",
              "internalType": "struct SessionLib.UsageLimit",
              "components": [
                {
                  "name": "limitType",
                  "type": "uint8",
                  "internalType": "enum SessionLib.LimitType"
                },
                {
                  "name": "limit",
                  "type": "uint256",
                  "internalType": "uint256"
                },
                {
                  "name": "period",
                  "type": "uint48",
                  "internalType": "uint48"
                }
              ]
            },
            {
              "name": "callPolicies",
              "type": "tuple[]",
              "internalType": "struct SessionLib.CallSpec[]",
              "components": [
                {
                  "name": "target",
                  "type": "address",
                  "internalType": "address"
                },
                {
                  "name": "selector",
                  "type": "bytes4",
                  "internalType": "bytes4"
                },
                {
                  "name": "maxValuePerUse",
                  "type": "uint256",
                  "internalType": "uint256"
                },
                {
                  "name": "valueLimit",
                  "type": "tuple",
                  "internalType": "struct SessionLib.UsageLimit",
                  "components": [
                    {
                      "name": "limitType",
                      "type": "uint8",
                      "internalType": "enum SessionLib.LimitType"
                    },
                    {
                      "name": "limit",
                      "type": "uint256",
                      "internalType": "uint256"
                    },
                    {
                      "name": "period",
                      "type": "uint48",
                      "internalType": "uint48"
                    }
                  ]
                },
                {
                  "name": "constraints",
                  "type": "tuple[]",
                  "internalType": "struct SessionLib.Constraint[]",
                  "components": [
                    {
                      "name": "condition",
                      "type": "uint8",
                      "internalType": "enum SessionLib.Condition"
                    },
                    {
                      "name": "index",
                      "type": "uint64",
                      "internalType": "uint64"
                    },
                    {
                      "name": "refValue",
                      "type": "bytes32",
                      "internalType": "bytes32"
                    },
                    {
                      "name": "limit",
                      "type": "tuple",
                      "internalType": "struct SessionLib.UsageLimit",
                      "components": [
                        {
                          "name": "limitType",
                          "type": "uint8",
                          "internalType": "enum SessionLib.LimitType"
                        },
                        {
                          "name": "limit",
                          "type": "uint256",
                          "internalType": "uint256"
                        },
                        {
                          "name": "period",
                          "type": "uint48",
                          "internalType": "uint48"
                        }
                      ]
                    }
                  ]
                }
              ]
            },
            {
              "name": "transferPolicies",
              "type": "tuple[]",
              "internalType": "struct SessionLib.TransferSpec[]",
              "components": [
                {
                  "name": "target",
                  "type": "address",
                  "internalType": "address"
                },
                {
                  "name": "maxValuePerUse",
                  "type": "uint256",
                  "internalType": "uint256"
                },
                {
                  "name": "valueLimit",
                  "type": "tuple",
                  "internalType": "struct SessionLib.UsageLimit",
                  "components": [
                    {
                      "name": "limitType",
                      "type": "uint8",
                      "internalType": "enum SessionLib.LimitType"
                    },
                    {
                      "name": "limit",
                      "type": "uint256",
                      "internalType": "uint256"
                    },
                    {
                      "name": "period",
                      "type": "uint48",
                      "internalType": "uint48"
                    }
                  ]
                }
              ]
            }
          ]
        }
      ],
      "anonymous": false
    },
    {
      "type": "event",
      "name": "SessionRevoked",
      "inputs": [
        {
          "name": "account",
          "type": "address",
          "indexed": true,
          "internalType": "address"
        },
        {
          "name": "sessionHash",
          "type": "bytes32",
          "indexed": true,
          "internalType": "bytes32"
        }
      ],
      "anonymous": false
    },
    {
      "type": "error",
      "name": "AllowanceExceeded",
      "inputs": [
        {
          "name": "allowance",
          "type": "uint256",
          "internalType": "uint256"
        },
        {
          "name": "maxAllowance",
          "type": "uint256",
          "internalType": "uint256"
        },
        {
          "name": "period",
          "type": "uint64",
          "internalType": "uint64"
        }
      ]
    },
    {
      "type": "error",
      "name": "AlreadyInitialized",
      "inputs": [
        {
          "name": "smartAccount",
          "type": "address",
          "internalType": "address"
        }
      ]
    },
    {
      "type": "error",
      "name": "CallPolicyBanned",
      "inputs": [
        {
          "name": "target",
          "type": "address",
          "internalType": "address"
        },
        {
          "name": "selector",
          "type": "bytes4",
          "internalType": "bytes4"
        }
      ]
    },
    {
      "type": "error",
      "name": "CallPolicyViolated",
      "inputs": [
        {
          "name": "target",
          "type": "address",
          "internalType": "address"
        },
        {
          "name": "selector",
          "type": "bytes4",
          "internalType": "bytes4"
        }
      ]
    },
    {
      "type": "error",
      "name": "ConditionViolated",
      "inputs": [
        {
          "name": "param",
          "type": "bytes32",
          "internalType": "bytes32"
        },
        {
          "name": "refValue",
          "type": "bytes32",
          "internalType": "bytes32"
        },
        {
          "name": "condition",
          "type": "uint8",
          "internalType": "uint8"
        }
      ]
    },
    {
      "type": "error",
      "name": "ECDSAInvalidSignature",
      "inputs": []
    },
    {
      "type": "error",
      "name": "ECDSAInvalidSignatureLength",
      "inputs": [
        {
          "name": "length",
          "type": "uint256",
          "internalType": "uint256"
        }
      ]
    },
    {
      "type": "error",
      "name": "ECDSAInvalidSignatureS",
      "inputs": [
        {
          "name": "s",
          "type": "bytes32",
          "internalType": "bytes32"
        }
      ]
    },
    {
      "type": "error",
      "name": "EmptyTimeRange",
      "inputs": []
    },
    {
      "type": "error",
      "name": "InvalidCallType",
      "inputs": [
        {
          "name": "callType",
          "type": "bytes1",
          "internalType": "bytes1"
        },
        {
          "name": "expected",
          "type": "bytes1",
          "internalType": "bytes1"
        }
      ]
    },
    {
      "type": "error",
      "name": "InvalidData",
      "inputs": []
    },
    {
      "type": "error",
      "name": "InvalidDataLength",
      "inputs": [
        {
          "name": "actualLength",
          "type": "uint256",
          "internalType": "uint256"
        },
        {
          "name": "expectedLength",
          "type": "uint256",
          "internalType": "uint256"
        }
      ]
    },
    {
      "type": "error",
      "name": "InvalidExecType",
      "inputs": [
        {
          "name": "execType",
          "type": "bytes1",
          "internalType": "bytes1"
        }
      ]
    },
    {
      "type": "error",
      "name": "InvalidNonceKey",
      "inputs": [
        {
          "name": "nonceKey",
          "type": "uint192",
          "internalType": "uint192"
        },
        {
          "name": "expectedNonceKey",
          "type": "uint192",
          "internalType": "uint192"
        }
      ]
    },
    {
      "type": "error",
      "name": "InvalidSigner",
      "inputs": [
        {
          "name": "recovered",
          "type": "address",
          "internalType": "address"
        },
        {
          "name": "expected",
          "type": "address",
          "internalType": "address"
        }
      ]
    },
    {
      "type": "error",
      "name": "InvalidTargetAddress",
      "inputs": [
        {
          "name": "target",
          "type": "address",
          "internalType": "address"
        }
      ]
    },
    {
      "type": "error",
      "name": "InvalidTopLevelSelector",
      "inputs": [
        {
          "name": "selector",
          "type": "bytes4",
          "internalType": "bytes4"
        },
        {
          "name": "expected",
          "type": "bytes4",
          "internalType": "bytes4"
        }
      ]
    },
    {
      "type": "error",
      "name": "LifetimeUsageExceeded",
      "inputs": [
        {
          "name": "lifetimeUsage",
          "type": "uint256",
          "internalType": "uint256"
        },
        {
          "name": "maxUsage",
          "type": "uint256",
          "internalType": "uint256"
        }
      ]
    },
    {
      "type": "error",
      "name": "MaxValueExceeded",
      "inputs": [
        {
          "name": "usedValue",
          "type": "uint256",
          "internalType": "uint256"
        },
        {
          "name": "maxValuePerUse",
          "type": "uint256",
          "internalType": "uint256"
        }
      ]
    },
    {
      "type": "error",
      "name": "NotInitialized",
      "inputs": [
        {
          "name": "smartAccount",
          "type": "address",
          "internalType": "address"
        }
      ]
    },
    {
      "type": "error",
      "name": "SessionAlreadyExists",
      "inputs": [
        {
          "name": "sessionHash",
          "type": "bytes32",
          "internalType": "bytes32"
        }
      ]
    },
    {
      "type": "error",
      "name": "SessionExpiresTooSoon",
      "inputs": [
        {
          "name": "expiresAt",
          "type": "uint256",
          "internalType": "uint256"
        }
      ]
    },
    {
      "type": "error",
      "name": "SessionNotActive",
      "inputs": []
    },
    {
      "type": "error",
      "name": "SignerAlreadyUsed",
      "inputs": [
        {
          "name": "signer",
          "type": "address",
          "internalType": "address"
        }
      ]
    },
    {
      "type": "error",
      "name": "TransferPolicyViolated",
      "inputs": [
        {
          "name": "target",
          "type": "address",
          "internalType": "address"
        }
      ]
    },
    {
      "type": "error",
      "name": "UnlimitedFees",
      "inputs": []
    },
    {
      "type": "error",
      "name": "ZeroSigner",
      "inputs": []
    }
  ],
  "bytecode": {
    "object": "0x60808060405234601557614077908161001a8239f35b5f80fdfe60806040526004361015610011575f80fd5b5f3560e01c806301ffc9a7146100e4578063054608e9146100df5780633ec59279146100da578063572f2210146100d557806359130708146100d05780635dd48d06146100cb57806366740450146100c65780636d61fe70146100c15780638a91b0e3146100bc57806397003203146100b7578063d60b347f146100b2578063ecd05961146100ad5763f551e2ee146100a8575f80fd5b610d7c565b610d3d565b610cee565b610c66565b610bb9565b610bab565b6109bd565b610820565b61079b565b6106fa565b61067d565b610246565b61011a565b35907fffffffff000000000000000000000000000000000000000000000000000000008216820361011657565b5f80fd5b346101165760207ffffffffffffffffffffffffffffffffffffffffffffffffffffffffffffffffc360112610116576004357fffffffff00000000000000000000000000000000000000000000000000000000811680910361011657807f01ffc9a700000000000000000000000000000000000000000000000000000000602092149081156101e0575b81156101b6575b506040519015158152f35b7fdd2b238d000000000000000000000000000000000000000000000000000000009150145f6101ab565b7f6251d0ed00000000000000000000000000000000000000000000000000000000811491506101a4565b908160e09103126101165790565b9181601f840112156101165782359167ffffffffffffffff8311610116576020838186019501011161011657565b346101165760407ffffffffffffffffffffffffffffffffffffffffffffffffffffffffffffffffc3601126101165760043567ffffffffffffffff81116101165761029590369060040161020a565b60243567ffffffffffffffff8111610116576102b5903690600401610218565b91906102c033611dc4565b15610651576102d36102db9236906111cb565b92369161125b565b90604051602081019061031e816102f28585611947565b037fffffffffffffffffffffffffffffffffffffffffffffffffffffffffffffffe08101835282610e88565b5190209160608201805151905f5b8281106105b0575050506103a36103f09161037b73ffffffffffffffffffffffffffffffffffffffff610373865173ffffffffffffffffffffffffffffffffffffffff1690565b161515611887565b6040805160208101878152339282019290925261039b81606081016102f2565b5190206137e4565b825173ffffffffffffffffffffffffffffffffffffffff169073ffffffffffffffffffffffffffffffffffffffff821673ffffffffffffffffffffffffffffffffffffffff821614611ed7565b61045d610437610414835173ffffffffffffffffffffffffffffffffffffffff1690565b73ffffffffffffffffffffffffffffffffffffffff165f525f60205260405f2090565b5415610457835173ffffffffffffffffffffffffffffffffffffffff1690565b90611f28565b61047d61046d6040830151611f72565b6104768161078c565b1515611f7c565b6104d3826104c46104bd3361049a845f52600160205260405f2090565b9073ffffffffffffffffffffffffffffffffffffffff165f5260205260405f2090565b5460ff1690565b6104cd8161078c565b15611fab565b6105146020820161050e6104ed825165ffffffffffff1690565b65ffffffffffff6104fd4261200b565b91161015915165ffffffffffff1690565b90612055565b61055861052d3361049a855f52600160205260405f2090565b60017fffffffffffffffffffffffffffffffffffffffffffffffffffffffffffffff00825416179055565b8161057a610414835173ffffffffffffffffffffffffffffffffffffffff1690565b557f2fe3a315b5887bc614aaf65c4ed1b6f8f1b75530172d8dfbe1ea989e1b34b0d6604051806105ab339482611947565b0390a3005b8061064b6106276106236105e56105ca600196885161174b565b515173ffffffffffffffffffffffffffffffffffffffff1690565b61061d60206105f5878a5161174b565b5101517fffffffff000000000000000000000000000000000000000000000000000000001690565b906134ff565b1590565b6106356105ca84875161174b565b61064560206105f586895161174b565b91611e66565b0161032c565b7ff91bd6f1000000000000000000000000000000000000000000000000000000005f523360045260245ffd5b346101165760207ffffffffffffffffffffffffffffffffffffffffffffffffffffffffffffffffc3601126101165760043567ffffffffffffffff8111610116573660238201121561011657806004013567ffffffffffffffff8111610116573660248260051b840101116101165760246106f892016112ec565b005b346101165760207ffffffffffffffffffffffffffffffffffffffffffffffffffffffffffffffffc360112610116576106f8600435611344565b73ffffffffffffffffffffffffffffffffffffffff81160361011657565b359061075d82610734565b565b7f4e487b71000000000000000000000000000000000000000000000000000000005f52602160045260245ffd5b6003111561079657565b61075f565b346101165760407ffffffffffffffffffffffffffffffffffffffffffffffffffffffffffffffffc36011261011657602060ff61080d6004356107dd81610734565b6024355f526001845260405f209073ffffffffffffffffffffffffffffffffffffffff165f5260205260405f2090565b54166040519061081c8161078c565b8152f35b346101165760207ffffffffffffffffffffffffffffffffffffffffffffffffffffffffffffffffc3601126101165773ffffffffffffffffffffffffffffffffffffffff60043561087081610734565b165f525f602052602060405f2054604051908152f35b90602080835192838152019201905f5b8181106108a35750505090565b90919260206080600192606087518051835273ffffffffffffffffffffffffffffffffffffffff8582015116858401527fffffffff000000000000000000000000000000000000000000000000000000006040820151166040840152015160608201520194019101919091610896565b906109ba916020815281516109278161078c565b6020820152602082015160408201526080610987610954604085015160a0606086015260c0850190610886565b60608501517fffffffffffffffffffffffffffffffffffffffffffffffffffffffffffffffe08583030184860152610886565b9201519060a07fffffffffffffffffffffffffffffffffffffffffffffffffffffffffffffffe082850301910152610886565b90565b346101165760407ffffffffffffffffffffffffffffffffffffffffffffffffffffffffffffffffc360112610116576004356109f881610734565b60243567ffffffffffffffff811161011657610a1890369060040161020a565b90610a21611410565b506040519160208301916020835273ffffffffffffffffffffffffffffffffffffffff8235610a4f81610734565b16604085015265ffffffffffff610a6860208401610ef5565b166060850152610a7e608085016040840161143a565b60a08201357fffffffffffffffffffffffffffffffffffffffffffffffffffffffffffffffe1833603018112156101165782016020813591019367ffffffffffffffff8211610116578160051b360385136101165785610b38816102f2610afa610b4e99610b499760e080610b5a9e01526101208501916114fd565b610b0760c08a018a61166c565b907fffffffffffffffffffffffffffffffffffffffffffffffffffffffffffffffc0858403016101008601526116bf565b5190205f52600160205260405f2090565b6122b0565b60405191829182610913565b0390f35b60207ffffffffffffffffffffffffffffffffffffffffffffffffffffffffffffffffc820112610116576004359067ffffffffffffffff821161011657610ba791600401610218565b9091565b34610116576106f836610b5e565b3461011657610bc736610b5e565b8101906020818303126101165780359067ffffffffffffffff821161011657019080601f83011215610116578135610bfe81610f55565b92610c0c6040519485610e88565b81845260208085019260051b82010192831161011657602001905b828210610c5657835f5b81518110156106f85780610c50610c4a6001938561174b565b51611344565b01610c31565b8135815260209182019101610c27565b346101165760407ffffffffffffffffffffffffffffffffffffffffffffffffffffffffffffffffc3601126101165760043567ffffffffffffffff8111610116576101207ffffffffffffffffffffffffffffffffffffffffffffffffffffffffffffffffc823603011261011657610ce660209160243590600401611b7e565b604051908152f35b346101165760207ffffffffffffffffffffffffffffffffffffffffffffffffffffffffffffffffc360112610116576020610d33600435610d2e81610734565b611dc4565b6040519015158152f35b346101165760207ffffffffffffffffffffffffffffffffffffffffffffffffffffffffffffffffc360112610116576020600435600160405191148152f35b346101165760607ffffffffffffffffffffffffffffffffffffffffffffffffffffffffffffffffc36011261011657610db6600435610734565b60443567ffffffffffffffff811161011657610dd6903690600401610218565b505060206040517fffffffff000000000000000000000000000000000000000000000000000000008152f35b7f4e487b71000000000000000000000000000000000000000000000000000000005f52604160045260245ffd5b6060810190811067ffffffffffffffff821117610e4b57604052565b610e02565b60a0810190811067ffffffffffffffff821117610e4b57604052565b6080810190811067ffffffffffffffff821117610e4b57604052565b90601f7fffffffffffffffffffffffffffffffffffffffffffffffffffffffffffffffe0910116810190811067ffffffffffffffff821117610e4b57604052565b6040519061075d608083610e88565b6040519061075d60a083610e88565b9061075d6040519283610e88565b359065ffffffffffff8216820361011657565b3590600382101561011657565b919082606091031261011657604051610f2d81610e2f565b6040610f50818395610f3e81610f08565b85526020810135602086015201610ef5565b910152565b67ffffffffffffffff8111610e4b5760051b60200190565b3590600782101561011657565b359067ffffffffffffffff8216820361011657565b919060e08382031261011657604051610fa781610e50565b80938035610fb481610734565b8252610fc2602082016100e9565b602083015260408101356040830152610fde8360608301610f15565b606083015260c08101359067ffffffffffffffff8211610116570182601f820112156101165780359061101082610f55565b9361101e6040519586610e88565b828552602060c081870194028301019181831161011657602001925b82841061104b575050505060800152565b60c08483031261011657602060c09160405161106681610e6c565b61106f87610f6d565b815261107c838801610f7a565b83820152604087013560408201526110978560608901610f15565b606082015281520193019261103a565b9080601f830112156101165781356110be81610f55565b926110cc6040519485610e88565b81845260208085019260051b820101918383116101165760208201905b8382106110f857505050505090565b813567ffffffffffffffff81116101165760209161111b87848094880101610f8f565b8152019101906110e9565b919060a083820312610116576040610f5081519261114384610e2f565b828496803561115181610734565b86526020810135602087015201610f15565b81601f8201121561011657803561117981610f55565b926111876040519485610e88565b818452602060a081860193028401019281841161011657602001915b8383106111b1575050505090565b602060a0916111c08486611126565b8152019201916111a3565b919060e08382031261011657604051906111e482610e50565b81936111ef81610752565b83526111fd60208201610ef5565b602084015261120f8260408301610f15565b604084015260a081013567ffffffffffffffff811161011657826112349183016110a7565b606084015260c08101359167ffffffffffffffff831161011657608092610f509201611163565b92919267ffffffffffffffff8211610e4b57604051916112a360207fffffffffffffffffffffffffffffffffffffffffffffffffffffffffffffffe0601f8401160184610e88565b829481845281830111610116578281602093845f960137010152565b7f4e487b71000000000000000000000000000000000000000000000000000000005f52603260045260245ffd5b915f5b8281101561130f576001906113098160051b860135611344565b016112ef565b50915050565b1561131c57565b7f27406db9000000000000000000000000000000000000000000000000000000005f5260045ffd5b805f52600160205261138e600160ff61137d60405f203373ffffffffffffffffffffffffffffffffffffffff165f5260205260405f2090565b54166113888161078c565b14611315565b805f5260016020526113c13360405f209073ffffffffffffffffffffffffffffffffffffffff165f5260205260405f2090565b60027fffffffffffffffffffffffffffffffffffffffffffffffffffffffffffffff00825416179055337e6be5f629d8df9f032986474cfc3bfc82c9b1cd74dcb2fcb5b3d48f98a500245f80a3565b6040519061141d82610e50565b60606080835f81525f602082015282604082015282808201520152565b65ffffffffffff61146c6040809361145181610f08565b61145a8161078c565b86526020810135602087015201610ef5565b16910152565b6007111561079657565b9060078210156107965752565b916020908281520191905f5b8181106114a25750505090565b90919260c080826114bd6001946114b889610f6d565b61147c565b67ffffffffffffffff6114d260208901610f7a565b166020820152604087013560408201526114f2606082016060890161143a565b019401929101611495565b906020838281520160208260051b85010193835f915b8483106115235750505050505090565b9091929394957fffffffffffffffffffffffffffffffffffffffffffffffffffffffffffffffe082820301855286357fffffffffffffffffffffffffffffffffffffffffffffffffffffffffffffff218436030181121561011657830173ffffffffffffffffffffffffffffffffffffffff81356115a081610734565b1682527fffffffff000000000000000000000000000000000000000000000000000000006115d0602083016100e9565b166020830152604081013560408301526115f0606083016060830161143a565b60c08101357fffffffffffffffffffffffffffffffffffffffffffffffffffffffffffffffe18236030181121561011657016020813591019067ffffffffffffffff81116101165760c08102360382136101165761165e602092839260e0868160c060019901520191611489565b980196950193019190611513565b90357fffffffffffffffffffffffffffffffffffffffffffffffffffffffffffffffe18236030181121561011657016020813591019167ffffffffffffffff82116101165760a082023603831361011657565b916020908281520191905f5b8181106116d85750505090565b90919260a08060019273ffffffffffffffffffffffffffffffffffffffff873561170181610734565b1681526020870135602082015261171e604082016040890161143a565b0194019291016116cb565b8051156117365760200190565b6112bf565b8051600110156117365760400190565b80518210156117365760209160051b010190565b9035907fffffffffffffffffffffffffffffffffffffffffffffffffffffffffffffffe181360301821215610116570180359067ffffffffffffffff82116101165760200191813603831361011657565b909160608284031261011657813567ffffffffffffffff811161011657820183601f8201121561011657838160206117ea9335910161125b565b92602083013567ffffffffffffffff8111610116578161180b9185016111cb565b9260408101359067ffffffffffffffff821161011657019080601f8301121561011657813561183981610f55565b926118476040519485610e88565b81845260208085019260051b82010192831161011657602001905b82821061186f5750505090565b6020809161187c84610ef5565b815201910190611862565b1561188e57565b7fe5c48ac5000000000000000000000000000000000000000000000000000000005f5260045ffd5b65ffffffffffff6040809280516118cc8161078c565b855260208101516020860152015116910152565b90602080835192838152019201905f5b8181106118fd5750505090565b909192602060a060019261193c6040885173ffffffffffffffffffffffffffffffffffffffff81511684528581015186850152015160408301906118b6565b0194019291016118f0565b91906020835261010083019073ffffffffffffffffffffffffffffffffffffffff815116602085015265ffffffffffff6020820151166040850152611994604082015160608601906118b6565b60608101519160e060c0860152825180915261012085019060206101208260051b8801019401915f905b828210611a0357505050509260806109ba939401519060e07fffffffffffffffffffffffffffffffffffffffffffffffffffffffffffffffe0828503019101526118e0565b909192947ffffffffffffffffffffffffffffffffffffffffffffffffffffffffffffffee088820301825285516020610100608060e085019373ffffffffffffffffffffffffffffffffffffffff81511686527fffffffff0000000000000000000000000000000000000000000000000000000084820151168487015260408101516040870152611a9c606082015160608801906118b6565b01519360e060c08201528451809452019201905f905b808210611ad0575050506020806001929701920192019092916119be565b909192602060c0600192611b1460608851611aec84825161147c565b67ffffffffffffffff86820151168685015260408101516040850152015160608301906118b6565b019401920190611ab2565b15611b28575050565b9077ffffffffffffffffffffffffffffffffffffffffffffffff80927f9f737fe2000000000000000000000000000000000000000000000000000000005f52166004521660245260445ffd5b6004111561079657565b611b97611b8f61010083018361175f565b8101906117b0565b611bd073ffffffffffffffffffffffffffffffffffffffff610373849795945173ffffffffffffffffffffffffffffffffffffffff1690565b611c956040516020810190611be9816102f28a85611947565b51902092611c72602087013560401c611c35611c1c611c1c8b5173ffffffffffffffffffffffffffffffffffffffff1690565b73ffffffffffffffffffffffffffffffffffffffff1690565b9077ffffffffffffffffffffffffffffffffffffffffffffffff821677ffffffffffffffffffffffffffffffffffffffffffffffff821614611b1f565b611c8f838888611c8a885f52600160205260405f2090565b612cba565b94613226565b50611c9f81611b74565b1590811591611d5f575b50611d55576109ba94611cef94611ce3611cd7611cd1611ce9965f52600160205260405f2090565b94611729565b5165ffffffffffff1690565b92613273565b90613350565b611d0b611cfe60208301611cd7565b915165ffffffffffff1690565b7fffffffffffff000000000000000000000000000000000000000000000000000079ffffffffffff00000000000000000000000000000000000000009160d01b169160a01b161790565b5050505050600190565b905073ffffffffffffffffffffffffffffffffffffffff611d97611c1c885173ffffffffffffffffffffffffffffffffffffffff1690565b911614155f611ca9565b90816020910312610116575180151581036101165790565b6040513d5f823e3d90fd5b6040517f112d3a7d00000000000000000000000000000000000000000000000000000000815260016004820152306024820152606060448201525f6064820152906020908290608490829073ffffffffffffffffffffffffffffffffffffffff165afa908115611e61575f91611e38575090565b6109ba915060203d602011611e5a575b611e528183610e88565b810190611da1565b503d611e48565b611db9565b15611e6f575050565b9073ffffffffffffffffffffffffffffffffffffffff7fffffffff00000000000000000000000000000000000000000000000000000000927f52715752000000000000000000000000000000000000000000000000000000005f52166004521660245260445ffd5b15611ee0575050565b9073ffffffffffffffffffffffffffffffffffffffff80927f7ba5ffb5000000000000000000000000000000000000000000000000000000005f52166004521660245260445ffd5b15611f305750565b73ffffffffffffffffffffffffffffffffffffffff907faa6a4d5c000000000000000000000000000000000000000000000000000000005f521660045260245ffd5b516109ba8161078c565b15611f8357565b7fb40e017c000000000000000000000000000000000000000000000000000000005f5260045ffd5b15611fb35750565b7f1f5807e8000000000000000000000000000000000000000000000000000000005f5260045260245ffd5b7f4e487b71000000000000000000000000000000000000000000000000000000005f52601160045260245ffd5b90603c820180921161201957565b611fde565b906004820180921161201957565b606401908160641161201957565b600201908160021161201957565b9190820180921161201957565b1561205d5750565b65ffffffffffff907f2aaa3bc4000000000000000000000000000000000000000000000000000000005f521660045260245ffd5b9035907fffffffffffffffffffffffffffffffffffffffffffffffffffffffffffffffe181360301821215610116570180359067ffffffffffffffff821161011657602001918160051b3603831361011657565b91908110156117365760051b810135907fffffffffffffffffffffffffffffffffffffffffffffffffffffffffffffff2181360301821215610116570190565b9035907fffffffffffffffffffffffffffffffffffffffffffffffffffffffffffffffe181360301821215610116570180359067ffffffffffffffff8211610116576020019160c082023603831361011657565b9035907fffffffffffffffffffffffffffffffffffffffffffffffffffffffffffffffe181360301821215610116570180359067ffffffffffffffff8211610116576020019160a082023603831361011657565b906121d782610f55565b6121e46040519182610e88565b8281527fffffffffffffffffffffffffffffffffffffffffffffffffffffffffffffffe06122128294610f55565b01905f5b82811061222257505050565b60209060405161223181610e6c565b5f81525f838201525f60408201525f606082015282828501015201612216565b91908110156117365760a0020190565b6109ba903690611126565b6109ba903690610f8f565b7fffffffffffffffffffffffffffffffffffffffffffffffffffffffffffffffff81146120195760010190565b6122ad8261078c565b52565b909291926122bc611410565b505f91825b60a086016122cf8188612091565b905085101561230f576001916122ff6122f5876122ef612307958c612091565b906120e5565b60c0810190612125565b919050612048565b9301926122c1565b5092509360c081019061232c6123258383612179565b90506121cd565b9360a082016123476123416123258386612091565b926121cd565b5f915f5b885181101561244057808b6124186123f06123d58c61238061237b6001988f8f9061237591612179565b90612251565b612261565b946123cf60408701519160036123aa895173ffffffffffffffffffffffffffffffffffffffff1690565b91019073ffffffffffffffffffffffffffffffffffffffff165f5260205260405f2090565b9061383e565b925173ffffffffffffffffffffffffffffffffffffffff1690565b6123f8610ec9565b92835273ffffffffffffffffffffffffffffffffffffffff166020830152565b5f60408201525f606082015261242e828c61174b565b52612439818b61174b565b500161234b565b50989195969293979094505f975b84518910156127ba57989061246f61246a8a6122ef858e612091565b61226c565b946060860151946125238a6124c261249b8a5173ffffffffffffffffffffffffffffffffffffffff1690565b600489019073ffffffffffffffffffffffffffffffffffffffff165f5260205260405f2090565b976123cf60208b01996124f58b517fffffffff000000000000000000000000000000000000000000000000000000001690565b7fffffffff00000000000000000000000000000000000000000000000000000000165f5260205260405f2090565b6125c3612544895173ffffffffffffffffffffffffffffffffffffffff1690565b61259a6125718a517fffffffff000000000000000000000000000000000000000000000000000000001690565b9161257a610ec9565b94855273ffffffffffffffffffffffffffffffffffffffff166020850152565b7fffffffff00000000000000000000000000000000000000000000000000000000166040830152565b5f60608201526125d38c8461174b565b526125de8b8361174b565b5060808701935f5b855180518210156127a1576060612600836126089361174b565b510151611f72565b6126118161078c565b61261e575b6001016125e6565b8086519061262b9161174b565b51606001518c828b516126519073ffffffffffffffffffffffffffffffffffffffff1690565b73ffffffffffffffffffffffffffffffffffffffff165f90815260058b01602090815260408083208e517fffffffff000000000000000000000000000000000000000000000000000000001684528252808320938352929052206126b49261383e565b9a89516126d49073ffffffffffffffffffffffffffffffffffffffff1690565b9b8951612700907fffffffff000000000000000000000000000000000000000000000000000000001690565b8389519061270d9161174b565b516020015167ffffffffffffffff1691612725610ec9565b90815273ffffffffffffffffffffffffffffffffffffffff9e909e1660208f01527fffffffff000000000000000000000000000000000000000000000000000000001660408e015267ffffffffffffffff1660608d015261278581612277565b9b612790828d61174b565b5261279b908b61174b565b50612616565b50909c6001909c019b929750909550919250905061244e565b919750975061280c929495919395865261280760016127fa6104bd858b9073ffffffffffffffffffffffffffffffffffffffff165f5260205260405f2090565b9801916040369101610f15565b61383e565b61281e612817610ed8565b95866122a4565b602085015260408401526060830152608082015290565b6040908151916128458184610e88565b368337565b906004116101165790600490565b909291928360241161011657831161011657602401917fffffffffffffffffffffffffffffffffffffffffffffffffffffffffffffffdc0190565b909291928360441161011657831161011657604401917fffffffffffffffffffffffffffffffffffffffffffffffffffffffffffffffbc0190565b909291928360641161011657831161011657606401917fffffffffffffffffffffffffffffffffffffffffffffffffffffffffffffff9c0190565b919091357fffffffff000000000000000000000000000000000000000000000000000000008116926004811061293d575050565b7fffffffff00000000000000000000000000000000000000000000000000000000929350829060040360031b1b161690565b90600410156117365760040190565b90600510156117365760050190565b156129955750565b7fff00000000000000000000000000000000000000000000000000000000000000907f61b5251d000000000000000000000000000000000000000000000000000000005f52166004525f60245260445ffd5b156129ef5750565b7fff00000000000000000000000000000000000000000000000000000000000000907f30900f5a000000000000000000000000000000000000000000000000000000005f521660045260245ffd5b15612a455750565b7fffffffff00000000000000000000000000000000000000000000000000000000907fb9cf12b1000000000000000000000000000000000000000000000000000000005f52166004527fe9ae5c530000000000000000000000000000000000000000000000000000000060245260445ffd5b359060208110612ac5575090565b7fffffffffffffffffffffffffffffffffffffffffffffffffffffffffffffffff9060200360031b1b1690565b15612af957565b7f5cb045db000000000000000000000000000000000000000000000000000000005f5260045ffd5b15612b295750565b7f78ef8024000000000000000000000000000000000000000000000000000000005f526004525f60245260445ffd5b60405190612b6582610e2f565b5f6040838281528260208201520152565b60405190612b8382610e2f565b815f81525f60208201526040610f50612b58565b15612b9f5750565b73ffffffffffffffffffffffffffffffffffffffff907f18ee80e7000000000000000000000000000000000000000000000000000000005f521660045260245ffd5b15612bea575050565b7f3fd65609000000000000000000000000000000000000000000000000000000005f5260045260245260445ffd5b60405190612c2582610e50565b60606080835f81525f60208201525f6040820152612c41612b58565b838201520152565b15612c52575050565b9073ffffffffffffffffffffffffffffffffffffffff7fffffffff00000000000000000000000000000000000000000000000000000000927f31430d1c000000000000000000000000000000000000000000000000000000005f52166004521660245260445ffd5b919290612e8a612e9091612ccc612835565b50612d066001612cfd6104bd33899073ffffffffffffffffffffffffffffffffffffffff165f5260205260405f2090565b6113888161078c565b612e84612e7c60608301612e2e612d2f612d29612d23848861175f565b9061284a565b90612909565b612de4612d6e612d48612d42868a61175f565b9061296f565b357fff000000000000000000000000000000000000000000000000000000000000001690565b612db1612d87612d48612d81888c61175f565b9061297e565b917fff0000000000000000000000000000000000000000000000000000000000000081161561298d565b7fff00000000000000000000000000000000000000000000000000000000000000811680159081156131fc575b506129e7565b7fe9ae5c53000000000000000000000000000000000000000000000000000000007fffffffff00000000000000000000000000000000000000000000000000000000821614612a3d565b612e5e6044612e58612e53612e4d83612e47878b61175f565b90612858565b90612ab7565b61201e565b14612af2565b612e76612e4d6064612e70848861175f565b90612893565b9361175f565b91909261202c565b916128ce565b9061394c565b9392909190612e9f6040610ee7565b5f8152612ec7612eb860208a015165ffffffffffff1690565b65ffffffffffff166020830152565b80600487106131015750612ede612d29878661284a565b92612ee7612c18565b5f5f5b60608c01805180518310156130d7576105ca83612f069261174b565b73ffffffffffffffffffffffffffffffffffffffff8089169116148061309a575b612f345750600101612eea565b519a9b5098998b998695949350612f4c92509061174b565b51998a9186808660019760046060611ce998612f72612fda97612fab96612fec9e612c49565b612f8460408201518981811115612be1565b015196019073ffffffffffffffffffffffffffffffffffffffff165f5260205260405f2090565b907fffffffff00000000000000000000000000000000000000000000000000000000165f5260205260405f2090565b612fe6611cd78b61173b565b92613a8c565b975f985b608089015180518b101561308d57613083608092611ce98b8b8f61307d8c6130758f611cd7908f8f8761305c60019f93612fab6130699460056130368661306f9961174b565b519e019073ffffffffffffffffffffffffffffffffffffffff165f5260205260405f2090565b905f5260205260405f2090565b9661203a565b9061174b565b94369161125b565b91613ce0565b9a01999050612ff0565b5098509650505050505050565b506130ab60206105f584845161174b565b7fffffffff00000000000000000000000000000000000000000000000000000000808a16911614612f27565b505050819a5098612fec9392612fda87612fab886004869e9f611ce998612f728685606094612c49565b956131159299979593945080915015612b21565b61311d612b76565b5f5f5b60808901805180518310156131d6576105ca8361313c9261174b565b73ffffffffffffffffffffffffffffffffffffffff808d169116146131645750600101613120565b6109ba9950612fe69350611cd79250996003604061318b6131d094611ce99b9c9e5161174b565b51613197846001612b97565b6131a960208201518a81811115612be1565b015197019073ffffffffffffffffffffffffffffffffffffffff165f5260205260405f2090565b9261173b565b5050506109ba97506131d08960036040612fe695613197611ce99b9c9e611cd797612b97565b7f01000000000000000000000000000000000000000000000000000000000000009150145f612dde565b81519190604183036132565761324f9250602082015190606060408401519301515f1a90613ebb565b9192909190565b50505f9160029190565b8181029291811591840414171561201957565b9291909260409384516132868682610e88565b853682375061329860e082018261175f565b151590506132ff576109ba946132f4826132ee6132b6600195613f4a565b916132d26132d8608060a0840135930135926132d28460801c90565b90612048565b916fffffffffffffffffffffffffffffffff1690565b90613260565b930151910190613a8c565b5050505061330f81519182610e88565b5f815265ffffffffffff602082015290565b1561332857565b7f640783a4000000000000000000000000000000000000000000000000000000005f5260045ffd5b6134259092919261335f612835565b506133cb60405194613372604087610e88565b805165ffffffffffff1665ffffffffffff6133a26133978665ffffffffffff90511690565b65ffffffffffff1690565b9116111561346a5780516133c59065ffffffffffff165b65ffffffffffff168752565b60200190565b906133e76133e08365ffffffffffff90511690565b9160200190565b9065ffffffffffff6134036133978465ffffffffffff90511690565b9116101561345a57505165ffffffffffff165b65ffffffffffff166020840152565b61075d8265ffffffffffff613451613397611cd761344a8565ffffffffffff90511690565b9460200190565b91161115613321565b5165ffffffffffff169050613416565b82516133c59065ffffffffffff166133b9565b90601f602060809473ffffffffffffffffffffffffffffffffffffffff7fffffffffffffffffffffffffffffffffffffffffffffffffffffffffffffffe094600387521682860152606060408601528051918291826060880152018686015e5f8582860101520116010190565b9081602091031261011657516109ba81610734565b73ffffffffffffffffffffffffffffffffffffffff8116903082149283156137da575b8315613744575b83156136ae575b83156135cc575b50508115613543575090565b90506040517f5ab1bd53000000000000000000000000000000000000000000000000000000008152602081600481335afa8015611e615773ffffffffffffffffffffffffffffffffffffffff915f9161359d575b50161490565b6135bf915060203d6020116135c5575b6135b78183610e88565b8101906134ea565b5f613597565b503d6135ad565b61367392935060209161363f613613926040519384918683019190917fffffffff000000000000000000000000000000000000000000000000000000006020820193169052565b037fffffffffffffffffffffffffffffffffffffffffffffffffffffffffffffffe08101845283610e88565b60405193849283927f112d3a7d0000000000000000000000000000000000000000000000000000000084526004840161347d565b0381335afa908115611e61575f9161368f575b50905f80613537565b6136a8915060203d602011611e5a57611e528183610e88565b5f613686565b6040517f112d3a7d0000000000000000000000000000000000000000000000000000000081526002600482015273ffffffffffffffffffffffffffffffffffffffff83166024820152606060448201525f6064820152909350602081608481335afa908115611e61575f91613725575b5092613530565b61373e915060203d602011611e5a57611e528183610e88565b5f61371e565b6040517f112d3a7d0000000000000000000000000000000000000000000000000000000081526001600482015273ffffffffffffffffffffffffffffffffffffffff83166024820152606060448201525f6064820152909350602081608481335afa908115611e61575f916137bb575b5092613529565b6137d4915060203d602011611e5a57611e528183610e88565b5f6137b4565b3383149350613522565b6109ba916137f191613226565b90929192613f7a565b9190820391821161201957565b8115613811570490565b7f4e487b71000000000000000000000000000000000000000000000000000000005f52601260045260245ffd5b80516138498161078c565b6138528161078c565b1561392557600181516138648161078c565b61386d8161078c565b146138f5576002815161387f8161078c565b6138888161078c565b14613894575050505f90565b6109ba9261049a82600160206138d26138c56138bf61339760406138ee9a015165ffffffffffff1690565b42613807565b67ffffffffffffffff1690565b92015195019067ffffffffffffffff165f5260205260405f2090565b54906137fa565b6109ba9260206138ee920151929073ffffffffffffffffffffffffffffffffffffffff165f5260205260405f2090565b5050507fffffffffffffffffffffffffffffffffffffffffffffffffffffffffffffffff90565b90603381111561398b57813560601c927fffffffffffffffffffffffffffffffffffffffffffffffffffffffffffffffcc603460148501359401920190565b63ba597e7e5f526004601cfd5b156139a257505050565b65ffffffffffff93507fa494695a000000000000000000000000000000000000000000000000000000005f526004526024521660445260645ffd5b9065ffffffffffff8091169116029065ffffffffffff821691820361201957565b65ffffffffffff60019116019065ffffffffffff821161201957565b65ffffffffffff7fffffffffffffffffffffffffffffffffffffffffffffffffffffffffffffffff9116019065ffffffffffff821161201957565b15613a5e575050565b7f5dd55ff1000000000000000000000000000000000000000000000000000000005f5260045260245260445ffd5b939293613a97612835565b50613aa26040610ee7565b5f815265ffffffffffff60208201529460018251613abf8161078c565b613ac88161078c565b03613b755750613b7191613b46613b69926020613b0d87613b0733879073ffffffffffffffffffffffffffffffffffffffff165f5260205260405f2090565b54612048565b9101908151101590613b3d33859073ffffffffffffffffffffffffffffffffffffffff165f5260205260405f2090565b54905191613a55565b3373ffffffffffffffffffffffffffffffffffffffff165f5260205260405f2090565b918254612048565b9055565b92909160028351613b858161078c565b613b8e8161078c565b14613b9a575b50505050565b613c7493949550613c5992613c5492613c26613b69600160409501613c0b8a613bda86613b07613b4684879065ffffffffffff165f5260205260405f2090565b60208801908151101590613c023361049a85889065ffffffffffff165f5260205260405f2090565b54905191613998565b61049a8a33929065ffffffffffff165f5260205260405f2090565b905501613c4e611cfe613c48613c42845165ffffffffffff1690565b886139dd565b966139fe565b906139dd565b613a1a565b612eb8613c666040610ee7565b65ffffffffffff9094168452565b905f808080613b94565b60051b90681fffffffffffffffe067ffffffffffffffe083169216820361201957565b67ffffffffffffffff166004019067ffffffffffffffff821161201957565b67ffffffffffffffff60209116019067ffffffffffffffff821161201957565b939291613ceb612835565b5060208501613d1d6138c5613d18613d13613d0e855167ffffffffffffffff1690565b613c7e565b613ca1565b613cc0565b8251818110613e8d57505090613d476138c5613d13613d0e613d4f955167ffffffffffffffff1690565b016020015190565b908451613d5b81611472565b6040860151613d6982611472565b6001821480613e83575b8015613e65575b8015613e47575b8015613e2a575b8015613e0d575b8015613df0575b613daa57505060606109ba94950151613a8c565b613ded925083613db983611472565b7f78c19b49000000000000000000000000000000000000000000000000000000005f5260045260245260ff16604452606490565b5ffd5b50613dfa82611472565b600682148015613d965750808414613d96565b50613e1782611472565b600582148015613d8f5750808411613d8f565b50613e3482611472565b600482148015613d885750808410613d88565b50613e5182611472565b600382148015613d81575080841015613d81565b50613e6f82611472565b600282148015613d7a575080841115613d7a565b5080841415613d73565b7f78ef8024000000000000000000000000000000000000000000000000000000005f5260045260245260445ffd5b91907f7fffffffffffffffffffffffffffffff5d576e7357a4501ddfe92f46681b20a08411613f3f579160209360809260ff5f9560405194855216868401526040830152606082015282805260015afa15611e61575f5173ffffffffffffffffffffffffffffffffffffffff811615613f3557905f905f90565b505f906001905f90565b5050505f9160039190565b60c001356fffffffffffffffffffffffffffffffff8160801c91169048018082105f14613f75575090565b905090565b613f8381611b74565b80613f8c575050565b613f9581611b74565b60018103613fc5577ff645eedf000000000000000000000000000000000000000000000000000000005f5260045ffd5b613fce81611b74565b6002810361400257507ffce698f7000000000000000000000000000000000000000000000000000000005f5260045260245ffd5b8061400e600392611b74565b146140165750565b7fd78bce0c000000000000000000000000000000000000000000000000000000005f5260045260245ffdfea264697066735822122048c4842a821253f825526ec87428596313c43384fcc2379110fdfebb4aea3a3564736f6c634300081c0033",
    "linkReferences": {}
  },
  "methodIdentifiers": {
    "createSession((address,uint48,(uint8,uint256,uint48),(address,bytes4,uint256,(uint8,uint256,uint48),(uint8,uint64,bytes32,(uint8,uint256,uint48))[])[],(address,uint256,(uint8,uint256,uint48))[]),bytes)": "054608e9",
    "isInitialized(address)": "d60b347f",
    "isModuleType(uint256)": "ecd05961",
    "isValidSignatureWithSender(address,bytes32,bytes)": "f551e2ee",
    "onInstall(bytes)": "6d61fe70",
    "onUninstall(bytes)": "8a91b0e3",
    "revokeKey(bytes32)": "572f2210",
    "revokeKeys(bytes32[])": "3ec59279",
    "sessionSigner(address)": "5dd48d06",
    "sessionState(address,(address,uint48,(uint8,uint256,uint48),(address,bytes4,uint256,(uint8,uint256,uint48),(uint8,uint64,bytes32,(uint8,uint256,uint48))[])[],(address,uint256,(uint8,uint256,uint48))[]))": "66740450",
    "sessionStatus(address,bytes32)": "59130708",
    "supportsInterface(bytes4)": "01ffc9a7",
    "validateUserOp((address,uint256,bytes,bytes,bytes32,uint256,bytes32,bytes,bytes),bytes32)": "97003203"
  },
  "id": 109
}