{"abi":[{"type":"constructor","inputs":[{"name":"implementation_","type":"address","internalType":"address"},{"name":"initialOwner","type":"address","internalType":"address"}],"stateMutability":"nonpayable"},{"type":"function","name":"implementation","inputs":[],"outputs":[{"name":"","type":"address","internalType":"address"}],"stateMutability":"view"},{"type":"function","name":"owner","inputs":[],"outputs":[{"name":"","type":"address","internalType":"address"}],"stateMutability":"view"},{"type":"function","name":"renounceOwnership","inputs":[],"outputs":[],"stateMutability":"nonpayable"},{"type":"function","name":"transferOwnership","inputs":[{"name":"newOwner","type":"address","internalType":"address"}],"outputs":[],"stateMutability":"nonpayable"},{"type":"function","name":"upgradeTo","inputs":[{"name":"newImplementation","type":"address","internalType":"address"}],"outputs":[],"stateMutability":"nonpayable"},{"type":"event","name":"OwnershipTransferred","inputs":[{"name":"previousOwner","type":"address","indexed":true,"internalType":"address"},{"name":"newOwner","type":"address","indexed":true,"internalType":"address"}],"anonymous":false},{"type":"event","name":"Upgraded","inputs":[{"name":"implementation","type":"address","indexed":true,"internalType":"address"}],"anonymous":false},{"type":"error","name":"BeaconInvalidImplementation","inputs":[{"name":"implementation","type":"address","internalType":"address"}]},{"type":"error","name":"OwnableInvalidOwner","inputs":[{"name":"owner","type":"address","internalType":"address"}]},{"type":"error","name":"OwnableUnauthorizedAccount","inputs":[{"name":"account","type":"address","internalType":"address"}]}],"bytecode":{"object":"0x60803461013457601f61053b38819003918201601f19168301916001600160401b03831184841017610138578084926040948552833981010312610134576100468161014c565b906001600160a01b039061005c9060200161014c565b16908115610121575f80546001600160a01b031981168417825560405193916001600160a01b03909116907f8be0079c531659141344cd1fd0a4f28419497f9722a3daafe3b4186f6b6457e09080a3803b1561010157600180546001600160a01b0319166001600160a01b039290921691821790557fbc7cd75a20ee27fd9adebab32041f755214dbc6bffa90cc0225b39da2e5c2d3b5f80a26103da90816101618239f35b63211eb15960e21b5f9081526001600160a01b0391909116600452602490fd5b631e4fbdf760e01b5f525f60045260245ffd5b5f80fd5b634e487b7160e01b5f52604160045260245ffd5b51906001600160a01b03821682036101345756fe60806040526004361015610011575f80fd5b5f3560e01c80633659cfe61461027e5780635c60da1b1461022d578063715018a6146101935780638da5cb5b146101435763f2fde38b14610050575f80fd5b3461013f5760207ffffffffffffffffffffffffffffffffffffffffffffffffffffffffffffffffc36011261013f5760043573ffffffffffffffffffffffffffffffffffffffff811680910361013f576100a8610358565b80156101135773ffffffffffffffffffffffffffffffffffffffff5f54827fffffffffffffffffffffffff00000000000000000000000000000000000000008216175f55167f8be0079c531659141344cd1fd0a4f28419497f9722a3daafe3b4186f6b6457e05f80a3005b7f1e4fbdf7000000000000000000000000000000000000000000000000000000005f525f60045260245ffd5b5f80fd5b3461013f575f7ffffffffffffffffffffffffffffffffffffffffffffffffffffffffffffffffc36011261013f57602073ffffffffffffffffffffffffffffffffffffffff5f5416604051908152f35b3461013f575f7ffffffffffffffffffffffffffffffffffffffffffffffffffffffffffffffffc36011261013f576101c9610358565b5f73ffffffffffffffffffffffffffffffffffffffff81547fffffffffffffffffffffffff000000000000000000000000000000000000000081168355167f8be0079c531659141344cd1fd0a4f28419497f9722a3daafe3b4186f6b6457e08280a3005b3461013f575f7ffffffffffffffffffffffffffffffffffffffffffffffffffffffffffffffffc36011261013f57602073ffffffffffffffffffffffffffffffffffffffff60015416604051908152f35b3461013f5760207ffffffffffffffffffffffffffffffffffffffffffffffffffffffffffffffffc36011261013f5760043573ffffffffffffffffffffffffffffffffffffffff81169081810361013f576102d7610358565b3b1561032d57807fffffffffffffffffffffffff000000000000000000000000000000000000000060015416176001557fbc7cd75a20ee27fd9adebab32041f755214dbc6bffa90cc0225b39da2e5c2d3b5f80a2005b7f847ac564000000000000000000000000000000000000000000000000000000005f5260045260245ffd5b73ffffffffffffffffffffffffffffffffffffffff5f5416330361037857565b7f118cdaa7000000000000000000000000000000000000000000000000000000005f523360045260245ffdfea2646970667358221220ec6c16f4b1f78920e002e69fbdfb210c47a6d729eac54795c09b27e8107cf85964736f6c634300081c0033","linkReferences":{}},"methodIdentifiers":{"implementation()":"5c60da1b","owner()":"8da5cb5b","renounceOwnership()":"715018a6","transferOwnership(address)":"f2fde38b","upgradeTo(address)":"3659cfe6"},"id":14}