{"abi":[{"type":"function","name":"addValidationKey","inputs":[{"name":"credentialId","type":"bytes","internalType":"bytes"},{"name":"newKey","type":"bytes32[2]","internalType":"bytes32[2]"},{"name":"domain","type":"string","internalType":"string"}],"outputs":[],"stateMutability":"nonpayable"},{"type":"function","name":"getAccountKey","inputs":[{"name":"domain","type":"string","internalType":"string"},{"name":"credentialId","type":"bytes","internalType":"bytes"},{"name":"account","type":"address","internalType":"address"}],"outputs":[{"name":"","type":"bytes32[2]","internalType":"bytes32[2]"}],"stateMutability":"view"},{"type":"function","name":"getAccountList","inputs":[{"name":"domain","type":"string","internalType":"string"},{"name":"credentialId","type":"bytes","internalType":"bytes"}],"outputs":[{"name":"","type":"address[]","internalType":"address[]"}],"stateMutability":"view"},{"type":"function","name":"isInitialized","inputs":[{"name":"account","type":"address","internalType":"address"}],"outputs":[{"name":"","type":"bool","internalType":"bool"}],"stateMutability":"view"},{"type":"function","name":"isModuleType","inputs":[{"name":"moduleType","type":"uint256","internalType":"uint256"}],"outputs":[{"name":"","type":"bool","internalType":"bool"}],"stateMutability":"pure"},{"type":"function","name":"isValidSignatureWithSender","inputs":[{"name":"","type":"address","internalType":"address"},{"name":"signedHash","type":"bytes32","internalType":"bytes32"},{"name":"signature","type":"bytes","internalType":"bytes"}],"outputs":[{"name":"","type":"bytes4","internalType":"bytes4"}],"stateMutability":"view"},{"type":"function","name":"onInstall","inputs":[{"name":"data","type":"bytes","internalType":"bytes"}],"outputs":[],"stateMutability":"nonpayable"},{"type":"function","name":"onUninstall","inputs":[{"name":"data","type":"bytes","internalType":"bytes"}],"outputs":[],"stateMutability":"nonpayable"},{"type":"function","name":"removeValidationKey","inputs":[{"name":"credentialId","type":"bytes","internalType":"bytes"},{"name":"domain","type":"string","internalType":"string"}],"outputs":[],"stateMutability":"nonpayable"},{"type":"function","name":"supportsInterface","inputs":[{"name":"interfaceId","type":"bytes4","internalType":"bytes4"}],"outputs":[{"name":"","type":"bool","internalType":"bool"}],"stateMutability":"pure"},{"type":"function","name":"validateUserOp","inputs":[{"name":"userOp","type":"tuple","internalType":"struct PackedUserOperation","components":[{"name":"sender","type":"address","internalType":"address"},{"name":"nonce","type":"uint256","internalType":"uint256"},{"name":"initCode","type":"bytes","internalType":"bytes"},{"name":"callData","type":"bytes","internalType":"bytes"},{"name":"accountGasLimits","type":"bytes32","internalType":"bytes32"},{"name":"preVerificationGas","type":"uint256","internalType":"uint256"},{"name":"gasFees","type":"bytes32","internalType":"bytes32"},{"name":"paymasterAndData","type":"bytes","internalType":"bytes"},{"name":"signature","type":"bytes","internalType":"bytes"}]},{"name":"signedHash","type":"bytes32","internalType":"bytes32"}],"outputs":[{"name":"","type":"uint256","internalType":"uint256"}],"stateMutability":"view"},{"type":"event","name":"PasskeyCreated","inputs":[{"name":"keyOwner","type":"address","indexed":true,"internalType":"address"},{"name":"domain","type":"string","indexed":false,"internalType":"string"},{"name":"credentialId","type":"bytes","indexed":false,"internalType":"bytes"}],"anonymous":false},{"type":"event","name":"PasskeyRemoved","inputs":[{"name":"keyOwner","type":"address","indexed":true,"internalType":"address"},{"name":"domain","type":"string","indexed":false,"internalType":"string"},{"name":"credentialId","type":"bytes","indexed":false,"internalType":"bytes"}],"anonymous":false},{"type":"error","name":"AlreadyInitialized","inputs":[{"name":"smartAccount","type":"address","internalType":"address"}]},{"type":"error","name":"BadCredentialIDLength","inputs":[]},{"type":"error","name":"BadDomainLength","inputs":[]},{"type":"error","name":"EmptyKey","inputs":[]},{"type":"error","name":"InvalidAuthDataFlags","inputs":[{"name":"flags","type":"bytes1","internalType":"bytes1"}]},{"type":"error","name":"InvalidClientData","inputs":[{"name":"field","type":"string","internalType":"string"}]},{"type":"error","name":"InvalidTargetAddress","inputs":[{"name":"target","type":"address","internalType":"address"}]},{"type":"error","name":"KeyAlreadyExists","inputs":[]},{"type":"error","name":"KeyNotFound","inputs":[{"name":"domain","type":"string","internalType":"string"},{"name":"credentialId","type":"bytes","internalType":"bytes"},{"name":"account","type":"address","internalType":"address"}]},{"type":"error","name":"NotInitialized","inputs":[{"name":"smartAccount","type":"address","internalType":"address"}]}],"bytecode":{"object":"0x60808060405234601557612c71908161001a8239f35b5f80fdfe6080806040526004361015610012575f80fd5b5f3560e01c90816301ffc9a7146109905750806359be375f146109175780635d01b5eb146107dd5780636d61fe70146106f257806380c904d6146105ae5780638a91b0e3146103e85780638f5bc2af146102f5578063970032031461020a578063d60b347f146101bf578063ecd05961146101815763f551e2ee14610095575f80fd5b3461017d5760607ffffffffffffffffffffffffffffffffffffffffffffffffffffffffffffffffc36011261017d576100cc610bb2565b5060443567ffffffffffffffff811161017d576100fa6100f3610102923690600401610b84565b3691610b30565b6024356110ab565b156101555760207f1626ba7e000000000000000000000000000000000000000000000000000000005b7fffffffff0000000000000000000000000000000000000000000000000000000060405191168152f35b60207fffffffff0000000000000000000000000000000000000000000000000000000061012b565b5f80fd5b3461017d5760207ffffffffffffffffffffffffffffffffffffffffffffffffffffffffffffffffc36011261017d5760206040516001600435148152f35b3461017d5760207ffffffffffffffffffffffffffffffffffffffffffffffffffffffffffffffffc36011261017d5760206102006101fb610bb2565b610d42565b6040519015158152f35b3461017d5760407ffffffffffffffffffffffffffffffffffffffffffffffffffffffffffffffffc36011261017d5760043567ffffffffffffffff811161017d578036036101207ffffffffffffffffffffffffffffffffffffffffffffffffffffffffffffffffc82011261017d577fffffffffffffffffffffffffffffffffffffffffffffffffffffffffffffffdd610104830135910181121561017d570160040180359067ffffffffffffffff821161017d5760200190803603821361017d576102db916100fa913691610b30565b156102ec5760205f5b604051908152f35b602060016102e4565b3461017d5760807ffffffffffffffffffffffffffffffffffffffffffffffffffffffffffffffffc36011261017d5760043567ffffffffffffffff811161017d57610344903690600401610b66565b366043121561017d5760405161035b604082610ab5565b803660641161017d576024905b606482106103d857505060643567ffffffffffffffff811161017d57610392903690600401610b66565b9061039c33610d42565b156103ac576103aa92610df7565b005b7ff91bd6f1000000000000000000000000000000000000000000000000000000005f523360045260245ffd5b8135815260209182019101610368565b3461017d5760207ffffffffffffffffffffffffffffffffffffffffffffffffffffffffffffffffc36011261017d5760043567ffffffffffffffff811161017d57610437903690600401610b84565b81019060208183031261017d5780359067ffffffffffffffff821161017d57019080601f8301121561017d5781359167ffffffffffffffff8311610581578260051b6040519361048a6020830186610ab5565b84526020808501918301019183831161017d5760208101915b8383106104d957855f5b81518110156103aa576001906104d360208260051b850101516020810151905190610c3d565b016104ad565b823567ffffffffffffffff811161017d5782019060407fffffffffffffffffffffffffffffffffffffffffffffffffffffffffffffffe0838803011261017d576040519061052682610a7d565b602083013567ffffffffffffffff811161017d5787602061054992860101610b66565b825260408301359167ffffffffffffffff831161017d5761057288602080969581960101610b66565b838201528152019201916104a3565b7f4e487b71000000000000000000000000000000000000000000000000000000005f52604160045260245ffd5b3461017d5760607ffffffffffffffffffffffffffffffffffffffffffffffffffffffffffffffffc36011261017d5760043567ffffffffffffffff811161017d576105fd903690600401610b84565b60243567ffffffffffffffff811161017d5761061d903690600401610b84565b6044359273ffffffffffffffffffffffffffffffffffffffff8416840361017d5773ffffffffffffffffffffffffffffffffffffffff92602091826040978880516106688282610ab5565b369037828951938492833781015f815203019020838751948593843782019081520301902091165f52602052805f20815190815f905b600282106106dc575050506106b38282610ab5565b8151905f825b600282106106c657505050f35b60208060019285518152019301910190916106b9565b600160208192855481520193019101909161069e565b3461017d5760207ffffffffffffffffffffffffffffffffffffffffffffffffffffffffffffffffc36011261017d5760043567ffffffffffffffff811161017d57610741903690600401610b84565b8061074857005b81019060808183031261017d57803567ffffffffffffffff811161017d5782610772918301610b66565b9082603f8201121561017d576040519061078d604083610ab5565b606081018285821161017d5760208301905b8282106107cd575050359367ffffffffffffffff851161017d576103aa946107c79201610b66565b91610df7565b813581526020918201910161079f565b3461017d5760407ffffffffffffffffffffffffffffffffffffffffffffffffffffffffffffffffc36011261017d5760043567ffffffffffffffff811161017d5761082c903690600401610b84565b906024359067ffffffffffffffff821161017d5760209261085284933690600401610b84565b94909282604051938492833781016001815203019020836040519485938437820190815203019020604051806020835491828152019081935f5260205f20905f5b81811061090157505050816108a9910382610ab5565b604051918291602083019060208452518091526040830191905f5b8181106108d2575050500390f35b825173ffffffffffffffffffffffffffffffffffffffff168452859450602093840193909201916001016108c4565b8254845260209093019260019283019201610893565b3461017d5760407ffffffffffffffffffffffffffffffffffffffffffffffffffffffffffffffffc36011261017d5760043567ffffffffffffffff811161017d57610966903690600401610b66565b6024359067ffffffffffffffff821161017d5761098a6103aa923690600401610b66565b90610c3d565b3461017d5760207ffffffffffffffffffffffffffffffffffffffffffffffffffffffffffffffffc36011261017d57600435907fffffffff00000000000000000000000000000000000000000000000000000000821680920361017d57817f01ffc9a70000000000000000000000000000000000000000000000000000000060209314908115610a53575b8115610a29575b5015158152f35b7fdd2b238d0000000000000000000000000000000000000000000000000000000091501483610a22565b7f6251d0ed0000000000000000000000000000000000000000000000000000000081149150610a1b565b6040810190811067ffffffffffffffff82111761058157604052565b6020810190811067ffffffffffffffff82111761058157604052565b90601f7fffffffffffffffffffffffffffffffffffffffffffffffffffffffffffffffe0910116810190811067ffffffffffffffff82111761058157604052565b67ffffffffffffffff811161058157601f017fffffffffffffffffffffffffffffffffffffffffffffffffffffffffffffffe01660200190565b929192610b3c82610af6565b91610b4a6040519384610ab5565b82948184528183011161017d578281602093845f960137010152565b9080601f8301121561017d57816020610b8193359101610b30565b90565b9181601f8401121561017d5782359167ffffffffffffffff831161017d576020838186019501011161017d57565b6004359073ffffffffffffffffffffffffffffffffffffffff8216820361017d57565b907fffffffffffffffffffffffffffffffffffffffffffffffffffffffffffffffe0601f602080948051918291828752018686015e5f8582860101520116010190565b9091610c2f610b8193604084526040840190610bd5565b916020818403910152610bd5565b604051825190602081818601938085835e8101600181520301902090610c7d604051602081865195828801968088845e82019081520301902033906118be565b91602060405192610c8d84610a7d565b5f84525f8285015281604051809289518091835e81015f8152030190209160405192839187518091845e82019081520301902073ffffffffffffffffffffffffffffffffffffffff33165f5260205260405f20905f5b60028110610d2e57505050610cf6575050565b610d297f60a29a47798fec901f6df6fe2a86177130b82aecf219f6c7960182b8a062763691604051918291339583610c18565b0390a2565b600190602083519301928185015501610ce3565b602073ffffffffffffffffffffffffffffffffffffffff916084604051809481937f112d3a7d00000000000000000000000000000000000000000000000000000000835260016004840152306024840152606060448401525f6064840152165afa908115610dec575f91610db4575090565b90506020813d602011610de4575b81610dcf60209383610ab5565b8101031261017d5751801515810361017d5790565b3d9150610dc2565b6040513d5f823e3d90fd5b90604051835190602081818701938085835e81015f81520301902090604051602081865194828801958087845e82019081520301902073ffffffffffffffffffffffffffffffffffffffff33165f5260205260405f2060405190815f905b6002821061104557505050610e6b604082610ab5565b8051159081611038575b501561101057825115801590611003575b15610fdb57845160018110159081610fcf575b5015610fa7576010845110610f7f57602090610ede604051838189518086835e8101600181520301902060405187518087835e81019182528481339303019020611fd7565b5081604051809288518091835e81015f8152030190209160405192839186518091845e82019081520301902073ffffffffffffffffffffffffffffffffffffffff33165f5260205260405f20905f5b60028110610f6b57505050610d297f3c6e30f99b4a1e8aae9cdcfbc2d6683bf8347bb160ae280eb95513567c07b47391604051918291339583610c18565b600190602083519301928185015501610f2d565b7f985f38f1000000000000000000000000000000000000000000000000000000005f5260045ffd5b7f736ea95b000000000000000000000000000000000000000000000000000000005f5260045ffd5b60ff915011155f610e99565b7f3cd69fac000000000000000000000000000000000000000000000000000000005f5260045ffd5b5060208301511515610e86565b7faa1ba2f8000000000000000000000000000000000000000000000000000000005f5260045ffd5b602091500151155f610e75565b6001602081928554815201930191019091610e55565b92919261106782610af6565b916110756040519384610ab5565b82948184528183011161017d578281602093845f96015e010152565b9080601f8301121561017d578151610b819260200161105b565b908051810160a0826020830192031261017d57602082015167ffffffffffffffff811161017d578160206110e192850101611091565b90604083015167ffffffffffffffff811161017d57830181603f8201121561017d57818160406020611116940151910161105b565b9181607f8501121561017d576040938451926111328685610ab5565b60a082018482821161017d5760608401905b828210611899575050519167ffffffffffffffff831161017d5761116b9201602001611091565b81516020101561186c578482017f050000000000000000000000000000000000000000000000000000000000000080825116149083516020101561186c57517fff00000000000000000000000000000000000000000000000000000000000000169015611841575084516111de81610a99565b5f815285525f93602081019182602083518401018082036117ee575b87159110176117e15761125261124d61124889516112188b82610ab5565b600b81527f226368616c6c656e676522000000000000000000000000000000000000000000602082015289611a79565b612a5a565b611e2c565b97606098805180611668575b5050885160208114998a61161a575b5050506112b561124d61124889516112858b82610ab5565b600681527f2274797065220000000000000000000000000000000000000000000000000000602082015289611a79565b602081519101207f22b2770424b191bc81d8034b28a34e37bcccbb0c313de464a02a119e7980ce9d036115bd5760208091818061132d61124d6112488d6112fe81519182610ab5565b600881527f226f726967696e22000000000000000000000000000000000000000000000000858201528d611a79565b8b51928184925191829101835e81015f8152030190208951938285935191829101845e82019081520301902073ffffffffffffffffffffffffffffffffffffffff33165f52602052855f2094865195865f905b600282106115a7575050506113d5906113998888610ab5565b8751906113a68983610ab5565b600d82527f2263726f73734f726967696e22000000000000000000000000000000000000006020830152611a79565b600781511661150e575b506020915f918751918291518091835e8101838152039060025afa15611504575f602091815161142e8480895180948280830197805191829101895e8201908382015203018084520182610ab5565b8651918291518091835e8101838152039060025afa156114fa575f5191602082519201518094602083519301519381519586526020860152840152606083015260808201525f805260205f60a0836101005afa503d156114c2575b507f7fffffff800000007fffffffffffffffde737d56d38bcf4279dce5617e3192a85f5160011491111090816114bd575090565b905090565b6d1ab2e8006fd8b71907bf06a5bdee3b611489575f60a06020926dd01ea45f9efd5c54f037fa57ea1a5afa156114f8575f611489565bfe5b82513d5f823e3d90fd5b83513d5f823e3d90fd5b61151790612a5a565b602081519101207fba9154e0baa69c78e0ca563b867df81bae9d177c4ea1452c35c84386a70f0f7a0361154a575f6113df565b606486517fc94792c800000000000000000000000000000000000000000000000000000000815260206004820152600b60248201527f63726f73734f726967696e0000000000000000000000000000000000000000006044820152fd5b6001602081928554815201930191019091611380565b606487517fc94792c800000000000000000000000000000000000000000000000000000000815260206004820152600460248201527f74797065000000000000000000000000000000000000000000000000000000006044820152fd5b60209192939a5001519060208110611638575b5014965f808061126d565b7fffffffffffffffffffffffffffffffffffffffffffffffffffffffffffffffff9060200360031b1b165f61162d565b90995060038160021c0290600381169081156117c65750017fffffffffffffffffffffffffffffffffffffffffffffffffffffffffffffffff015b885199818b5260208b01918b01916003600460208501937ffc000000fc00686c7074787c8084888c9094989ca0a4a8acb0b4b8bcc0c4c8cc605b527804080c1014181c2024282c3034383c4044484c5054585c6064603b526ef8fcf800fcd0d4d8dce0e4e8ecf0f4601a525b0191825160ff81165160061c81601e1a517ffc000000fc00686c7074787c8084888c9094989ca0a4a8acb0b4b8bcc0c4c8cc161760061c81601d1a517ffc000000fc00686c7074787c8084888c9094989ca0a4a8acb0b4b8bcc0c4c8cc161760061c90601c1a517ffc000000fc00686c7074787c8084888c9094989ca0a4a8acb0b4b8bcc0c4c8cc1617815201908b838310156117b2575060039060049061170f565b9150505f92018a52525f6060525f8061125e565b613d3d91508b01511860ff81161590601e1a150190036116a3565b63101827965f526004601cfd5b96506118368780515f1a926022825363ffffffff86113d3d3e8560d81b7f2200000000000000000000000000000000000000000000000000000000000000175f525f86612445565b9790979181536111fa565b7fa64c5eff000000000000000000000000000000000000000000000000000000005f5260045260245ffd5b7f4e487b71000000000000000000000000000000000000000000000000000000005f52603260045260245ffd5b8151815260209182019101611144565b805482101561186c575f5260205f2001905f90565b906001820191815f528260205260405f20548015155f14611a71577fffffffffffffffffffffffffffffffffffffffffffffffffffffffffffffffff8101818111611a44578254907fffffffffffffffffffffffffffffffffffffffffffffffffffffffffffffffff8201918211611a44578181036119da575b505050805480156119ad577fffffffffffffffffffffffffffffffffffffffffffffffffffffffffffffffff019061197082826118a9565b7fffffffffffffffffffffffffffffffffffffffffffffffffffffffffffffffff82549160031b1b19169055555f526020525f6040812055600190565b7f4e487b71000000000000000000000000000000000000000000000000000000005f52603160045260245ffd5b611a2f6119ea6119fa93866118a9565b90549060031b1c928392866118a9565b81939154907fffffffffffffffffffffffffffffffffffffffffffffffffffffffffffffffff9060031b92831b921b19161790565b90555f528360205260405f20555f8080611938565b7f4e487b71000000000000000000000000000000000000000000000000000000005f52601160045260245ffd5b505050505f90565b919091604051611a8881610a99565b5f81526040526060926002600783511614611aa1575050565b60208151910120606091805190600282600716119060208316928060381c63ffffffff169180158215179363ffffffff8211923d3d908460181b983d983d947fffffffffffffffffffffffffffffffffffffffffff00000000ffffffffffffff169515611b90575b505050505050505050505090805160051b91825b611b2657505050565b7fffffffffffffffffffffffffffffffffffffffffffffffffffffffffffffffe083839694959601519401918160606080875116611b7f575b6020815191012003611b72575050505090565b9294935090919082611b1d565b505081611b8b86612b4d565b611b5f565b9b909192939495969798999b611cf65750611cdb576040519960208b019796889695949392885b611c8b57505050506040945088840396877fffffffffffffffffffffffffffffffffffffffffffffffffffffffffffffffe001948560051c8b52865263ffffffff8a11913e8760381b1760201790521015611c1b575b808080808080808080611b09565b7fffffffffffffffffffffffffffffffffffffffffffffffffffffffffffffffe080602092938601015b83518151855281520191019080821015611c82577fffffffffffffffffffffffffffffffffffffffffffffffffffffffffffffffe0602091611c45565b50505f80611c0d565b88602099899596979899528051908383883e84827fffffffffffffffffffffffffffffffffffffffffffffffffff00000000ffffff1617905260181c63ffffffff16988994019796959493611bb7565b50505050505091925050905f80808080808080808080611b09565b9a80611b09565b915f92600481019283111590515f915b60048303611d1a57505050565b90919482861a907fffffffffffffffffffffffffffffffffffffffffffffffffffffffffffffffd082019083667e0000007e03ff831c16156117e157600192826007601060307fffffffffffffffffffffffffffffffffffffffffffffffffffffffffffffffd0961160051b9211020190039060041b010195019190611d0d565b90607f811115611e225780601f538060061c601e536107ff811115611e0b5780600c1c601d5361ffff811115611df25780621100009160121c601c535f5163073f3f3f1663f08080801760e01b83521060021b0190565b506003905f51620f3f3f1662e080801760e81b81520190565b506002905f51611f3f1661c0801760f01b81520190565b9060019181530190565b908151601f8184010190600182515f1a600286015161ff00161761222214911116156117e157602160206040510193015b818103611e9c5750505f82526020604051927fffffffffffffffffffffffffffffffffffffffffffffffffffffffffffffffe084820301845201604052565b600181949294515f1a910190605c8103611fb8575b5090838203611ec75763101827965f526004601cfd5b600182515f1a92019160016b100000000000800400000000821c16611fab578460758214611f4257507fffffffffffffffffffffffffffffffffffffffffffffffffffffffffffffffab72080000000c000000000000000a0000000d000991011a9081611f3457506117e1565b600191815301925b90611e5d565b611f519150611f6c9293611cfd565b818161dbff821161d80083101715611f72575b505092611d9b565b92611f3c565b620ffc009350611f929192506002615c75825160f01c1489029101611cfd565b92906103ff1691600a1b16016201000001905f80611f64565b9060019181530192611f3c565b60228103611fc9575050825f611eb1565b916001919281530192611f3c565b6001810190825f528160205260405f2054155f1461202957805468010000000000000000811015610581576120166119fa8260018794018555846118a9565b905554915f5260205260405f2055600190565b5050505f90565b5b600164010000260082515f1a1c1615610b8157600101612031565b9063ffffffff81113d3d3e60181b907fffffffffffffffffffffffffffffffffffffffffffffffffff00000000ffffff161790565b9063ffffffff81113d3d3e60981b907fffffffffffffffffff00000000ffffffffffffffffffffffffffffffffffffff161790565b9063ffffffff81113d3d3e60381b907fffffffffffffffffffffffffffffffffffffffffff00000000ffffffffffffff161790565b9063ffffffff81113d3d3e60b81b907fffffffffff00000000ffffffffffffffffffffffffffffffffffffffffffffff161790565b907fffffffffffffffffffffffffff0000000000000000ffffffffffffffffffffff7fffffffffffffffffffffffffff00000000ffffffffffffffffffffffffffffff7fffffffffffffffffffffffffffffffffffffffffffffffffffffffffffffffe0600495949796978560405199039503019363ffffffff85113d3d3e63ffffffff81113d3d3e60781b9360581b169116171717825260208201604052565b907fffffffffffffffffffffffffff0000000000000000ffffffffffffffffffffff7fffffffffffffffffffffffffff00000000ffffffffffffffffffffffffffffff7fffffffffffffffffffffffffffffffffffffffffffffffffffffffffffffffe0600595949796978560405199039503019363ffffffff85113d3d3e63ffffffff81113d3d3e60781b9360581b169116171717825260208201604052565b907fffffffffffffffffffffffffff0000000000000000ffffffffffffffffffffff7fffffffffffffffffffffffffff00000000ffffffffffffffffffffffffffffff7fffffffffffffffffffffffffffffffffffffffffffffffffffffffffffffffe0600695949796978560405199039503019363ffffffff85113d3d3e63ffffffff81113d3d3e60781b9360581b169116171717825260208201604052565b907fffffffffffffffffffffffffff0000000000000000ffffffffffffffffffffff7fffffffffffffffffffffffffff00000000ffffffffffffffffffffffffffffff7fffffffffffffffffffffffffffffffffffffffffffffffffffffffffffffffe0600195949796978560405199039503019363ffffffff85113d3d3e63ffffffff81113d3d3e60781b9360581b169116171717825260208201604052565b907fffffffffffffffffffffffffff0000000000000000ffffffffffffffffffffff7fffffffffffffffffffffffffff00000000ffffffffffffffffffffffffffffff7fffffffffffffffffffffffffffffffffffffffffffffffffffffffffffffffe0600295949796978560405199039503019363ffffffff85113d3d3e63ffffffff81113d3d3e60781b9360581b169116171717825260208201604052565b939261245d6124575f94935f5161204c565b92612030565b9281841015612574575082515f1a6022811490605b811460016703ff200000000000607b8414931c1692612555576125475761252e576125175760048301818111156124cf575b50600583019081116117e1576466616c7365835160d81c036117e157610b81926124579282966121c1565b8390845160e01c90637472756582146125035750636e756c6c036124a457612457929591506004610b819401958692612262565b610b819550809350612457949150966121c1565b909161252692610b81956128aa565b929092612030565b50919061253b939461264f565b909190610b8190612030565b5050919061253b939461257b565b505050938261256c6124579396610b8195926127c5565b958692612120565b9450505090565b93905f9081600185015b8681101561264a5786908215612615575b6125a09289612445565b8082806125b5575b5050506001865b01612585565b94856125c982600194959851604017612081565b90520193515f1a605d81146125ee57602c146125e65780806125a8565b6001906125af565b5061260c919650612612959350600190979294975b019586946120b6565b90612303565b91565b61261f9150612030565b90605d82515f1a1461263357908690612596565b9550612612949250600161260c9197929497612603565b6117e1565b9390915f92600182015b8581101561264a578415612748575b61267190612030565b61267b86826127c5565b908661268683612030565b603a81515f1a146126a0575b509050600191505b01612659565b9660016126b193949801908a612445565b908092819783946126c6575b50889150612692565b6126fe827fffffffffffffffffffffffffffffffffffffffffffffffffffffffffffffffe08d612703950301920384516080176120eb565b612081565b9052515f1a607d811461272857602c1461272057808080806126bd565b60019061269a565b5061261294955060016127429197929497019586946120b6565b906123a4565b61275190612030565b607d81515f1a036126685761261294955060016127429197929497612603565b6001667e0000007e03ff7fffffffffffffffffffffffffffffffffffffffffffffffffffffffffffffffd0848401515f1a011c16156117e157600582036127b6575050565b60016127c3920190612771565b565b818110156117e1576001015b80515f1a6022811461285e57605c036128565760018101515f1a60016a05101104000000000020017fffffffffffffffffffffffffffffffffffffffffffffffffffffffffffffffde83011c1661284d576075146128395750805b8110156117e15760010190565b806128476002600693612771565b016127d1565b506002016127d1565b6001016127d1565b509061282c565b90815b600a7fffffffffffffffffffffffffffffffffffffffffffffffffffffffffffffffd082515f1a01101561289e57600101612868565b8092146001166117e157565b919092508092602d82515f1a14612a4f575b600a7fffffffffffffffffffffffffffffffffffffffffffffffffffffffffffffffd085515f1a0110156117e1576030600185515f1a95019403612a0d575b602e84515f1a146129fa575b83516065815f1a602017146129b7575b50906003917fffffffffffffffffffffffffff0000000000000000ffffffffffffffffffffff7fffffffffffffffffffffffffff00000000ffffffffffffffffffffffffffffff7fffffffffffffffffffffffffffffffffffffffffffffffffffffffffffffffe0604051968589039503019363ffffffff85113d3d3e63ffffffff81113d3d3e60781b9360581b16911617171781526020810160405291565b60016003939295620100017ffffffffffffffffffffffffffffffffffffffffffffffffffffffffffffffff26129f294841a011a0101612865565b939091612917565b926001612a079101612865565b92612907565b9190925b600a7fffffffffffffffffffffffffffffffffffffffffffffffffffffffffffffffd082515f1a011015612a4757600101612a11565b9290916128fb565b6001820193506128bc565b8051919060608115841517612b4857508260581c63ffffffff16928060101615612a82575050565b8060781c63ffffffff16604051948260d81c63ffffffff16017fffffffffffffffffffffffffffffffffffffffffffffffffffffffffffffffe080601f8401165b808301518189015201908115612afb57907fffffffffffffffffffffffffffffffffffffffffffffffffffffffffffffffe090612ac3565b505060409080865285015f6020820152016040528363ffffffff81113d3d3e60581b907fffffffffffffffffffffffffffffffffff00000000ffffffffffffffffffffff16176010179052565b925050565b8051919060608115841517612b4857508260981c63ffffffff16928060081615612b75575050565b8060b81c63ffffffff16604051948260d81c63ffffffff16017fffffffffffffffffffffffffffffffffffffffffffffffffffffffffffffffe080601f8401165b808301518189015201908115612bee57907fffffffffffffffffffffffffffffffffffffffffffffffffffffffffffffffe090612bb6565b505060409080865285015f6020820152016040528363ffffffff81113d3d3e60981b907fffffffffffffffffff00000000ffffffffffffffffffffffffffffffffffffff1617600817905256fea2646970667358221220625f3eb0f7a522ac90f76466d36092b7185134a6d64d28ea40547fc98d1d6f4864736f6c634300081c0033","linkReferences":{}},"methodIdentifiers":{"addValidationKey(bytes,bytes32[2],string)":"8f5bc2af","getAccountKey(string,bytes,address)":"80c904d6","getAccountList(string,bytes)":"5d01b5eb","isInitialized(address)":"d60b347f","isModuleType(uint256)":"ecd05961","isValidSignatureWithSender(address,bytes32,bytes)":"f551e2ee","onInstall(bytes)":"6d61fe70","onUninstall(bytes)":"8a91b0e3","removeValidationKey(bytes,string)":"59be375f","supportsInterface(bytes4)":"01ffc9a7","validateUserOp((address,uint256,bytes,bytes,bytes32,uint256,bytes32,bytes,bytes),bytes32)":"97003203"},"id":110}